{"abi":[{"inputs":[],"stateMutability":"nonpayable","type":"constructor"},{"inputs":[{"internalType":"address","name":"Address","type":"address"}],"name":"addAdmin","outputs":[],"stateMutability":"nonpayable","type":"function"},{"inputs":[{"internalType":"address","name":"Address","type":"address"}],"name":"addCarDealer","outputs":[],"stateMutability":"nonpayable","type":"function"},{"inputs":[{"internalType":"address","name":"Address","type":"address"}],"name":"addCarMaintenance","outputs":[],"stateMutability":"nonpayable","type":"function"},{"inputs":[{"internalType":"address","name":"Address","type":"address"}],"name":"addSecondHandCarSale","outputs":[],"stateMutability":"nonpayable","type":"function"},{"inputs":[{"internalType":"address","name":"","type":"address"}],"name":"admin","outputs":[{"internalType":"bool","name":"","type":"bool"}],"stateMutability":"view","type":"function"},{"inputs":[{"internalType":"address","name":"","type":"address"}],"name":"carDealer","outputs":[{"internalType":"bool","name":"","type":"bool"}],"stateMutability":"view","type":"function"},{"inputs":[{"internalType":"string","name":"","type":"string"},{"internalType":"uint256","name":"","type":"uint256"}],"name":"carHistory","outputs":[{"internalType":"string","name":"VIN","type":"string"},{"internalType":"string","name":"date","type":"string"},{"internalType":"string","name":"location","type":"string"},{"internalType":"string","name":"details","type":"string"}],"stateMutability":"view","type":"function"},{"inputs":[{"internalType":"address","name":"","type":"address"}],"name":"carMaintenance","outputs":[{"internalType":"bool","name":"","type":"bool"}],"stateMutability":"view","type":"function"},{"inputs":[{"internalType":"string","name":"Vin","type":"string"},{"internalType":"string","name":"Date","type":"string"},{"internalType":"string","name":"Location","type":"string"},{"internalType":"string","name":"Details","type":"string"}],"name":"changeOwner","outputs":[],"stateMutability":"nonpayable","type":"function"},{"inputs":[{"internalType":"string","name":"Vin","type":"string"}],"name":"displayAll","outputs":[{"components":[{"internalType":"string","name":"VIN","type":"string"},{"internalType":"string","name":"date","type":"string"},{"internalType":"string","name":"location","type":"string"},{"internalType":"string","name":"details","type":"string"}],"internalType":"struct transaction.transactionDetails[]","name":"","type":"tuple[]"}],"stateMutability":"view","type":"function"},{"inputs":[{"internalType":"string","name":"Vin","type":"string"},{"internalType":"string","name":"Date","type":"string"},{"internalType":"string","name":"Location","type":"string"},{"internalType":"string","name":"Details","type":"string"}],"name":"maintenance","outputs":[],"stateMutability":"nonpayable","type":"function"},{"inputs":[{"internalType":"string","name":"Vin","type":"string"},{"internalType":"string","name":"Date","type":"string"},{"internalType":"string","name":"Location","type":"string"},{"internalType":"string","name":"Details","type":"string"}],"name":"newCar","outputs":[],"stateMutability":"nonpayable","type":"function"},{"inputs":[{"internalType":"address","name":"","type":"address"}],"name":"secondHandCarSale","outputs":[{"internalType":"bool","name":"","type":"bool"}],"stateMutability":"view","type":"function"}],"devdoc":{"kind":"dev","methods":{},"version":1},"evm":{"assembly":"    /* \"Transaction.sol\":33:2775  contract transaction{... */\n  mstore(0x40, 0x80)\n    /* \"Transaction.sol\":500:555  constructor() {... */\n  callvalue\n  dup1\n  iszero\n  tag_1\n  jumpi\n  0x00\n  dup1\n  revert\ntag_1:\n  pop\n    /* \"Transaction.sol\":544:548  true */\n  0x01\n    /* \"Transaction.sol\":524:529  admin */\n  0x00\n    /* \"Transaction.sol\":524:541  admin[msg.sender] */\n  dup1\n    /* \"Transaction.sol\":530:540  msg.sender */\n  caller\n    /* \"Transaction.sol\":524:541  admin[msg.sender] */\n  0xffffffffffffffffffffffffffffffffffffffff\n  and\n  0xffffffffffffffffffffffffffffffffffffffff\n  and\n  dup2\n  mstore\n  0x20\n  add\n  swap1\n  dup2\n  mstore\n  0x20\n  add\n  0x00\n  keccak256\n  0x00\n    /* \"Transaction.sol\":524:548  admin[msg.sender] = true */\n  0x0100\n  exp\n  dup2\n  sload\n  dup2\n  0xff\n  mul\n  not\n  and\n  swap1\n  dup4\n  iszero\n  iszero\n  mul\n  or\n  swap1\n  sstore\n  pop\n    /* \"Transaction.sol\":33:2775  contract transaction{... */\n  dataSize(sub_0)\n  dup1\n  dataOffset(sub_0)\n  0x00\n  codecopy\n  0x00\n  return\nstop\n\nsub_0: assembly {\n        /* \"Transaction.sol\":33:2775  contract transaction{... */\n      mstore(0x40, 0x80)\n      callvalue\n      dup1\n      iszero\n      tag_1\n      jumpi\n      0x00\n      dup1\n      revert\n    tag_1:\n      pop\n      jumpi(tag_2, lt(calldatasize, 0x04))\n      shr(0xe0, calldataload(0x00))\n      dup1\n      0x70480275\n      gt\n      tag_16\n      jumpi\n      dup1\n      0x865ce8e3\n      gt\n      tag_17\n      jumpi\n      dup1\n      0x865ce8e3\n      eq\n      tag_12\n      jumpi\n      dup1\n      0xab1c5f4a\n      eq\n      tag_13\n      jumpi\n      dup1\n      0xadfb4d07\n      eq\n      tag_14\n      jumpi\n      dup1\n      0xfc2d68f0\n      eq\n      tag_15\n      jumpi\n      jump(tag_2)\n    tag_17:\n      dup1\n      0x70480275\n      eq\n      tag_9\n      jumpi\n      dup1\n      0x75061fd9\n      eq\n      tag_10\n      jumpi\n      dup1\n      0x7e2b3e08\n      eq\n      tag_11\n      jumpi\n      jump(tag_2)\n    tag_16:\n      dup1\n      0x061a507a\n      eq\n      tag_3\n      jumpi\n      dup1\n      0x2164bd61\n      eq\n      tag_4\n      jumpi\n      dup1\n      0x2b4b8c0d\n      eq\n      tag_5\n      jumpi\n      dup1\n      0x2d7784d6\n      eq\n      tag_6\n      jumpi\n      dup1\n      0x2ef704f2\n      eq\n      tag_7\n      jumpi\n      dup1\n      0x63a846f8\n      eq\n      tag_8\n      jumpi\n    tag_2:\n      0x00\n      dup1\n      revert\n        /* \"Transaction.sol\":201:250  mapping(address => bool) public secondHandCarSale */\n    tag_3:\n      tag_18\n      0x04\n      dup1\n      calldatasize\n      sub\n      dup2\n      add\n      swap1\n      tag_19\n      swap2\n      swap1\n      tag_20\n      jump\t// in\n    tag_19:\n      tag_21\n      jump\t// in\n    tag_18:\n      mload(0x40)\n      tag_22\n      swap2\n      swap1\n      tag_23\n      jump\t// in\n    tag_22:\n      mload(0x40)\n      dup1\n      swap2\n      sub\n      swap1\n      return\n        /* \"Transaction.sol\":1823:2227  function maintenance(string memory Vin, string memory Date, string memory Location, string memory Details) public restrictedToCarMaintenance {... */\n    tag_4:\n      tag_24\n      0x04\n      dup1\n      calldatasize\n      sub\n      dup2\n      add\n      swap1\n      tag_25\n      swap2\n      swap1\n      tag_26\n      jump\t// in\n    tag_25:\n      tag_27\n      jump\t// in\n    tag_24:\n      stop\n        /* \"Transaction.sol\":1303:1417  function addSecondHandCarSale(address Address) public restricted{... */\n    tag_5:\n      tag_28\n      0x04\n      dup1\n      calldatasize\n      sub\n      dup2\n      add\n      swap1\n      tag_29\n      swap2\n      swap1\n      tag_20\n      jump\t// in\n    tag_29:\n      tag_30\n      jump\t// in\n    tag_28:\n      stop\n        /* \"Transaction.sol\":1189:1297  function addCarMaintenance(address Address) public restricted{... */\n    tag_6:\n      tag_31\n      0x04\n      dup1\n      calldatasize\n      sub\n      dup2\n      add\n      swap1\n      tag_32\n      swap2\n      swap1\n      tag_20\n      jump\t// in\n    tag_32:\n      tag_33\n      jump\t// in\n    tag_31:\n      stop\n        /* \"Transaction.sol\":2233:2639  function changeOwner(string memory Vin, string memory Date, string memory Location, string memory Details) public restrictedToSecondHandCarSale{... */\n    tag_7:\n      tag_34\n      0x04\n      dup1\n      calldatasize\n      sub\n      dup2\n      add\n      swap1\n      tag_35\n      swap2\n      swap1\n      tag_26\n      jump\t// in\n    tag_35:\n      tag_36\n      jump\t// in\n    tag_34:\n      stop\n        /* \"Transaction.sol\":59:96  mapping(address => bool) public admin */\n    tag_8:\n      tag_37\n      0x04\n      dup1\n      calldatasize\n      sub\n      dup2\n      add\n      swap1\n      tag_38\n      swap2\n      swap1\n      tag_20\n      jump\t// in\n    tag_38:\n      tag_39\n      jump\t// in\n    tag_37:\n      mload(0x40)\n      tag_40\n      swap2\n      swap1\n      tag_23\n      jump\t// in\n    tag_40:\n      mload(0x40)\n      dup1\n      swap2\n      sub\n      swap1\n      return\n        /* \"Transaction.sol\":989:1079  function addAdmin(address Address) public restricted{... */\n    tag_9:\n      tag_41\n      0x04\n      dup1\n      calldatasize\n      sub\n      dup2\n      add\n      swap1\n      tag_42\n      swap2\n      swap1\n      tag_20\n      jump\t// in\n    tag_42:\n      tag_43\n      jump\t// in\n    tag_41:\n      stop\n        /* \"Transaction.sol\":149:195  mapping(address => bool) public carMaintenance */\n    tag_10:\n      tag_44\n      0x04\n      dup1\n      calldatasize\n      sub\n      dup2\n      add\n      swap1\n      tag_45\n      swap2\n      swap1\n      tag_20\n      jump\t// in\n    tag_45:\n      tag_46\n      jump\t// in\n    tag_44:\n      mload(0x40)\n      tag_47\n      swap2\n      swap1\n      tag_23\n      jump\t// in\n    tag_47:\n      mload(0x40)\n      dup1\n      swap2\n      sub\n      swap1\n      return\n        /* \"Transaction.sol\":385:443  mapping (string => transactionDetails[]) public carHistory */\n    tag_11:\n      tag_48\n      0x04\n      dup1\n      calldatasize\n      sub\n      dup2\n      add\n      swap1\n      tag_49\n      swap2\n      swap1\n      tag_50\n      jump\t// in\n    tag_49:\n      tag_51\n      jump\t// in\n    tag_48:\n      mload(0x40)\n      tag_52\n      swap5\n      swap4\n      swap3\n      swap2\n      swap1\n      tag_53\n      jump\t// in\n    tag_52:\n      mload(0x40)\n      dup1\n      swap2\n      sub\n      swap1\n      return\n        /* \"Transaction.sol\":102:143  mapping(address => bool) public carDealer */\n    tag_12:\n      tag_54\n      0x04\n      dup1\n      calldatasize\n      sub\n      dup2\n      add\n      swap1\n      tag_55\n      swap2\n      swap1\n      tag_20\n      jump\t// in\n    tag_55:\n      tag_56\n      jump\t// in\n    tag_54:\n      mload(0x40)\n      tag_57\n      swap2\n      swap1\n      tag_23\n      jump\t// in\n    tag_57:\n      mload(0x40)\n      dup1\n      swap2\n      sub\n      swap1\n      return\n        /* \"Transaction.sol\":1085:1183  function addCarDealer(address Address) public restricted{... */\n    tag_13:\n      tag_58\n      0x04\n      dup1\n      calldatasize\n      sub\n      dup2\n      add\n      swap1\n      tag_59\n      swap2\n      swap1\n      tag_20\n      jump\t// in\n    tag_59:\n      tag_60\n      jump\t// in\n    tag_58:\n      stop\n        /* \"Transaction.sol\":1423:1817  function newCar(string memory Vin, string memory Date, string memory Location, string memory Details) public restrictedToCarDealer {... */\n    tag_14:\n      tag_61\n      0x04\n      dup1\n      calldatasize\n      sub\n      dup2\n      add\n      swap1\n      tag_62\n      swap2\n      swap1\n      tag_26\n      jump\t// in\n    tag_62:\n      tag_63\n      jump\t// in\n    tag_61:\n      stop\n        /* \"Transaction.sol\":2645:2772  function displayAll(string memory Vin) public view returns (transactionDetails[] memory){... */\n    tag_15:\n      tag_64\n      0x04\n      dup1\n      calldatasize\n      sub\n      dup2\n      add\n      swap1\n      tag_65\n      swap2\n      swap1\n      tag_66\n      jump\t// in\n    tag_65:\n      tag_67\n      jump\t// in\n    tag_64:\n      mload(0x40)\n      tag_68\n      swap2\n      swap1\n      tag_69\n      jump\t// in\n    tag_68:\n      mload(0x40)\n      dup1\n      swap2\n      sub\n      swap1\n      return\n        /* \"Transaction.sol\":201:250  mapping(address => bool) public secondHandCarSale */\n    tag_21:\n      mstore(0x20, 0x03)\n      dup1\n      0x00\n      mstore\n      keccak256(0x00, 0x40)\n      0x00\n      swap2\n      pop\n      sload\n      swap1\n      0x0100\n      exp\n      swap1\n      div\n      0xff\n      and\n      dup2\n      jump\t// out\n        /* \"Transaction.sol\":1823:2227  function maintenance(string memory Vin, string memory Date, string memory Location, string memory Details) public restrictedToCarMaintenance {... */\n    tag_27:\n        /* \"Transaction.sol\":840:844  true */\n      0x01\n        /* \"Transaction.sol\":810:844  carMaintenance[msg.sender] == true */\n      iszero\n      iszero\n        /* \"Transaction.sol\":810:824  carMaintenance */\n      0x02\n        /* \"Transaction.sol\":810:836  carMaintenance[msg.sender] */\n      0x00\n        /* \"Transaction.sol\":825:835  msg.sender */\n      caller\n        /* \"Transaction.sol\":810:836  carMaintenance[msg.sender] */\n      0xffffffffffffffffffffffffffffffffffffffff\n      and\n      0xffffffffffffffffffffffffffffffffffffffff\n      and\n      dup2\n      mstore\n      0x20\n      add\n      swap1\n      dup2\n      mstore\n      0x20\n      add\n      0x00\n      keccak256\n      0x00\n      swap1\n      sload\n      swap1\n      0x0100\n      exp\n      swap1\n      div\n      0xff\n      and\n        /* \"Transaction.sol\":810:844  carMaintenance[msg.sender] == true */\n      iszero\n      iszero\n      eq\n        /* \"Transaction.sol\":802:845  require(carMaintenance[msg.sender] == true) */\n      tag_71\n      jumpi\n      0x00\n      dup1\n      revert\n    tag_71:\n        /* \"Transaction.sol\":1974:2002  transactionDetails memory BD */\n      0x00\n        /* \"Transaction.sol\":2005:2143  transactionDetails({... */\n      mload(0x40)\n      dup1\n      0x80\n      add\n      0x40\n      mstore\n      dup1\n        /* \"Transaction.sol\":2043:2046  Vin */\n      dup7\n        /* \"Transaction.sol\":2005:2143  transactionDetails({... */\n      dup2\n      mstore\n      0x20\n      add\n        /* \"Transaction.sol\":2066:2070  Date */\n      dup6\n        /* \"Transaction.sol\":2005:2143  transactionDetails({... */\n      dup2\n      mstore\n      0x20\n      add\n        /* \"Transaction.sol\":2094:2102  Location */\n      dup5\n        /* \"Transaction.sol\":2005:2143  transactionDetails({... */\n      dup2\n      mstore\n      0x20\n      add\n        /* \"Transaction.sol\":2125:2132  Details */\n      dup4\n        /* \"Transaction.sol\":2005:2143  transactionDetails({... */\n      dup2\n      mstore\n      pop\n        /* \"Transaction.sol\":1974:2143  transactionDetails memory BD = transactionDetails({... */\n      swap1\n      pop\n        /* \"Transaction.sol\":2153:2168  allTransactions */\n      0x05\n        /* \"Transaction.sol\":2174:2176  BD */\n      dup2\n        /* \"Transaction.sol\":2153:2177  allTransactions.push(BD) */\n      swap1\n      dup1\n      0x01\n      dup2\n      sload\n      add\n      dup1\n      dup3\n      sstore\n      dup1\n      swap2\n      pop\n      pop\n      0x01\n      swap1\n      sub\n      swap1\n      0x00\n      mstore\n      keccak256(0x00, 0x20)\n      swap1\n      0x04\n      mul\n      add\n      0x00\n      swap1\n      swap2\n      swap1\n      swap2\n      swap1\n      swap2\n      pop\n      0x00\n      dup3\n      add\n      mload\n      dup2\n      0x00\n      add\n      swap1\n      dup1\n      mload\n      swap1\n      0x20\n      add\n      swap1\n      tag_74\n      swap3\n      swap2\n      swap1\n      tag_75\n      jump\t// in\n    tag_74:\n      pop\n      0x20\n      dup3\n      add\n      mload\n      dup2\n      0x01\n      add\n      swap1\n      dup1\n      mload\n      swap1\n      0x20\n      add\n      swap1\n      tag_76\n      swap3\n      swap2\n      swap1\n      tag_75\n      jump\t// in\n    tag_76:\n      pop\n      0x40\n      dup3\n      add\n      mload\n      dup2\n      0x02\n      add\n      swap1\n      dup1\n      mload\n      swap1\n      0x20\n      add\n      swap1\n      tag_77\n      swap3\n      swap2\n      swap1\n      tag_75\n      jump\t// in\n    tag_77:\n      pop\n      0x60\n      dup3\n      add\n      mload\n      dup2\n      0x03\n      add\n      swap1\n      dup1\n      mload\n      swap1\n      0x20\n      add\n      swap1\n      tag_78\n      swap3\n      swap2\n      swap1\n      tag_75\n      jump\t// in\n    tag_78:\n      pop\n      pop\n      pop\n        /* \"Transaction.sol\":2205:2220  allTransactions */\n      0x05\n        /* \"Transaction.sol\":2187:2197  carHistory */\n      0x04\n        /* \"Transaction.sol\":2198:2201  Vin */\n      dup7\n        /* \"Transaction.sol\":2187:2202  carHistory[Vin] */\n      mload(0x40)\n      tag_79\n      swap2\n      swap1\n      tag_80\n      jump\t// in\n    tag_79:\n      swap1\n      dup2\n      mstore\n      0x20\n      add\n      mload(0x40)\n      dup1\n      swap2\n      sub\n      swap1\n      keccak256\n        /* \"Transaction.sol\":2187:2220  carHistory[Vin] = allTransactions */\n      swap1\n      dup1\n      sload\n      tag_81\n      swap3\n      swap2\n      swap1\n      tag_82\n      jump\t// in\n    tag_81:\n      pop\n        /* \"Transaction.sol\":1964:2227  {... */\n      pop\n        /* \"Transaction.sol\":1823:2227  function maintenance(string memory Vin, string memory Date, string memory Location, string memory Details) public restrictedToCarMaintenance {... */\n      pop\n      pop\n      pop\n      pop\n      jump\t// out\n        /* \"Transaction.sol\":1303:1417  function addSecondHandCarSale(address Address) public restricted{... */\n    tag_30:\n        /* \"Transaction.sol\":622:626  true */\n      0x01\n        /* \"Transaction.sol\":601:626  admin[msg.sender] == true */\n      iszero\n      iszero\n        /* \"Transaction.sol\":601:606  admin */\n      0x00\n        /* \"Transaction.sol\":601:618  admin[msg.sender] */\n      dup1\n        /* \"Transaction.sol\":607:617  msg.sender */\n      caller\n        /* \"Transaction.sol\":601:618  admin[msg.sender] */\n      0xffffffffffffffffffffffffffffffffffffffff\n      and\n      0xffffffffffffffffffffffffffffffffffffffff\n      and\n      dup2\n      mstore\n      0x20\n      add\n      swap1\n      dup2\n      mstore\n      0x20\n      add\n      0x00\n      keccak256\n      0x00\n      swap1\n      sload\n      swap1\n      0x0100\n      exp\n      swap1\n      div\n      0xff\n      and\n        /* \"Transaction.sol\":601:626  admin[msg.sender] == true */\n      iszero\n      iszero\n      eq\n        /* \"Transaction.sol\":593:627  require(admin[msg.sender] == true) */\n      tag_84\n      jumpi\n      0x00\n      dup1\n      revert\n    tag_84:\n        /* \"Transaction.sol\":1406:1410  true */\n      0x01\n        /* \"Transaction.sol\":1377:1394  secondHandCarSale */\n      0x03\n        /* \"Transaction.sol\":1377:1403  secondHandCarSale[Address] */\n      0x00\n        /* \"Transaction.sol\":1395:1402  Address */\n      dup4\n        /* \"Transaction.sol\":1377:1403  secondHandCarSale[Address] */\n      0xffffffffffffffffffffffffffffffffffffffff\n      and\n      0xffffffffffffffffffffffffffffffffffffffff\n      and\n      dup2\n      mstore\n      0x20\n      add\n      swap1\n      dup2\n      mstore\n      0x20\n      add\n      0x00\n      keccak256\n      0x00\n        /* \"Transaction.sol\":1377:1410  secondHandCarSale[Address] = true */\n      0x0100\n      exp\n      dup2\n      sload\n      dup2\n      0xff\n      mul\n      not\n      and\n      swap1\n      dup4\n      iszero\n      iszero\n      mul\n      or\n      swap1\n      sstore\n      pop\n        /* \"Transaction.sol\":1303:1417  function addSecondHandCarSale(address Address) public restricted{... */\n      pop\n      jump\t// out\n        /* \"Transaction.sol\":1189:1297  function addCarMaintenance(address Address) public restricted{... */\n    tag_33:\n        /* \"Transaction.sol\":622:626  true */\n      0x01\n        /* \"Transaction.sol\":601:626  admin[msg.sender] == true */\n      iszero\n      iszero\n        /* \"Transaction.sol\":601:606  admin */\n      0x00\n        /* \"Transaction.sol\":601:618  admin[msg.sender] */\n      dup1\n        /* \"Transaction.sol\":607:617  msg.sender */\n      caller\n        /* \"Transaction.sol\":601:618  admin[msg.sender] */\n      0xffffffffffffffffffffffffffffffffffffffff\n      and\n      0xffffffffffffffffffffffffffffffffffffffff\n      and\n      dup2\n      mstore\n      0x20\n      add\n      swap1\n      dup2\n      mstore\n      0x20\n      add\n      0x00\n      keccak256\n      0x00\n      swap1\n      sload\n      swap1\n      0x0100\n      exp\n      swap1\n      div\n      0xff\n      and\n        /* \"Transaction.sol\":601:626  admin[msg.sender] == true */\n      iszero\n      iszero\n      eq\n        /* \"Transaction.sol\":593:627  require(admin[msg.sender] == true) */\n      tag_87\n      jumpi\n      0x00\n      dup1\n      revert\n    tag_87:\n        /* \"Transaction.sol\":1286:1290  true */\n      0x01\n        /* \"Transaction.sol\":1260:1274  carMaintenance */\n      0x02\n        /* \"Transaction.sol\":1260:1283  carMaintenance[Address] */\n      0x00\n        /* \"Transaction.sol\":1275:1282  Address */\n      dup4\n        /* \"Transaction.sol\":1260:1283  carMaintenance[Address] */\n      0xffffffffffffffffffffffffffffffffffffffff\n      and\n      0xffffffffffffffffffffffffffffffffffffffff\n      and\n      dup2\n      mstore\n      0x20\n      add\n      swap1\n      dup2\n      mstore\n      0x20\n      add\n      0x00\n      keccak256\n      0x00\n        /* \"Transaction.sol\":1260:1290  carMaintenance[Address] = true */\n      0x0100\n      exp\n      dup2\n      sload\n      dup2\n      0xff\n      mul\n      not\n      and\n      swap1\n      dup4\n      iszero\n      iszero\n      mul\n      or\n      swap1\n      sstore\n      pop\n        /* \"Transaction.sol\":1189:1297  function addCarMaintenance(address Address) public restricted{... */\n      pop\n      jump\t// out\n        /* \"Transaction.sol\":2233:2639  function changeOwner(string memory Vin, string memory Date, string memory Location, string memory Details) public restrictedToSecondHandCarSale{... */\n    tag_36:\n        /* \"Transaction.sol\":960:964  true */\n      0x01\n        /* \"Transaction.sol\":927:964  secondHandCarSale[msg.sender] == true */\n      iszero\n      iszero\n        /* \"Transaction.sol\":927:944  secondHandCarSale */\n      0x03\n        /* \"Transaction.sol\":927:956  secondHandCarSale[msg.sender] */\n      0x00\n        /* \"Transaction.sol\":945:955  msg.sender */\n      caller\n        /* \"Transaction.sol\":927:956  secondHandCarSale[msg.sender] */\n      0xffffffffffffffffffffffffffffffffffffffff\n      and\n      0xffffffffffffffffffffffffffffffffffffffff\n      and\n      dup2\n      mstore\n      0x20\n      add\n      swap1\n      dup2\n      mstore\n      0x20\n      add\n      0x00\n      keccak256\n      0x00\n      swap1\n      sload\n      swap1\n      0x0100\n      exp\n      swap1\n      div\n      0xff\n      and\n        /* \"Transaction.sol\":927:964  secondHandCarSale[msg.sender] == true */\n      iszero\n      iszero\n      eq\n        /* \"Transaction.sol\":919:965  require(secondHandCarSale[msg.sender] == true) */\n      tag_90\n      jumpi\n      0x00\n      dup1\n      revert\n    tag_90:\n        /* \"Transaction.sol\":2386:2414  transactionDetails memory BD */\n      0x00\n        /* \"Transaction.sol\":2417:2555  transactionDetails({... */\n      mload(0x40)\n      dup1\n      0x80\n      add\n      0x40\n      mstore\n      dup1\n        /* \"Transaction.sol\":2455:2458  Vin */\n      dup7\n        /* \"Transaction.sol\":2417:2555  transactionDetails({... */\n      dup2\n      mstore\n      0x20\n      add\n        /* \"Transaction.sol\":2478:2482  Date */\n      dup6\n        /* \"Transaction.sol\":2417:2555  transactionDetails({... */\n      dup2\n      mstore\n      0x20\n      add\n        /* \"Transaction.sol\":2506:2514  Location */\n      dup5\n        /* \"Transaction.sol\":2417:2555  transactionDetails({... */\n      dup2\n      mstore\n      0x20\n      add\n        /* \"Transaction.sol\":2537:2544  Details */\n      dup4\n        /* \"Transaction.sol\":2417:2555  transactionDetails({... */\n      dup2\n      mstore\n      pop\n        /* \"Transaction.sol\":2386:2555  transactionDetails memory BD = transactionDetails({... */\n      swap1\n      pop\n        /* \"Transaction.sol\":2565:2580  allTransactions */\n      0x05\n        /* \"Transaction.sol\":2586:2588  BD */\n      dup2\n        /* \"Transaction.sol\":2565:2589  allTransactions.push(BD) */\n      swap1\n      dup1\n      0x01\n      dup2\n      sload\n      add\n      dup1\n      dup3\n      sstore\n      dup1\n      swap2\n      pop\n      pop\n      0x01\n      swap1\n      sub\n      swap1\n      0x00\n      mstore\n      keccak256(0x00, 0x20)\n      swap1\n      0x04\n      mul\n      add\n      0x00\n      swap1\n      swap2\n      swap1\n      swap2\n      swap1\n      swap2\n      pop\n      0x00\n      dup3\n      add\n      mload\n      dup2\n      0x00\n      add\n      swap1\n      dup1\n      mload\n      swap1\n      0x20\n      add\n      swap1\n      tag_93\n      swap3\n      swap2\n      swap1\n      tag_75\n      jump\t// in\n    tag_93:\n      pop\n      0x20\n      dup3\n      add\n      mload\n      dup2\n      0x01\n      add\n      swap1\n      dup1\n      mload\n      swap1\n      0x20\n      add\n      swap1\n      tag_94\n      swap3\n      swap2\n      swap1\n      tag_75\n      jump\t// in\n    tag_94:\n      pop\n      0x40\n      dup3\n      add\n      mload\n      dup2\n      0x02\n      add\n      swap1\n      dup1\n      mload\n      swap1\n      0x20\n      add\n      swap1\n      tag_95\n      swap3\n      swap2\n      swap1\n      tag_75\n      jump\t// in\n    tag_95:\n      pop\n      0x60\n      dup3\n      add\n      mload\n      dup2\n      0x03\n      add\n      swap1\n      dup1\n      mload\n      swap1\n      0x20\n      add\n      swap1\n      tag_96\n      swap3\n      swap2\n      swap1\n      tag_75\n      jump\t// in\n    tag_96:\n      pop\n      pop\n      pop\n        /* \"Transaction.sol\":2617:2632  allTransactions */\n      0x05\n        /* \"Transaction.sol\":2599:2609  carHistory */\n      0x04\n        /* \"Transaction.sol\":2610:2613  Vin */\n      dup7\n        /* \"Transaction.sol\":2599:2614  carHistory[Vin] */\n      mload(0x40)\n      tag_97\n      swap2\n      swap1\n      tag_80\n      jump\t// in\n    tag_97:\n      swap1\n      dup2\n      mstore\n      0x20\n      add\n      mload(0x40)\n      dup1\n      swap2\n      sub\n      swap1\n      keccak256\n        /* \"Transaction.sol\":2599:2632  carHistory[Vin] = allTransactions */\n      swap1\n      dup1\n      sload\n      tag_98\n      swap3\n      swap2\n      swap1\n      tag_82\n      jump\t// in\n    tag_98:\n      pop\n        /* \"Transaction.sol\":2376:2639  {... */\n      pop\n        /* \"Transaction.sol\":2233:2639  function changeOwner(string memory Vin, string memory Date, string memory Location, string memory Details) public restrictedToSecondHandCarSale{... */\n      pop\n      pop\n      pop\n      pop\n      jump\t// out\n        /* \"Transaction.sol\":59:96  mapping(address => bool) public admin */\n    tag_39:\n      mstore(0x20, 0x00)\n      dup1\n      0x00\n      mstore\n      keccak256(0x00, 0x40)\n      0x00\n      swap2\n      pop\n      sload\n      swap1\n      0x0100\n      exp\n      swap1\n      div\n      0xff\n      and\n      dup2\n      jump\t// out\n        /* \"Transaction.sol\":989:1079  function addAdmin(address Address) public restricted{... */\n    tag_43:\n        /* \"Transaction.sol\":622:626  true */\n      0x01\n        /* \"Transaction.sol\":601:626  admin[msg.sender] == true */\n      iszero\n      iszero\n        /* \"Transaction.sol\":601:606  admin */\n      0x00\n        /* \"Transaction.sol\":601:618  admin[msg.sender] */\n      dup1\n        /* \"Transaction.sol\":607:617  msg.sender */\n      caller\n        /* \"Transaction.sol\":601:618  admin[msg.sender] */\n      0xffffffffffffffffffffffffffffffffffffffff\n      and\n      0xffffffffffffffffffffffffffffffffffffffff\n      and\n      dup2\n      mstore\n      0x20\n      add\n      swap1\n      dup2\n      mstore\n      0x20\n      add\n      0x00\n      keccak256\n      0x00\n      swap1\n      sload\n      swap1\n      0x0100\n      exp\n      swap1\n      div\n      0xff\n      and\n        /* \"Transaction.sol\":601:626  admin[msg.sender] == true */\n      iszero\n      iszero\n      eq\n        /* \"Transaction.sol\":593:627  require(admin[msg.sender] == true) */\n      tag_100\n      jumpi\n      0x00\n      dup1\n      revert\n    tag_100:\n        /* \"Transaction.sol\":1068:1072  true */\n      0x01\n        /* \"Transaction.sol\":1051:1056  admin */\n      0x00\n        /* \"Transaction.sol\":1051:1065  admin[Address] */\n      dup1\n        /* \"Transaction.sol\":1057:1064  Address */\n      dup4\n        /* \"Transaction.sol\":1051:1065  admin[Address] */\n      0xffffffffffffffffffffffffffffffffffffffff\n      and\n      0xffffffffffffffffffffffffffffffffffffffff\n      and\n      dup2\n      mstore\n      0x20\n      add\n      swap1\n      dup2\n      mstore\n      0x20\n      add\n      0x00\n      keccak256\n      0x00\n        /* \"Transaction.sol\":1051:1072  admin[Address] = true */\n      0x0100\n      exp\n      dup2\n      sload\n      dup2\n      0xff\n      mul\n      not\n      and\n      swap1\n      dup4\n      iszero\n      iszero\n      mul\n      or\n      swap1\n      sstore\n      pop\n        /* \"Transaction.sol\":989:1079  function addAdmin(address Address) public restricted{... */\n      pop\n      jump\t// out\n        /* \"Transaction.sol\":149:195  mapping(address => bool) public carMaintenance */\n    tag_46:\n      mstore(0x20, 0x02)\n      dup1\n      0x00\n      mstore\n      keccak256(0x00, 0x40)\n      0x00\n      swap2\n      pop\n      sload\n      swap1\n      0x0100\n      exp\n      swap1\n      div\n      0xff\n      and\n      dup2\n      jump\t// out\n        /* \"Transaction.sol\":385:443  mapping (string => transactionDetails[]) public carHistory */\n    tag_51:\n      0x04\n      dup3\n      dup1\n      mload\n      0x20\n      dup2\n      add\n      dup3\n      add\n      dup1\n      mload\n      dup5\n      dup3\n      mstore\n      0x20\n      dup4\n      add\n      0x20\n      dup6\n      add\n      keccak256\n      dup2\n      dup4\n      mstore\n      dup1\n      swap6\n      pop\n      pop\n      pop\n      pop\n      pop\n      pop\n      dup2\n      dup2\n      sload\n      dup2\n      lt\n      tag_102\n      jumpi\n      0x00\n      dup1\n      revert\n    tag_102:\n      swap1\n      0x00\n      mstore\n      keccak256(0x00, 0x20)\n      swap1\n      0x04\n      mul\n      add\n      0x00\n      swap2\n      pop\n      swap2\n      pop\n      pop\n      dup1\n      0x00\n      add\n      dup1\n      sload\n      tag_104\n      swap1\n      tag_105\n      jump\t// in\n    tag_104:\n      dup1\n      0x1f\n      add\n      0x20\n      dup1\n      swap2\n      div\n      mul\n      0x20\n      add\n      mload(0x40)\n      swap1\n      dup2\n      add\n      0x40\n      mstore\n      dup1\n      swap3\n      swap2\n      swap1\n      dup2\n      dup2\n      mstore\n      0x20\n      add\n      dup3\n      dup1\n      sload\n      tag_106\n      swap1\n      tag_105\n      jump\t// in\n    tag_106:\n      dup1\n      iszero\n      tag_107\n      jumpi\n      dup1\n      0x1f\n      lt\n      tag_108\n      jumpi\n      0x0100\n      dup1\n      dup4\n      sload\n      div\n      mul\n      dup4\n      mstore\n      swap2\n      0x20\n      add\n      swap2\n      jump(tag_107)\n    tag_108:\n      dup3\n      add\n      swap2\n      swap1\n      0x00\n      mstore\n      keccak256(0x00, 0x20)\n      swap1\n    tag_109:\n      dup2\n      sload\n      dup2\n      mstore\n      swap1\n      0x01\n      add\n      swap1\n      0x20\n      add\n      dup1\n      dup4\n      gt\n      tag_109\n      jumpi\n      dup3\n      swap1\n      sub\n      0x1f\n      and\n      dup3\n      add\n      swap2\n    tag_107:\n      pop\n      pop\n      pop\n      pop\n      pop\n      swap1\n      dup1\n      0x01\n      add\n      dup1\n      sload\n      tag_110\n      swap1\n      tag_105\n      jump\t// in\n    tag_110:\n      dup1\n      0x1f\n      add\n      0x20\n      dup1\n      swap2\n      div\n      mul\n      0x20\n      add\n      mload(0x40)\n      swap1\n      dup2\n      add\n      0x40\n      mstore\n      dup1\n      swap3\n      swap2\n      swap1\n      dup2\n      dup2\n      mstore\n      0x20\n      add\n      dup3\n      dup1\n      sload\n      tag_111\n      swap1\n      tag_105\n      jump\t// in\n    tag_111:\n      dup1\n      iszero\n      tag_112\n      jumpi\n      dup1\n      0x1f\n      lt\n      tag_113\n      jumpi\n      0x0100\n      dup1\n      dup4\n      sload\n      div\n      mul\n      dup4\n      mstore\n      swap2\n      0x20\n      add\n      swap2\n      jump(tag_112)\n    tag_113:\n      dup3\n      add\n      swap2\n      swap1\n      0x00\n      mstore\n      keccak256(0x00, 0x20)\n      swap1\n    tag_114:\n      dup2\n      sload\n      dup2\n      mstore\n      swap1\n      0x01\n      add\n      swap1\n      0x20\n      add\n      dup1\n      dup4\n      gt\n      tag_114\n      jumpi\n      dup3\n      swap1\n      sub\n      0x1f\n      and\n      dup3\n      add\n      swap2\n    tag_112:\n      pop\n      pop\n      pop\n      pop\n      pop\n      swap1\n      dup1\n      0x02\n      add\n      dup1\n      sload\n      tag_115\n      swap1\n      tag_105\n      jump\t// in\n    tag_115:\n      dup1\n      0x1f\n      add\n      0x20\n      dup1\n      swap2\n      div\n      mul\n      0x20\n      add\n      mload(0x40)\n      swap1\n      dup2\n      add\n      0x40\n      mstore\n      dup1\n      swap3\n      swap2\n      swap1\n      dup2\n      dup2\n      mstore\n      0x20\n      add\n      dup3\n      dup1\n      sload\n      tag_116\n      swap1\n      tag_105\n      jump\t// in\n    tag_116:\n      dup1\n      iszero\n      tag_117\n      jumpi\n      dup1\n      0x1f\n      lt\n      tag_118\n      jumpi\n      0x0100\n      dup1\n      dup4\n      sload\n      div\n      mul\n      dup4\n      mstore\n      swap2\n      0x20\n      add\n      swap2\n      jump(tag_117)\n    tag_118:\n      dup3\n      add\n      swap2\n      swap1\n      0x00\n      mstore\n      keccak256(0x00, 0x20)\n      swap1\n    tag_119:\n      dup2\n      sload\n      dup2\n      mstore\n      swap1\n      0x01\n      add\n      swap1\n      0x20\n      add\n      dup1\n      dup4\n      gt\n      tag_119\n      jumpi\n      dup3\n      swap1\n      sub\n      0x1f\n      and\n      dup3\n      add\n      swap2\n    tag_117:\n      pop\n      pop\n      pop\n      pop\n      pop\n      swap1\n      dup1\n      0x03\n      add\n      dup1\n      sload\n      tag_120\n      swap1\n      tag_105\n      jump\t// in\n    tag_120:\n      dup1\n      0x1f\n      add\n      0x20\n      dup1\n      swap2\n      div\n      mul\n      0x20\n      add\n      mload(0x40)\n      swap1\n      dup2\n      add\n      0x40\n      mstore\n      dup1\n      swap3\n      swap2\n      swap1\n      dup2\n      dup2\n      mstore\n      0x20\n      add\n      dup3\n      dup1\n      sload\n      tag_121\n      swap1\n      tag_105\n      jump\t// in\n    tag_121:\n      dup1\n      iszero\n      tag_122\n      jumpi\n      dup1\n      0x1f\n      lt\n      tag_123\n      jumpi\n      0x0100\n      dup1\n      dup4\n      sload\n      div\n      mul\n      dup4\n      mstore\n      swap2\n      0x20\n      add\n      swap2\n      jump(tag_122)\n    tag_123:\n      dup3\n      add\n      swap2\n      swap1\n      0x00\n      mstore\n      keccak256(0x00, 0x20)\n      swap1\n    tag_124:\n      dup2\n      sload\n      dup2\n      mstore\n      swap1\n      0x01\n      add\n      swap1\n      0x20\n      add\n      dup1\n      dup4\n      gt\n      tag_124\n      jumpi\n      dup3\n      swap1\n      sub\n      0x1f\n      and\n      dup3\n      add\n      swap2\n    tag_122:\n      pop\n      pop\n      pop\n      pop\n      pop\n      swap1\n      pop\n      dup5\n      jump\t// out\n        /* \"Transaction.sol\":102:143  mapping(address => bool) public carDealer */\n    tag_56:\n      mstore(0x20, 0x01)\n      dup1\n      0x00\n      mstore\n      keccak256(0x00, 0x40)\n      0x00\n      swap2\n      pop\n      sload\n      swap1\n      0x0100\n      exp\n      swap1\n      div\n      0xff\n      and\n      dup2\n      jump\t// out\n        /* \"Transaction.sol\":1085:1183  function addCarDealer(address Address) public restricted{... */\n    tag_60:\n        /* \"Transaction.sol\":622:626  true */\n      0x01\n        /* \"Transaction.sol\":601:626  admin[msg.sender] == true */\n      iszero\n      iszero\n        /* \"Transaction.sol\":601:606  admin */\n      0x00\n        /* \"Transaction.sol\":601:618  admin[msg.sender] */\n      dup1\n        /* \"Transaction.sol\":607:617  msg.sender */\n      caller\n        /* \"Transaction.sol\":601:618  admin[msg.sender] */\n      0xffffffffffffffffffffffffffffffffffffffff\n      and\n      0xffffffffffffffffffffffffffffffffffffffff\n      and\n      dup2\n      mstore\n      0x20\n      add\n      swap1\n      dup2\n      mstore\n      0x20\n      add\n      0x00\n      keccak256\n      0x00\n      swap1\n      sload\n      swap1\n      0x0100\n      exp\n      swap1\n      div\n      0xff\n      and\n        /* \"Transaction.sol\":601:626  admin[msg.sender] == true */\n      iszero\n      iszero\n      eq\n        /* \"Transaction.sol\":593:627  require(admin[msg.sender] == true) */\n      tag_126\n      jumpi\n      0x00\n      dup1\n      revert\n    tag_126:\n        /* \"Transaction.sol\":1172:1176  true */\n      0x01\n        /* \"Transaction.sol\":1151:1160  carDealer */\n      dup1\n        /* \"Transaction.sol\":1151:1169  carDealer[Address] */\n      0x00\n        /* \"Transaction.sol\":1161:1168  Address */\n      dup4\n        /* \"Transaction.sol\":1151:1169  carDealer[Address] */\n      0xffffffffffffffffffffffffffffffffffffffff\n      and\n      0xffffffffffffffffffffffffffffffffffffffff\n      and\n      dup2\n      mstore\n      0x20\n      add\n      swap1\n      dup2\n      mstore\n      0x20\n      add\n      0x00\n      keccak256\n      0x00\n        /* \"Transaction.sol\":1151:1176  carDealer[Address] = true */\n      0x0100\n      exp\n      dup2\n      sload\n      dup2\n      0xff\n      mul\n      not\n      and\n      swap1\n      dup4\n      iszero\n      iszero\n      mul\n      or\n      swap1\n      sstore\n      pop\n        /* \"Transaction.sol\":1085:1183  function addCarDealer(address Address) public restricted{... */\n      pop\n      jump\t// out\n        /* \"Transaction.sol\":1423:1817  function newCar(string memory Vin, string memory Date, string memory Location, string memory Details) public restrictedToCarDealer {... */\n    tag_63:\n        /* \"Transaction.sol\":726:730  true */\n      0x01\n        /* \"Transaction.sol\":701:730  carDealer[msg.sender] == true */\n      iszero\n      iszero\n        /* \"Transaction.sol\":701:710  carDealer */\n      0x01\n        /* \"Transaction.sol\":701:722  carDealer[msg.sender] */\n      0x00\n        /* \"Transaction.sol\":711:721  msg.sender */\n      caller\n        /* \"Transaction.sol\":701:722  carDealer[msg.sender] */\n      0xffffffffffffffffffffffffffffffffffffffff\n      and\n      0xffffffffffffffffffffffffffffffffffffffff\n      and\n      dup2\n      mstore\n      0x20\n      add\n      swap1\n      dup2\n      mstore\n      0x20\n      add\n      0x00\n      keccak256\n      0x00\n      swap1\n      sload\n      swap1\n      0x0100\n      exp\n      swap1\n      div\n      0xff\n      and\n        /* \"Transaction.sol\":701:730  carDealer[msg.sender] == true */\n      iszero\n      iszero\n      eq\n        /* \"Transaction.sol\":693:731  require(carDealer[msg.sender] == true) */\n      tag_129\n      jumpi\n      0x00\n      dup1\n      revert\n    tag_129:\n        /* \"Transaction.sol\":1564:1592  transactionDetails memory BD */\n      0x00\n        /* \"Transaction.sol\":1595:1733  transactionDetails({... */\n      mload(0x40)\n      dup1\n      0x80\n      add\n      0x40\n      mstore\n      dup1\n        /* \"Transaction.sol\":1633:1636  Vin */\n      dup7\n        /* \"Transaction.sol\":1595:1733  transactionDetails({... */\n      dup2\n      mstore\n      0x20\n      add\n        /* \"Transaction.sol\":1656:1660  Date */\n      dup6\n        /* \"Transaction.sol\":1595:1733  transactionDetails({... */\n      dup2\n      mstore\n      0x20\n      add\n        /* \"Transaction.sol\":1684:1692  Location */\n      dup5\n        /* \"Transaction.sol\":1595:1733  transactionDetails({... */\n      dup2\n      mstore\n      0x20\n      add\n        /* \"Transaction.sol\":1715:1722  Details */\n      dup4\n        /* \"Transaction.sol\":1595:1733  transactionDetails({... */\n      dup2\n      mstore\n      pop\n        /* \"Transaction.sol\":1564:1733  transactionDetails memory BD = transactionDetails({... */\n      swap1\n      pop\n        /* \"Transaction.sol\":1743:1758  allTransactions */\n      0x05\n        /* \"Transaction.sol\":1764:1766  BD */\n      dup2\n        /* \"Transaction.sol\":1743:1767  allTransactions.push(BD) */\n      swap1\n      dup1\n      0x01\n      dup2\n      sload\n      add\n      dup1\n      dup3\n      sstore\n      dup1\n      swap2\n      pop\n      pop\n      0x01\n      swap1\n      sub\n      swap1\n      0x00\n      mstore\n      keccak256(0x00, 0x20)\n      swap1\n      0x04\n      mul\n      add\n      0x00\n      swap1\n      swap2\n      swap1\n      swap2\n      swap1\n      swap2\n      pop\n      0x00\n      dup3\n      add\n      mload\n      dup2\n      0x00\n      add\n      swap1\n      dup1\n      mload\n      swap1\n      0x20\n      add\n      swap1\n      tag_132\n      swap3\n      swap2\n      swap1\n      tag_75\n      jump\t// in\n    tag_132:\n      pop\n      0x20\n      dup3\n      add\n      mload\n      dup2\n      0x01\n      add\n      swap1\n      dup1\n      mload\n      swap1\n      0x20\n      add\n      swap1\n      tag_133\n      swap3\n      swap2\n      swap1\n      tag_75\n      jump\t// in\n    tag_133:\n      pop\n      0x40\n      dup3\n      add\n      mload\n      dup2\n      0x02\n      add\n      swap1\n      dup1\n      mload\n      swap1\n      0x20\n      add\n      swap1\n      tag_134\n      swap3\n      swap2\n      swap1\n      tag_75\n      jump\t// in\n    tag_134:\n      pop\n      0x60\n      dup3\n      add\n      mload\n      dup2\n      0x03\n      add\n      swap1\n      dup1\n      mload\n      swap1\n      0x20\n      add\n      swap1\n      tag_135\n      swap3\n      swap2\n      swap1\n      tag_75\n      jump\t// in\n    tag_135:\n      pop\n      pop\n      pop\n        /* \"Transaction.sol\":1795:1810  allTransactions */\n      0x05\n        /* \"Transaction.sol\":1777:1787  carHistory */\n      0x04\n        /* \"Transaction.sol\":1788:1791  Vin */\n      dup7\n        /* \"Transaction.sol\":1777:1792  carHistory[Vin] */\n      mload(0x40)\n      tag_136\n      swap2\n      swap1\n      tag_80\n      jump\t// in\n    tag_136:\n      swap1\n      dup2\n      mstore\n      0x20\n      add\n      mload(0x40)\n      dup1\n      swap2\n      sub\n      swap1\n      keccak256\n        /* \"Transaction.sol\":1777:1810  carHistory[Vin] = allTransactions */\n      swap1\n      dup1\n      sload\n      tag_137\n      swap3\n      swap2\n      swap1\n      tag_82\n      jump\t// in\n    tag_137:\n      pop\n        /* \"Transaction.sol\":1554:1817  {... */\n      pop\n        /* \"Transaction.sol\":1423:1817  function newCar(string memory Vin, string memory Date, string memory Location, string memory Details) public restrictedToCarDealer {... */\n      pop\n      pop\n      pop\n      pop\n      jump\t// out\n        /* \"Transaction.sol\":2645:2772  function displayAll(string memory Vin) public view returns (transactionDetails[] memory){... */\n    tag_67:\n        /* \"Transaction.sol\":2705:2732  transactionDetails[] memory */\n      0x60\n        /* \"Transaction.sol\":2750:2760  carHistory */\n      0x04\n        /* \"Transaction.sol\":2761:2764  Vin */\n      dup3\n        /* \"Transaction.sol\":2750:2765  carHistory[Vin] */\n      mload(0x40)\n      tag_139\n      swap2\n      swap1\n      tag_80\n      jump\t// in\n    tag_139:\n      swap1\n      dup2\n      mstore\n      0x20\n      add\n      mload(0x40)\n      dup1\n      swap2\n      sub\n      swap1\n      keccak256\n        /* \"Transaction.sol\":2743:2765  return carHistory[Vin] */\n      dup1\n      sload\n      dup1\n      0x20\n      mul\n      0x20\n      add\n      mload(0x40)\n      swap1\n      dup2\n      add\n      0x40\n      mstore\n      dup1\n      swap3\n      swap2\n      swap1\n      dup2\n      dup2\n      mstore\n      0x20\n      add\n      0x00\n      swap1\n    tag_140:\n      dup3\n      dup3\n      lt\n      iszero\n      tag_141\n      jumpi\n      dup4\n      dup3\n      swap1\n      0x00\n      mstore\n      keccak256(0x00, 0x20)\n      swap1\n      0x04\n      mul\n      add\n      mload(0x40)\n      dup1\n      0x80\n      add\n      0x40\n      mstore\n      swap1\n      dup2\n      0x00\n      dup3\n      add\n      dup1\n      sload\n      tag_143\n      swap1\n      tag_105\n      jump\t// in\n    tag_143:\n      dup1\n      0x1f\n      add\n      0x20\n      dup1\n      swap2\n      div\n      mul\n      0x20\n      add\n      mload(0x40)\n      swap1\n      dup2\n      add\n      0x40\n      mstore\n      dup1\n      swap3\n      swap2\n      swap1\n      dup2\n      dup2\n      mstore\n      0x20\n      add\n      dup3\n      dup1\n      sload\n      tag_144\n      swap1\n      tag_105\n      jump\t// in\n    tag_144:\n      dup1\n      iszero\n      tag_145\n      jumpi\n      dup1\n      0x1f\n      lt\n      tag_146\n      jumpi\n      0x0100\n      dup1\n      dup4\n      sload\n      div\n      mul\n      dup4\n      mstore\n      swap2\n      0x20\n      add\n      swap2\n      jump(tag_145)\n    tag_146:\n      dup3\n      add\n      swap2\n      swap1\n      0x00\n      mstore\n      keccak256(0x00, 0x20)\n      swap1\n    tag_147:\n      dup2\n      sload\n      dup2\n      mstore\n      swap1\n      0x01\n      add\n      swap1\n      0x20\n      add\n      dup1\n      dup4\n      gt\n      tag_147\n      jumpi\n      dup3\n      swap1\n      sub\n      0x1f\n      and\n      dup3\n      add\n      swap2\n    tag_145:\n      pop\n      pop\n      pop\n      pop\n      pop\n      dup2\n      mstore\n      0x20\n      add\n      0x01\n      dup3\n      add\n      dup1\n      sload\n      tag_148\n      swap1\n      tag_105\n      jump\t// in\n    tag_148:\n      dup1\n      0x1f\n      add\n      0x20\n      dup1\n      swap2\n      div\n      mul\n      0x20\n      add\n      mload(0x40)\n      swap1\n      dup2\n      add\n      0x40\n      mstore\n      dup1\n      swap3\n      swap2\n      swap1\n      dup2\n      dup2\n      mstore\n      0x20\n      add\n      dup3\n      dup1\n      sload\n      tag_149\n      swap1\n      tag_105\n      jump\t// in\n    tag_149:\n      dup1\n      iszero\n      tag_150\n      jumpi\n      dup1\n      0x1f\n      lt\n      tag_151\n      jumpi\n      0x0100\n      dup1\n      dup4\n      sload\n      div\n      mul\n      dup4\n      mstore\n      swap2\n      0x20\n      add\n      swap2\n      jump(tag_150)\n    tag_151:\n      dup3\n      add\n      swap2\n      swap1\n      0x00\n      mstore\n      keccak256(0x00, 0x20)\n      swap1\n    tag_152:\n      dup2\n      sload\n      dup2\n      mstore\n      swap1\n      0x01\n      add\n      swap1\n      0x20\n      add\n      dup1\n      dup4\n      gt\n      tag_152\n      jumpi\n      dup3\n      swap1\n      sub\n      0x1f\n      and\n      dup3\n      add\n      swap2\n    tag_150:\n      pop\n      pop\n      pop\n      pop\n      pop\n      dup2\n      mstore\n      0x20\n      add\n      0x02\n      dup3\n      add\n      dup1\n      sload\n      tag_153\n      swap1\n      tag_105\n      jump\t// in\n    tag_153:\n      dup1\n      0x1f\n      add\n      0x20\n      dup1\n      swap2\n      div\n      mul\n      0x20\n      add\n      mload(0x40)\n      swap1\n      dup2\n      add\n      0x40\n      mstore\n      dup1\n      swap3\n      swap2\n      swap1\n      dup2\n      dup2\n      mstore\n      0x20\n      add\n      dup3\n      dup1\n      sload\n      tag_154\n      swap1\n      tag_105\n      jump\t// in\n    tag_154:\n      dup1\n      iszero\n      tag_155\n      jumpi\n      dup1\n      0x1f\n      lt\n      tag_156\n      jumpi\n      0x0100\n      dup1\n      dup4\n      sload\n      div\n      mul\n      dup4\n      mstore\n      swap2\n      0x20\n      add\n      swap2\n      jump(tag_155)\n    tag_156:\n      dup3\n      add\n      swap2\n      swap1\n      0x00\n      mstore\n      keccak256(0x00, 0x20)\n      swap1\n    tag_157:\n      dup2\n      sload\n      dup2\n      mstore\n      swap1\n      0x01\n      add\n      swap1\n      0x20\n      add\n      dup1\n      dup4\n      gt\n      tag_157\n      jumpi\n      dup3\n      swap1\n      sub\n      0x1f\n      and\n      dup3\n      add\n      swap2\n    tag_155:\n      pop\n      pop\n      pop\n      pop\n      pop\n      dup2\n      mstore\n      0x20\n      add\n      0x03\n      dup3\n      add\n      dup1\n      sload\n      tag_158\n      swap1\n      tag_105\n      jump\t// in\n    tag_158:\n      dup1\n      0x1f\n      add\n      0x20\n      dup1\n      swap2\n      div\n      mul\n      0x20\n      add\n      mload(0x40)\n      swap1\n      dup2\n      add\n      0x40\n      mstore\n      dup1\n      swap3\n      swap2\n      swap1\n      dup2\n      dup2\n      mstore\n      0x20\n      add\n      dup3\n      dup1\n      sload\n      tag_159\n      swap1\n      tag_105\n      jump\t// in\n    tag_159:\n      dup1\n      iszero\n      tag_160\n      jumpi\n      dup1\n      0x1f\n      lt\n      tag_161\n      jumpi\n      0x0100\n      dup1\n      dup4\n      sload\n      div\n      mul\n      dup4\n      mstore\n      swap2\n      0x20\n      add\n      swap2\n      jump(tag_160)\n    tag_161:\n      dup3\n      add\n      swap2\n      swap1\n      0x00\n      mstore\n      keccak256(0x00, 0x20)\n      swap1\n    tag_162:\n      dup2\n      sload\n      dup2\n      mstore\n      swap1\n      0x01\n      add\n      swap1\n      0x20\n      add\n      dup1\n      dup4\n      gt\n      tag_162\n      jumpi\n      dup3\n      swap1\n      sub\n      0x1f\n      and\n      dup3\n      add\n      swap2\n    tag_160:\n      pop\n      pop\n      pop\n      pop\n      pop\n      dup2\n      mstore\n      pop\n      pop\n      dup2\n      mstore\n      0x20\n      add\n      swap1\n      0x01\n      add\n      swap1\n      jump(tag_140)\n    tag_141:\n      pop\n      pop\n      pop\n      pop\n      swap1\n      pop\n        /* \"Transaction.sol\":2645:2772  function displayAll(string memory Vin) public view returns (transactionDetails[] memory){... */\n      swap2\n      swap1\n      pop\n      jump\t// out\n    tag_75:\n      dup3\n      dup1\n      sload\n      tag_163\n      swap1\n      tag_105\n      jump\t// in\n    tag_163:\n      swap1\n      0x00\n      mstore\n      keccak256(0x00, 0x20)\n      swap1\n      0x1f\n      add\n      0x20\n      swap1\n      div\n      dup2\n      add\n      swap3\n      dup3\n      tag_165\n      jumpi\n      0x00\n      dup6\n      sstore\n      jump(tag_164)\n    tag_165:\n      dup3\n      0x1f\n      lt\n      tag_166\n      jumpi\n      dup1\n      mload\n      not(0xff)\n      and\n      dup4\n      dup1\n      add\n      or\n      dup6\n      sstore\n      jump(tag_164)\n    tag_166:\n      dup3\n      dup1\n      add\n      0x01\n      add\n      dup6\n      sstore\n      dup3\n      iszero\n      tag_164\n      jumpi\n      swap2\n      dup3\n      add\n    tag_167:\n      dup3\n      dup2\n      gt\n      iszero\n      tag_168\n      jumpi\n      dup3\n      mload\n      dup3\n      sstore\n      swap2\n      0x20\n      add\n      swap2\n      swap1\n      0x01\n      add\n      swap1\n      jump(tag_167)\n    tag_168:\n    tag_164:\n      pop\n      swap1\n      pop\n      tag_169\n      swap2\n      swap1\n      tag_170\n      jump\t// in\n    tag_169:\n      pop\n      swap1\n      jump\t// out\n    tag_82:\n      dup3\n      dup1\n      sload\n      dup3\n      dup3\n      sstore\n      swap1\n      0x00\n      mstore\n      keccak256(0x00, 0x20)\n      swap1\n      0x04\n      mul\n      dup2\n      add\n      swap3\n      dup3\n      iszero\n      tag_171\n      jumpi\n      0x00\n      mstore\n      keccak256(0x00, 0x20)\n      swap2\n      0x04\n      mul\n      dup3\n      add\n    tag_172:\n      dup3\n      dup2\n      gt\n      iszero\n      tag_173\n      jumpi\n      dup3\n      dup3\n      0x00\n      dup3\n      add\n      dup2\n      0x00\n      add\n      swap1\n      dup1\n      sload\n      tag_174\n      swap1\n      tag_105\n      jump\t// in\n    tag_174:\n      tag_175\n      swap3\n      swap2\n      swap1\n      tag_176\n      jump\t// in\n    tag_175:\n      pop\n      0x01\n      dup3\n      add\n      dup2\n      0x01\n      add\n      swap1\n      dup1\n      sload\n      tag_177\n      swap1\n      tag_105\n      jump\t// in\n    tag_177:\n      tag_178\n      swap3\n      swap2\n      swap1\n      tag_176\n      jump\t// in\n    tag_178:\n      pop\n      0x02\n      dup3\n      add\n      dup2\n      0x02\n      add\n      swap1\n      dup1\n      sload\n      tag_179\n      swap1\n      tag_105\n      jump\t// in\n    tag_179:\n      tag_180\n      swap3\n      swap2\n      swap1\n      tag_176\n      jump\t// in\n    tag_180:\n      pop\n      0x03\n      dup3\n      add\n      dup2\n      0x03\n      add\n      swap1\n      dup1\n      sload\n      tag_181\n      swap1\n      tag_105\n      jump\t// in\n    tag_181:\n      tag_182\n      swap3\n      swap2\n      swap1\n      tag_176\n      jump\t// in\n    tag_182:\n      pop\n      pop\n      pop\n      swap2\n      0x04\n      add\n      swap2\n      swap1\n      0x04\n      add\n      swap1\n      jump(tag_172)\n    tag_173:\n    tag_171:\n      pop\n      swap1\n      pop\n      tag_183\n      swap2\n      swap1\n      tag_184\n      jump\t// in\n    tag_183:\n      pop\n      swap1\n      jump\t// out\n    tag_170:\n    tag_185:\n      dup1\n      dup3\n      gt\n      iszero\n      tag_186\n      jumpi\n      0x00\n      dup2\n      0x00\n      swap1\n      sstore\n      pop\n      0x01\n      add\n      jump(tag_185)\n    tag_186:\n      pop\n      swap1\n      jump\t// out\n    tag_176:\n      dup3\n      dup1\n      sload\n      tag_187\n      swap1\n      tag_105\n      jump\t// in\n    tag_187:\n      swap1\n      0x00\n      mstore\n      keccak256(0x00, 0x20)\n      swap1\n      0x1f\n      add\n      0x20\n      swap1\n      div\n      dup2\n      add\n      swap3\n      dup3\n      tag_189\n      jumpi\n      0x00\n      dup6\n      sstore\n      jump(tag_188)\n    tag_189:\n      dup3\n      0x1f\n      lt\n      tag_190\n      jumpi\n      dup1\n      sload\n      dup6\n      sstore\n      jump(tag_188)\n    tag_190:\n      dup3\n      dup1\n      add\n      0x01\n      add\n      dup6\n      sstore\n      dup3\n      iszero\n      tag_188\n      jumpi\n      0x00\n      mstore\n      keccak256(0x00, 0x20)\n      swap2\n      0x1f\n      add\n      0x20\n      swap1\n      div\n      dup3\n      add\n    tag_191:\n      dup3\n      dup2\n      gt\n      iszero\n      tag_192\n      jumpi\n      dup3\n      sload\n      dup3\n      sstore\n      swap2\n      0x01\n      add\n      swap2\n      swap1\n      0x01\n      add\n      swap1\n      jump(tag_191)\n    tag_192:\n    tag_188:\n      pop\n      swap1\n      pop\n      tag_193\n      swap2\n      swap1\n      tag_170\n      jump\t// in\n    tag_193:\n      pop\n      swap1\n      jump\t// out\n    tag_184:\n    tag_194:\n      dup1\n      dup3\n      gt\n      iszero\n      tag_195\n      jumpi\n      0x00\n      dup1\n      dup3\n      add\n      0x00\n      tag_196\n      swap2\n      swap1\n      tag_197\n      jump\t// in\n    tag_196:\n      0x01\n      dup3\n      add\n      0x00\n      tag_198\n      swap2\n      swap1\n      tag_197\n      jump\t// in\n    tag_198:\n      0x02\n      dup3\n      add\n      0x00\n      tag_199\n      swap2\n      swap1\n      tag_197\n      jump\t// in\n    tag_199:\n      0x03\n      dup3\n      add\n      0x00\n      tag_200\n      swap2\n      swap1\n      tag_197\n      jump\t// in\n    tag_200:\n      pop\n      0x04\n      add\n      jump(tag_194)\n    tag_195:\n      pop\n      swap1\n      jump\t// out\n    tag_197:\n      pop\n      dup1\n      sload\n      tag_201\n      swap1\n      tag_105\n      jump\t// in\n    tag_201:\n      0x00\n      dup3\n      sstore\n      dup1\n      0x1f\n      lt\n      tag_203\n      jumpi\n      pop\n      jump(tag_202)\n    tag_203:\n      0x1f\n      add\n      0x20\n      swap1\n      div\n      swap1\n      0x00\n      mstore\n      keccak256(0x00, 0x20)\n      swap1\n      dup2\n      add\n      swap1\n      tag_204\n      swap2\n      swap1\n      tag_170\n      jump\t// in\n    tag_204:\n    tag_202:\n      pop\n      jump\t// out\n        /* \"#utility.yul\":7:82   */\n    tag_205:\n        /* \"#utility.yul\":40:46   */\n      0x00\n        /* \"#utility.yul\":73:75   */\n      0x40\n        /* \"#utility.yul\":67:76   */\n      mload\n        /* \"#utility.yul\":57:76   */\n      swap1\n      pop\n        /* \"#utility.yul\":7:82   */\n      swap1\n      jump\t// out\n        /* \"#utility.yul\":88:205   */\n    tag_206:\n        /* \"#utility.yul\":197:198   */\n      0x00\n        /* \"#utility.yul\":194:195   */\n      dup1\n        /* \"#utility.yul\":187:199   */\n      revert\n        /* \"#utility.yul\":211:328   */\n    tag_207:\n        /* \"#utility.yul\":320:321   */\n      0x00\n        /* \"#utility.yul\":317:318   */\n      dup1\n        /* \"#utility.yul\":310:322   */\n      revert\n        /* \"#utility.yul\":334:460   */\n    tag_208:\n        /* \"#utility.yul\":371:378   */\n      0x00\n        /* \"#utility.yul\":411:453   */\n      0xffffffffffffffffffffffffffffffffffffffff\n        /* \"#utility.yul\":404:409   */\n      dup3\n        /* \"#utility.yul\":400:454   */\n      and\n        /* \"#utility.yul\":389:454   */\n      swap1\n      pop\n        /* \"#utility.yul\":334:460   */\n      swap2\n      swap1\n      pop\n      jump\t// out\n        /* \"#utility.yul\":466:562   */\n    tag_209:\n        /* \"#utility.yul\":503:510   */\n      0x00\n        /* \"#utility.yul\":532:556   */\n      tag_249\n        /* \"#utility.yul\":550:555   */\n      dup3\n        /* \"#utility.yul\":532:556   */\n      tag_208\n      jump\t// in\n    tag_249:\n        /* \"#utility.yul\":521:556   */\n      swap1\n      pop\n        /* \"#utility.yul\":466:562   */\n      swap2\n      swap1\n      pop\n      jump\t// out\n        /* \"#utility.yul\":568:690   */\n    tag_210:\n        /* \"#utility.yul\":641:665   */\n      tag_251\n        /* \"#utility.yul\":659:664   */\n      dup2\n        /* \"#utility.yul\":641:665   */\n      tag_209\n      jump\t// in\n    tag_251:\n        /* \"#utility.yul\":634:639   */\n      dup2\n        /* \"#utility.yul\":631:666   */\n      eq\n        /* \"#utility.yul\":621:684   */\n      tag_252\n      jumpi\n        /* \"#utility.yul\":680:681   */\n      0x00\n        /* \"#utility.yul\":677:678   */\n      dup1\n        /* \"#utility.yul\":670:682   */\n      revert\n        /* \"#utility.yul\":621:684   */\n    tag_252:\n        /* \"#utility.yul\":568:690   */\n      pop\n      jump\t// out\n        /* \"#utility.yul\":696:835   */\n    tag_211:\n        /* \"#utility.yul\":742:747   */\n      0x00\n        /* \"#utility.yul\":780:786   */\n      dup2\n        /* \"#utility.yul\":767:787   */\n      calldataload\n        /* \"#utility.yul\":758:787   */\n      swap1\n      pop\n        /* \"#utility.yul\":796:829   */\n      tag_254\n        /* \"#utility.yul\":823:828   */\n      dup2\n        /* \"#utility.yul\":796:829   */\n      tag_210\n      jump\t// in\n    tag_254:\n        /* \"#utility.yul\":696:835   */\n      swap3\n      swap2\n      pop\n      pop\n      jump\t// out\n        /* \"#utility.yul\":841:1170   */\n    tag_20:\n        /* \"#utility.yul\":900:906   */\n      0x00\n        /* \"#utility.yul\":949:951   */\n      0x20\n        /* \"#utility.yul\":937:946   */\n      dup3\n        /* \"#utility.yul\":928:935   */\n      dup5\n        /* \"#utility.yul\":924:947   */\n      sub\n        /* \"#utility.yul\":920:952   */\n      slt\n        /* \"#utility.yul\":917:1036   */\n      iszero\n      tag_256\n      jumpi\n        /* \"#utility.yul\":955:1034   */\n      tag_257\n      tag_206\n      jump\t// in\n    tag_257:\n        /* \"#utility.yul\":917:1036   */\n    tag_256:\n        /* \"#utility.yul\":1075:1076   */\n      0x00\n        /* \"#utility.yul\":1100:1153   */\n      tag_258\n        /* \"#utility.yul\":1145:1152   */\n      dup5\n        /* \"#utility.yul\":1136:1142   */\n      dup3\n        /* \"#utility.yul\":1125:1134   */\n      dup6\n        /* \"#utility.yul\":1121:1143   */\n      add\n        /* \"#utility.yul\":1100:1153   */\n      tag_211\n      jump\t// in\n    tag_258:\n        /* \"#utility.yul\":1090:1153   */\n      swap2\n      pop\n        /* \"#utility.yul\":1046:1163   */\n      pop\n        /* \"#utility.yul\":841:1170   */\n      swap3\n      swap2\n      pop\n      pop\n      jump\t// out\n        /* \"#utility.yul\":1176:1266   */\n    tag_212:\n        /* \"#utility.yul\":1210:1217   */\n      0x00\n        /* \"#utility.yul\":1253:1258   */\n      dup2\n        /* \"#utility.yul\":1246:1259   */\n      iszero\n        /* \"#utility.yul\":1239:1260   */\n      iszero\n        /* \"#utility.yul\":1228:1260   */\n      swap1\n      pop\n        /* \"#utility.yul\":1176:1266   */\n      swap2\n      swap1\n      pop\n      jump\t// out\n        /* \"#utility.yul\":1272:1381   */\n    tag_213:\n        /* \"#utility.yul\":1353:1374   */\n      tag_261\n        /* \"#utility.yul\":1368:1373   */\n      dup2\n        /* \"#utility.yul\":1353:1374   */\n      tag_212\n      jump\t// in\n    tag_261:\n        /* \"#utility.yul\":1348:1351   */\n      dup3\n        /* \"#utility.yul\":1341:1375   */\n      mstore\n        /* \"#utility.yul\":1272:1381   */\n      pop\n      pop\n      jump\t// out\n        /* \"#utility.yul\":1387:1597   */\n    tag_23:\n        /* \"#utility.yul\":1474:1478   */\n      0x00\n        /* \"#utility.yul\":1512:1514   */\n      0x20\n        /* \"#utility.yul\":1501:1510   */\n      dup3\n        /* \"#utility.yul\":1497:1515   */\n      add\n        /* \"#utility.yul\":1489:1515   */\n      swap1\n      pop\n        /* \"#utility.yul\":1525:1590   */\n      tag_263\n        /* \"#utility.yul\":1587:1588   */\n      0x00\n        /* \"#utility.yul\":1576:1585   */\n      dup4\n        /* \"#utility.yul\":1572:1589   */\n      add\n        /* \"#utility.yul\":1563:1569   */\n      dup5\n        /* \"#utility.yul\":1525:1590   */\n      tag_213\n      jump\t// in\n    tag_263:\n        /* \"#utility.yul\":1387:1597   */\n      swap3\n      swap2\n      pop\n      pop\n      jump\t// out\n        /* \"#utility.yul\":1603:1720   */\n    tag_214:\n        /* \"#utility.yul\":1712:1713   */\n      0x00\n        /* \"#utility.yul\":1709:1710   */\n      dup1\n        /* \"#utility.yul\":1702:1714   */\n      revert\n        /* \"#utility.yul\":1726:1843   */\n    tag_215:\n        /* \"#utility.yul\":1835:1836   */\n      0x00\n        /* \"#utility.yul\":1832:1833   */\n      dup1\n        /* \"#utility.yul\":1825:1837   */\n      revert\n        /* \"#utility.yul\":1849:1951   */\n    tag_216:\n        /* \"#utility.yul\":1890:1896   */\n      0x00\n        /* \"#utility.yul\":1941:1943   */\n      0x1f\n        /* \"#utility.yul\":1937:1944   */\n      not\n        /* \"#utility.yul\":1932:1934   */\n      0x1f\n        /* \"#utility.yul\":1925:1930   */\n      dup4\n        /* \"#utility.yul\":1921:1935   */\n      add\n        /* \"#utility.yul\":1917:1945   */\n      and\n        /* \"#utility.yul\":1907:1945   */\n      swap1\n      pop\n        /* \"#utility.yul\":1849:1951   */\n      swap2\n      swap1\n      pop\n      jump\t// out\n        /* \"#utility.yul\":1957:2137   */\n    tag_217:\n        /* \"#utility.yul\":2005:2082   */\n      0x4e487b7100000000000000000000000000000000000000000000000000000000\n        /* \"#utility.yul\":2002:2003   */\n      0x00\n        /* \"#utility.yul\":1995:2083   */\n      mstore\n        /* \"#utility.yul\":2102:2106   */\n      0x41\n        /* \"#utility.yul\":2099:2100   */\n      0x04\n        /* \"#utility.yul\":2092:2107   */\n      mstore\n        /* \"#utility.yul\":2126:2130   */\n      0x24\n        /* \"#utility.yul\":2123:2124   */\n      0x00\n        /* \"#utility.yul\":2116:2131   */\n      revert\n        /* \"#utility.yul\":2143:2424   */\n    tag_218:\n        /* \"#utility.yul\":2226:2253   */\n      tag_269\n        /* \"#utility.yul\":2248:2252   */\n      dup3\n        /* \"#utility.yul\":2226:2253   */\n      tag_216\n      jump\t// in\n    tag_269:\n        /* \"#utility.yul\":2218:2224   */\n      dup2\n        /* \"#utility.yul\":2214:2254   */\n      add\n        /* \"#utility.yul\":2356:2362   */\n      dup2\n        /* \"#utility.yul\":2344:2354   */\n      dup2\n        /* \"#utility.yul\":2341:2363   */\n      lt\n        /* \"#utility.yul\":2320:2338   */\n      0xffffffffffffffff\n        /* \"#utility.yul\":2308:2318   */\n      dup3\n        /* \"#utility.yul\":2305:2339   */\n      gt\n        /* \"#utility.yul\":2302:2364   */\n      or\n        /* \"#utility.yul\":2299:2387   */\n      iszero\n      tag_270\n      jumpi\n        /* \"#utility.yul\":2367:2385   */\n      tag_271\n      tag_217\n      jump\t// in\n    tag_271:\n        /* \"#utility.yul\":2299:2387   */\n    tag_270:\n        /* \"#utility.yul\":2407:2417   */\n      dup1\n        /* \"#utility.yul\":2403:2405   */\n      0x40\n        /* \"#utility.yul\":2396:2418   */\n      mstore\n        /* \"#utility.yul\":2186:2424   */\n      pop\n        /* \"#utility.yul\":2143:2424   */\n      pop\n      pop\n      jump\t// out\n        /* \"#utility.yul\":2430:2559   */\n    tag_219:\n        /* \"#utility.yul\":2464:2470   */\n      0x00\n        /* \"#utility.yul\":2491:2511   */\n      tag_273\n      tag_205\n      jump\t// in\n    tag_273:\n        /* \"#utility.yul\":2481:2511   */\n      swap1\n      pop\n        /* \"#utility.yul\":2520:2553   */\n      tag_274\n        /* \"#utility.yul\":2548:2552   */\n      dup3\n        /* \"#utility.yul\":2540:2546   */\n      dup3\n        /* \"#utility.yul\":2520:2553   */\n      tag_218\n      jump\t// in\n    tag_274:\n        /* \"#utility.yul\":2430:2559   */\n      swap2\n      swap1\n      pop\n      jump\t// out\n        /* \"#utility.yul\":2565:2873   */\n    tag_220:\n        /* \"#utility.yul\":2627:2631   */\n      0x00\n        /* \"#utility.yul\":2717:2735   */\n      0xffffffffffffffff\n        /* \"#utility.yul\":2709:2715   */\n      dup3\n        /* \"#utility.yul\":2706:2736   */\n      gt\n        /* \"#utility.yul\":2703:2759   */\n      iszero\n      tag_276\n      jumpi\n        /* \"#utility.yul\":2739:2757   */\n      tag_277\n      tag_217\n      jump\t// in\n    tag_277:\n        /* \"#utility.yul\":2703:2759   */\n    tag_276:\n        /* \"#utility.yul\":2777:2806   */\n      tag_278\n        /* \"#utility.yul\":2799:2805   */\n      dup3\n        /* \"#utility.yul\":2777:2806   */\n      tag_216\n      jump\t// in\n    tag_278:\n        /* \"#utility.yul\":2769:2806   */\n      swap1\n      pop\n        /* \"#utility.yul\":2861:2865   */\n      0x20\n        /* \"#utility.yul\":2855:2859   */\n      dup2\n        /* \"#utility.yul\":2851:2866   */\n      add\n        /* \"#utility.yul\":2843:2866   */\n      swap1\n      pop\n        /* \"#utility.yul\":2565:2873   */\n      swap2\n      swap1\n      pop\n      jump\t// out\n        /* \"#utility.yul\":2879:3033   */\n    tag_221:\n        /* \"#utility.yul\":2963:2969   */\n      dup3\n        /* \"#utility.yul\":2958:2961   */\n      dup2\n        /* \"#utility.yul\":2953:2956   */\n      dup4\n        /* \"#utility.yul\":2940:2970   */\n      calldatacopy\n        /* \"#utility.yul\":3025:3026   */\n      0x00\n        /* \"#utility.yul\":3016:3022   */\n      dup4\n        /* \"#utility.yul\":3011:3014   */\n      dup4\n        /* \"#utility.yul\":3007:3023   */\n      add\n        /* \"#utility.yul\":3000:3027   */\n      mstore\n        /* \"#utility.yul\":2879:3033   */\n      pop\n      pop\n      pop\n      jump\t// out\n        /* \"#utility.yul\":3039:3451   */\n    tag_222:\n        /* \"#utility.yul\":3117:3122   */\n      0x00\n        /* \"#utility.yul\":3142:3208   */\n      tag_281\n        /* \"#utility.yul\":3158:3207   */\n      tag_282\n        /* \"#utility.yul\":3200:3206   */\n      dup5\n        /* \"#utility.yul\":3158:3207   */\n      tag_220\n      jump\t// in\n    tag_282:\n        /* \"#utility.yul\":3142:3208   */\n      tag_219\n      jump\t// in\n    tag_281:\n        /* \"#utility.yul\":3133:3208   */\n      swap1\n      pop\n        /* \"#utility.yul\":3231:3237   */\n      dup3\n        /* \"#utility.yul\":3224:3229   */\n      dup2\n        /* \"#utility.yul\":3217:3238   */\n      mstore\n        /* \"#utility.yul\":3269:3273   */\n      0x20\n        /* \"#utility.yul\":3262:3267   */\n      dup2\n        /* \"#utility.yul\":3258:3274   */\n      add\n        /* \"#utility.yul\":3307:3310   */\n      dup5\n        /* \"#utility.yul\":3298:3304   */\n      dup5\n        /* \"#utility.yul\":3293:3296   */\n      dup5\n        /* \"#utility.yul\":3289:3305   */\n      add\n        /* \"#utility.yul\":3286:3311   */\n      gt\n        /* \"#utility.yul\":3283:3395   */\n      iszero\n      tag_283\n      jumpi\n        /* \"#utility.yul\":3314:3393   */\n      tag_284\n      tag_215\n      jump\t// in\n    tag_284:\n        /* \"#utility.yul\":3283:3395   */\n    tag_283:\n        /* \"#utility.yul\":3404:3445   */\n      tag_285\n        /* \"#utility.yul\":3438:3444   */\n      dup5\n        /* \"#utility.yul\":3433:3436   */\n      dup3\n        /* \"#utility.yul\":3428:3431   */\n      dup6\n        /* \"#utility.yul\":3404:3445   */\n      tag_221\n      jump\t// in\n    tag_285:\n        /* \"#utility.yul\":3123:3451   */\n      pop\n        /* \"#utility.yul\":3039:3451   */\n      swap4\n      swap3\n      pop\n      pop\n      pop\n      jump\t// out\n        /* \"#utility.yul\":3471:3811   */\n    tag_223:\n        /* \"#utility.yul\":3527:3532   */\n      0x00\n        /* \"#utility.yul\":3576:3579   */\n      dup3\n        /* \"#utility.yul\":3569:3573   */\n      0x1f\n        /* \"#utility.yul\":3561:3567   */\n      dup4\n        /* \"#utility.yul\":3557:3574   */\n      add\n        /* \"#utility.yul\":3553:3580   */\n      slt\n        /* \"#utility.yul\":3543:3665   */\n      tag_287\n      jumpi\n        /* \"#utility.yul\":3584:3663   */\n      tag_288\n      tag_214\n      jump\t// in\n    tag_288:\n        /* \"#utility.yul\":3543:3665   */\n    tag_287:\n        /* \"#utility.yul\":3701:3707   */\n      dup2\n        /* \"#utility.yul\":3688:3708   */\n      calldataload\n        /* \"#utility.yul\":3726:3805   */\n      tag_289\n        /* \"#utility.yul\":3801:3804   */\n      dup5\n        /* \"#utility.yul\":3793:3799   */\n      dup3\n        /* \"#utility.yul\":3786:3790   */\n      0x20\n        /* \"#utility.yul\":3778:3784   */\n      dup7\n        /* \"#utility.yul\":3774:3791   */\n      add\n        /* \"#utility.yul\":3726:3805   */\n      tag_222\n      jump\t// in\n    tag_289:\n        /* \"#utility.yul\":3717:3805   */\n      swap2\n      pop\n        /* \"#utility.yul\":3533:3811   */\n      pop\n        /* \"#utility.yul\":3471:3811   */\n      swap3\n      swap2\n      pop\n      pop\n      jump\t// out\n        /* \"#utility.yul\":3817:5302   */\n    tag_26:\n        /* \"#utility.yul\":3943:3949   */\n      0x00\n        /* \"#utility.yul\":3951:3957   */\n      dup1\n        /* \"#utility.yul\":3959:3965   */\n      0x00\n        /* \"#utility.yul\":3967:3973   */\n      dup1\n        /* \"#utility.yul\":4016:4019   */\n      0x80\n        /* \"#utility.yul\":4004:4013   */\n      dup6\n        /* \"#utility.yul\":3995:4002   */\n      dup8\n        /* \"#utility.yul\":3991:4014   */\n      sub\n        /* \"#utility.yul\":3987:4020   */\n      slt\n        /* \"#utility.yul\":3984:4104   */\n      iszero\n      tag_291\n      jumpi\n        /* \"#utility.yul\":4023:4102   */\n      tag_292\n      tag_206\n      jump\t// in\n    tag_292:\n        /* \"#utility.yul\":3984:4104   */\n    tag_291:\n        /* \"#utility.yul\":4171:4172   */\n      0x00\n        /* \"#utility.yul\":4160:4169   */\n      dup6\n        /* \"#utility.yul\":4156:4173   */\n      add\n        /* \"#utility.yul\":4143:4174   */\n      calldataload\n        /* \"#utility.yul\":4201:4219   */\n      0xffffffffffffffff\n        /* \"#utility.yul\":4193:4199   */\n      dup2\n        /* \"#utility.yul\":4190:4220   */\n      gt\n        /* \"#utility.yul\":4187:4304   */\n      iszero\n      tag_293\n      jumpi\n        /* \"#utility.yul\":4223:4302   */\n      tag_294\n      tag_207\n      jump\t// in\n    tag_294:\n        /* \"#utility.yul\":4187:4304   */\n    tag_293:\n        /* \"#utility.yul\":4328:4391   */\n      tag_295\n        /* \"#utility.yul\":4383:4390   */\n      dup8\n        /* \"#utility.yul\":4374:4380   */\n      dup3\n        /* \"#utility.yul\":4363:4372   */\n      dup9\n        /* \"#utility.yul\":4359:4381   */\n      add\n        /* \"#utility.yul\":4328:4391   */\n      tag_223\n      jump\t// in\n    tag_295:\n        /* \"#utility.yul\":4318:4391   */\n      swap5\n      pop\n        /* \"#utility.yul\":4114:4401   */\n      pop\n        /* \"#utility.yul\":4468:4470   */\n      0x20\n        /* \"#utility.yul\":4457:4466   */\n      dup6\n        /* \"#utility.yul\":4453:4471   */\n      add\n        /* \"#utility.yul\":4440:4472   */\n      calldataload\n        /* \"#utility.yul\":4499:4517   */\n      0xffffffffffffffff\n        /* \"#utility.yul\":4491:4497   */\n      dup2\n        /* \"#utility.yul\":4488:4518   */\n      gt\n        /* \"#utility.yul\":4485:4602   */\n      iszero\n      tag_296\n      jumpi\n        /* \"#utility.yul\":4521:4600   */\n      tag_297\n      tag_207\n      jump\t// in\n    tag_297:\n        /* \"#utility.yul\":4485:4602   */\n    tag_296:\n        /* \"#utility.yul\":4626:4689   */\n      tag_298\n        /* \"#utility.yul\":4681:4688   */\n      dup8\n        /* \"#utility.yul\":4672:4678   */\n      dup3\n        /* \"#utility.yul\":4661:4670   */\n      dup9\n        /* \"#utility.yul\":4657:4679   */\n      add\n        /* \"#utility.yul\":4626:4689   */\n      tag_223\n      jump\t// in\n    tag_298:\n        /* \"#utility.yul\":4616:4689   */\n      swap4\n      pop\n        /* \"#utility.yul\":4411:4699   */\n      pop\n        /* \"#utility.yul\":4766:4768   */\n      0x40\n        /* \"#utility.yul\":4755:4764   */\n      dup6\n        /* \"#utility.yul\":4751:4769   */\n      add\n        /* \"#utility.yul\":4738:4770   */\n      calldataload\n        /* \"#utility.yul\":4797:4815   */\n      0xffffffffffffffff\n        /* \"#utility.yul\":4789:4795   */\n      dup2\n        /* \"#utility.yul\":4786:4816   */\n      gt\n        /* \"#utility.yul\":4783:4900   */\n      iszero\n      tag_299\n      jumpi\n        /* \"#utility.yul\":4819:4898   */\n      tag_300\n      tag_207\n      jump\t// in\n    tag_300:\n        /* \"#utility.yul\":4783:4900   */\n    tag_299:\n        /* \"#utility.yul\":4924:4987   */\n      tag_301\n        /* \"#utility.yul\":4979:4986   */\n      dup8\n        /* \"#utility.yul\":4970:4976   */\n      dup3\n        /* \"#utility.yul\":4959:4968   */\n      dup9\n        /* \"#utility.yul\":4955:4977   */\n      add\n        /* \"#utility.yul\":4924:4987   */\n      tag_223\n      jump\t// in\n    tag_301:\n        /* \"#utility.yul\":4914:4987   */\n      swap3\n      pop\n        /* \"#utility.yul\":4709:4997   */\n      pop\n        /* \"#utility.yul\":5064:5066   */\n      0x60\n        /* \"#utility.yul\":5053:5062   */\n      dup6\n        /* \"#utility.yul\":5049:5067   */\n      add\n        /* \"#utility.yul\":5036:5068   */\n      calldataload\n        /* \"#utility.yul\":5095:5113   */\n      0xffffffffffffffff\n        /* \"#utility.yul\":5087:5093   */\n      dup2\n        /* \"#utility.yul\":5084:5114   */\n      gt\n        /* \"#utility.yul\":5081:5198   */\n      iszero\n      tag_302\n      jumpi\n        /* \"#utility.yul\":5117:5196   */\n      tag_303\n      tag_207\n      jump\t// in\n    tag_303:\n        /* \"#utility.yul\":5081:5198   */\n    tag_302:\n        /* \"#utility.yul\":5222:5285   */\n      tag_304\n        /* \"#utility.yul\":5277:5284   */\n      dup8\n        /* \"#utility.yul\":5268:5274   */\n      dup3\n        /* \"#utility.yul\":5257:5266   */\n      dup9\n        /* \"#utility.yul\":5253:5275   */\n      add\n        /* \"#utility.yul\":5222:5285   */\n      tag_223\n      jump\t// in\n    tag_304:\n        /* \"#utility.yul\":5212:5285   */\n      swap2\n      pop\n        /* \"#utility.yul\":5007:5295   */\n      pop\n        /* \"#utility.yul\":3817:5302   */\n      swap3\n      swap6\n      swap2\n      swap5\n      pop\n      swap3\n      pop\n      jump\t// out\n        /* \"#utility.yul\":5308:5385   */\n    tag_224:\n        /* \"#utility.yul\":5345:5352   */\n      0x00\n        /* \"#utility.yul\":5374:5379   */\n      dup2\n        /* \"#utility.yul\":5363:5379   */\n      swap1\n      pop\n        /* \"#utility.yul\":5308:5385   */\n      swap2\n      swap1\n      pop\n      jump\t// out\n        /* \"#utility.yul\":5391:5513   */\n    tag_225:\n        /* \"#utility.yul\":5464:5488   */\n      tag_307\n        /* \"#utility.yul\":5482:5487   */\n      dup2\n        /* \"#utility.yul\":5464:5488   */\n      tag_224\n      jump\t// in\n    tag_307:\n        /* \"#utility.yul\":5457:5462   */\n      dup2\n        /* \"#utility.yul\":5454:5489   */\n      eq\n        /* \"#utility.yul\":5444:5507   */\n      tag_308\n      jumpi\n        /* \"#utility.yul\":5503:5504   */\n      0x00\n        /* \"#utility.yul\":5500:5501   */\n      dup1\n        /* \"#utility.yul\":5493:5505   */\n      revert\n        /* \"#utility.yul\":5444:5507   */\n    tag_308:\n        /* \"#utility.yul\":5391:5513   */\n      pop\n      jump\t// out\n        /* \"#utility.yul\":5519:5658   */\n    tag_226:\n        /* \"#utility.yul\":5565:5570   */\n      0x00\n        /* \"#utility.yul\":5603:5609   */\n      dup2\n        /* \"#utility.yul\":5590:5610   */\n      calldataload\n        /* \"#utility.yul\":5581:5610   */\n      swap1\n      pop\n        /* \"#utility.yul\":5619:5652   */\n      tag_310\n        /* \"#utility.yul\":5646:5651   */\n      dup2\n        /* \"#utility.yul\":5619:5652   */\n      tag_225\n      jump\t// in\n    tag_310:\n        /* \"#utility.yul\":5519:5658   */\n      swap3\n      swap2\n      pop\n      pop\n      jump\t// out\n        /* \"#utility.yul\":5664:6318   */\n    tag_50:\n        /* \"#utility.yul\":5742:5748   */\n      0x00\n        /* \"#utility.yul\":5750:5756   */\n      dup1\n        /* \"#utility.yul\":5799:5801   */\n      0x40\n        /* \"#utility.yul\":5787:5796   */\n      dup4\n        /* \"#utility.yul\":5778:5785   */\n      dup6\n        /* \"#utility.yul\":5774:5797   */\n      sub\n        /* \"#utility.yul\":5770:5802   */\n      slt\n        /* \"#utility.yul\":5767:5886   */\n      iszero\n      tag_312\n      jumpi\n        /* \"#utility.yul\":5805:5884   */\n      tag_313\n      tag_206\n      jump\t// in\n    tag_313:\n        /* \"#utility.yul\":5767:5886   */\n    tag_312:\n        /* \"#utility.yul\":5953:5954   */\n      0x00\n        /* \"#utility.yul\":5942:5951   */\n      dup4\n        /* \"#utility.yul\":5938:5955   */\n      add\n        /* \"#utility.yul\":5925:5956   */\n      calldataload\n        /* \"#utility.yul\":5983:6001   */\n      0xffffffffffffffff\n        /* \"#utility.yul\":5975:5981   */\n      dup2\n        /* \"#utility.yul\":5972:6002   */\n      gt\n        /* \"#utility.yul\":5969:6086   */\n      iszero\n      tag_314\n      jumpi\n        /* \"#utility.yul\":6005:6084   */\n      tag_315\n      tag_207\n      jump\t// in\n    tag_315:\n        /* \"#utility.yul\":5969:6086   */\n    tag_314:\n        /* \"#utility.yul\":6110:6173   */\n      tag_316\n        /* \"#utility.yul\":6165:6172   */\n      dup6\n        /* \"#utility.yul\":6156:6162   */\n      dup3\n        /* \"#utility.yul\":6145:6154   */\n      dup7\n        /* \"#utility.yul\":6141:6163   */\n      add\n        /* \"#utility.yul\":6110:6173   */\n      tag_223\n      jump\t// in\n    tag_316:\n        /* \"#utility.yul\":6100:6173   */\n      swap3\n      pop\n        /* \"#utility.yul\":5896:6183   */\n      pop\n        /* \"#utility.yul\":6222:6224   */\n      0x20\n        /* \"#utility.yul\":6248:6301   */\n      tag_317\n        /* \"#utility.yul\":6293:6300   */\n      dup6\n        /* \"#utility.yul\":6284:6290   */\n      dup3\n        /* \"#utility.yul\":6273:6282   */\n      dup7\n        /* \"#utility.yul\":6269:6291   */\n      add\n        /* \"#utility.yul\":6248:6301   */\n      tag_226\n      jump\t// in\n    tag_317:\n        /* \"#utility.yul\":6238:6301   */\n      swap2\n      pop\n        /* \"#utility.yul\":6193:6311   */\n      pop\n        /* \"#utility.yul\":5664:6318   */\n      swap3\n      pop\n      swap3\n      swap1\n      pop\n      jump\t// out\n        /* \"#utility.yul\":6324:6423   */\n    tag_227:\n        /* \"#utility.yul\":6376:6382   */\n      0x00\n        /* \"#utility.yul\":6410:6415   */\n      dup2\n        /* \"#utility.yul\":6404:6416   */\n      mload\n        /* \"#utility.yul\":6394:6416   */\n      swap1\n      pop\n        /* \"#utility.yul\":6324:6423   */\n      swap2\n      swap1\n      pop\n      jump\t// out\n        /* \"#utility.yul\":6429:6598   */\n    tag_228:\n        /* \"#utility.yul\":6513:6524   */\n      0x00\n        /* \"#utility.yul\":6547:6553   */\n      dup3\n        /* \"#utility.yul\":6542:6545   */\n      dup3\n        /* \"#utility.yul\":6535:6554   */\n      mstore\n        /* \"#utility.yul\":6587:6591   */\n      0x20\n        /* \"#utility.yul\":6582:6585   */\n      dup3\n        /* \"#utility.yul\":6578:6592   */\n      add\n        /* \"#utility.yul\":6563:6592   */\n      swap1\n      pop\n        /* \"#utility.yul\":6429:6598   */\n      swap3\n      swap2\n      pop\n      pop\n      jump\t// out\n        /* \"#utility.yul\":6604:6911   */\n    tag_229:\n        /* \"#utility.yul\":6672:6673   */\n      0x00\n        /* \"#utility.yul\":6682:6795   */\n    tag_321:\n        /* \"#utility.yul\":6696:6702   */\n      dup4\n        /* \"#utility.yul\":6693:6694   */\n      dup2\n        /* \"#utility.yul\":6690:6703   */\n      lt\n        /* \"#utility.yul\":6682:6795   */\n      iszero\n      tag_323\n      jumpi\n        /* \"#utility.yul\":6781:6782   */\n      dup1\n        /* \"#utility.yul\":6776:6779   */\n      dup3\n        /* \"#utility.yul\":6772:6783   */\n      add\n        /* \"#utility.yul\":6766:6784   */\n      mload\n        /* \"#utility.yul\":6762:6763   */\n      dup2\n        /* \"#utility.yul\":6757:6760   */\n      dup5\n        /* \"#utility.yul\":6753:6764   */\n      add\n        /* \"#utility.yul\":6746:6785   */\n      mstore\n        /* \"#utility.yul\":6718:6720   */\n      0x20\n        /* \"#utility.yul\":6715:6716   */\n      dup2\n        /* \"#utility.yul\":6711:6721   */\n      add\n        /* \"#utility.yul\":6706:6721   */\n      swap1\n      pop\n        /* \"#utility.yul\":6682:6795   */\n      jump(tag_321)\n    tag_323:\n        /* \"#utility.yul\":6813:6819   */\n      dup4\n        /* \"#utility.yul\":6810:6811   */\n      dup2\n        /* \"#utility.yul\":6807:6820   */\n      gt\n        /* \"#utility.yul\":6804:6905   */\n      iszero\n      tag_324\n      jumpi\n        /* \"#utility.yul\":6893:6894   */\n      0x00\n        /* \"#utility.yul\":6884:6890   */\n      dup5\n        /* \"#utility.yul\":6879:6882   */\n      dup5\n        /* \"#utility.yul\":6875:6891   */\n      add\n        /* \"#utility.yul\":6868:6895   */\n      mstore\n        /* \"#utility.yul\":6804:6905   */\n    tag_324:\n        /* \"#utility.yul\":6653:6911   */\n      pop\n        /* \"#utility.yul\":6604:6911   */\n      pop\n      pop\n      pop\n      jump\t// out\n        /* \"#utility.yul\":6917:7281   */\n    tag_230:\n        /* \"#utility.yul\":7005:7008   */\n      0x00\n        /* \"#utility.yul\":7033:7072   */\n      tag_326\n        /* \"#utility.yul\":7066:7071   */\n      dup3\n        /* \"#utility.yul\":7033:7072   */\n      tag_227\n      jump\t// in\n    tag_326:\n        /* \"#utility.yul\":7088:7159   */\n      tag_327\n        /* \"#utility.yul\":7152:7158   */\n      dup2\n        /* \"#utility.yul\":7147:7150   */\n      dup6\n        /* \"#utility.yul\":7088:7159   */\n      tag_228\n      jump\t// in\n    tag_327:\n        /* \"#utility.yul\":7081:7159   */\n      swap4\n      pop\n        /* \"#utility.yul\":7168:7220   */\n      tag_328\n        /* \"#utility.yul\":7213:7219   */\n      dup2\n        /* \"#utility.yul\":7208:7211   */\n      dup6\n        /* \"#utility.yul\":7201:7205   */\n      0x20\n        /* \"#utility.yul\":7194:7199   */\n      dup7\n        /* \"#utility.yul\":7190:7206   */\n      add\n        /* \"#utility.yul\":7168:7220   */\n      tag_229\n      jump\t// in\n    tag_328:\n        /* \"#utility.yul\":7245:7274   */\n      tag_329\n        /* \"#utility.yul\":7267:7273   */\n      dup2\n        /* \"#utility.yul\":7245:7274   */\n      tag_216\n      jump\t// in\n    tag_329:\n        /* \"#utility.yul\":7240:7243   */\n      dup5\n        /* \"#utility.yul\":7236:7275   */\n      add\n        /* \"#utility.yul\":7229:7275   */\n      swap2\n      pop\n        /* \"#utility.yul\":7009:7281   */\n      pop\n        /* \"#utility.yul\":6917:7281   */\n      swap3\n      swap2\n      pop\n      pop\n      jump\t// out\n        /* \"#utility.yul\":7287:8204   */\n    tag_53:\n        /* \"#utility.yul\":7544:7548   */\n      0x00\n        /* \"#utility.yul\":7582:7585   */\n      0x80\n        /* \"#utility.yul\":7571:7580   */\n      dup3\n        /* \"#utility.yul\":7567:7586   */\n      add\n        /* \"#utility.yul\":7559:7586   */\n      swap1\n      pop\n        /* \"#utility.yul\":7632:7641   */\n      dup2\n        /* \"#utility.yul\":7626:7630   */\n      dup2\n        /* \"#utility.yul\":7622:7642   */\n      sub\n        /* \"#utility.yul\":7618:7619   */\n      0x00\n        /* \"#utility.yul\":7607:7616   */\n      dup4\n        /* \"#utility.yul\":7603:7620   */\n      add\n        /* \"#utility.yul\":7596:7643   */\n      mstore\n        /* \"#utility.yul\":7660:7738   */\n      tag_331\n        /* \"#utility.yul\":7733:7737   */\n      dup2\n        /* \"#utility.yul\":7724:7730   */\n      dup8\n        /* \"#utility.yul\":7660:7738   */\n      tag_230\n      jump\t// in\n    tag_331:\n        /* \"#utility.yul\":7652:7738   */\n      swap1\n      pop\n        /* \"#utility.yul\":7785:7794   */\n      dup2\n        /* \"#utility.yul\":7779:7783   */\n      dup2\n        /* \"#utility.yul\":7775:7795   */\n      sub\n        /* \"#utility.yul\":7770:7772   */\n      0x20\n        /* \"#utility.yul\":7759:7768   */\n      dup4\n        /* \"#utility.yul\":7755:7773   */\n      add\n        /* \"#utility.yul\":7748:7796   */\n      mstore\n        /* \"#utility.yul\":7813:7891   */\n      tag_332\n        /* \"#utility.yul\":7886:7890   */\n      dup2\n        /* \"#utility.yul\":7877:7883   */\n      dup7\n        /* \"#utility.yul\":7813:7891   */\n      tag_230\n      jump\t// in\n    tag_332:\n        /* \"#utility.yul\":7805:7891   */\n      swap1\n      pop\n        /* \"#utility.yul\":7938:7947   */\n      dup2\n        /* \"#utility.yul\":7932:7936   */\n      dup2\n        /* \"#utility.yul\":7928:7948   */\n      sub\n        /* \"#utility.yul\":7923:7925   */\n      0x40\n        /* \"#utility.yul\":7912:7921   */\n      dup4\n        /* \"#utility.yul\":7908:7926   */\n      add\n        /* \"#utility.yul\":7901:7949   */\n      mstore\n        /* \"#utility.yul\":7966:8044   */\n      tag_333\n        /* \"#utility.yul\":8039:8043   */\n      dup2\n        /* \"#utility.yul\":8030:8036   */\n      dup6\n        /* \"#utility.yul\":7966:8044   */\n      tag_230\n      jump\t// in\n    tag_333:\n        /* \"#utility.yul\":7958:8044   */\n      swap1\n      pop\n        /* \"#utility.yul\":8091:8100   */\n      dup2\n        /* \"#utility.yul\":8085:8089   */\n      dup2\n        /* \"#utility.yul\":8081:8101   */\n      sub\n        /* \"#utility.yul\":8076:8078   */\n      0x60\n        /* \"#utility.yul\":8065:8074   */\n      dup4\n        /* \"#utility.yul\":8061:8079   */\n      add\n        /* \"#utility.yul\":8054:8102   */\n      mstore\n        /* \"#utility.yul\":8119:8197   */\n      tag_334\n        /* \"#utility.yul\":8192:8196   */\n      dup2\n        /* \"#utility.yul\":8183:8189   */\n      dup5\n        /* \"#utility.yul\":8119:8197   */\n      tag_230\n      jump\t// in\n    tag_334:\n        /* \"#utility.yul\":8111:8197   */\n      swap1\n      pop\n        /* \"#utility.yul\":7287:8204   */\n      swap6\n      swap5\n      pop\n      pop\n      pop\n      pop\n      pop\n      jump\t// out\n        /* \"#utility.yul\":8210:8719   */\n    tag_66:\n        /* \"#utility.yul\":8279:8285   */\n      0x00\n        /* \"#utility.yul\":8328:8330   */\n      0x20\n        /* \"#utility.yul\":8316:8325   */\n      dup3\n        /* \"#utility.yul\":8307:8314   */\n      dup5\n        /* \"#utility.yul\":8303:8326   */\n      sub\n        /* \"#utility.yul\":8299:8331   */\n      slt\n        /* \"#utility.yul\":8296:8415   */\n      iszero\n      tag_336\n      jumpi\n        /* \"#utility.yul\":8334:8413   */\n      tag_337\n      tag_206\n      jump\t// in\n    tag_337:\n        /* \"#utility.yul\":8296:8415   */\n    tag_336:\n        /* \"#utility.yul\":8482:8483   */\n      0x00\n        /* \"#utility.yul\":8471:8480   */\n      dup3\n        /* \"#utility.yul\":8467:8484   */\n      add\n        /* \"#utility.yul\":8454:8485   */\n      calldataload\n        /* \"#utility.yul\":8512:8530   */\n      0xffffffffffffffff\n        /* \"#utility.yul\":8504:8510   */\n      dup2\n        /* \"#utility.yul\":8501:8531   */\n      gt\n        /* \"#utility.yul\":8498:8615   */\n      iszero\n      tag_338\n      jumpi\n        /* \"#utility.yul\":8534:8613   */\n      tag_339\n      tag_207\n      jump\t// in\n    tag_339:\n        /* \"#utility.yul\":8498:8615   */\n    tag_338:\n        /* \"#utility.yul\":8639:8702   */\n      tag_340\n        /* \"#utility.yul\":8694:8701   */\n      dup5\n        /* \"#utility.yul\":8685:8691   */\n      dup3\n        /* \"#utility.yul\":8674:8683   */\n      dup6\n        /* \"#utility.yul\":8670:8692   */\n      add\n        /* \"#utility.yul\":8639:8702   */\n      tag_223\n      jump\t// in\n    tag_340:\n        /* \"#utility.yul\":8629:8702   */\n      swap2\n      pop\n        /* \"#utility.yul\":8425:8712   */\n      pop\n        /* \"#utility.yul\":8210:8719   */\n      swap3\n      swap2\n      pop\n      pop\n      jump\t// out\n        /* \"#utility.yul\":8725:8873   */\n    tag_231:\n        /* \"#utility.yul\":8826:8832   */\n      0x00\n        /* \"#utility.yul\":8860:8865   */\n      dup2\n        /* \"#utility.yul\":8854:8866   */\n      mload\n        /* \"#utility.yul\":8844:8866   */\n      swap1\n      pop\n        /* \"#utility.yul\":8725:8873   */\n      swap2\n      swap1\n      pop\n      jump\t// out\n        /* \"#utility.yul\":8879:9097   */\n    tag_232:\n        /* \"#utility.yul\":9012:9023   */\n      0x00\n        /* \"#utility.yul\":9046:9052   */\n      dup3\n        /* \"#utility.yul\":9041:9044   */\n      dup3\n        /* \"#utility.yul\":9034:9053   */\n      mstore\n        /* \"#utility.yul\":9086:9090   */\n      0x20\n        /* \"#utility.yul\":9081:9084   */\n      dup3\n        /* \"#utility.yul\":9077:9091   */\n      add\n        /* \"#utility.yul\":9062:9091   */\n      swap1\n      pop\n        /* \"#utility.yul\":8879:9097   */\n      swap3\n      swap2\n      pop\n      pop\n      jump\t// out\n        /* \"#utility.yul\":9103:9269   */\n    tag_233:\n        /* \"#utility.yul\":9204:9208   */\n      0x00\n        /* \"#utility.yul\":9227:9230   */\n      dup2\n        /* \"#utility.yul\":9219:9230   */\n      swap1\n      pop\n        /* \"#utility.yul\":9257:9261   */\n      0x20\n        /* \"#utility.yul\":9252:9255   */\n      dup3\n        /* \"#utility.yul\":9248:9262   */\n      add\n        /* \"#utility.yul\":9240:9262   */\n      swap1\n      pop\n        /* \"#utility.yul\":9103:9269   */\n      swap2\n      swap1\n      pop\n      jump\t// out\n        /* \"#utility.yul\":9275:9434   */\n    tag_234:\n        /* \"#utility.yul\":9349:9360   */\n      0x00\n        /* \"#utility.yul\":9383:9389   */\n      dup3\n        /* \"#utility.yul\":9378:9381   */\n      dup3\n        /* \"#utility.yul\":9371:9390   */\n      mstore\n        /* \"#utility.yul\":9423:9427   */\n      0x20\n        /* \"#utility.yul\":9418:9421   */\n      dup3\n        /* \"#utility.yul\":9414:9428   */\n      add\n        /* \"#utility.yul\":9399:9428   */\n      swap1\n      pop\n        /* \"#utility.yul\":9275:9434   */\n      swap3\n      swap2\n      pop\n      pop\n      jump\t// out\n        /* \"#utility.yul\":9440:9784   */\n    tag_235:\n        /* \"#utility.yul\":9518:9521   */\n      0x00\n        /* \"#utility.yul\":9546:9585   */\n      tag_346\n        /* \"#utility.yul\":9579:9584   */\n      dup3\n        /* \"#utility.yul\":9546:9585   */\n      tag_227\n      jump\t// in\n    tag_346:\n        /* \"#utility.yul\":9601:9662   */\n      tag_347\n        /* \"#utility.yul\":9655:9661   */\n      dup2\n        /* \"#utility.yul\":9650:9653   */\n      dup6\n        /* \"#utility.yul\":9601:9662   */\n      tag_234\n      jump\t// in\n    tag_347:\n        /* \"#utility.yul\":9594:9662   */\n      swap4\n      pop\n        /* \"#utility.yul\":9671:9723   */\n      tag_348\n        /* \"#utility.yul\":9716:9722   */\n      dup2\n        /* \"#utility.yul\":9711:9714   */\n      dup6\n        /* \"#utility.yul\":9704:9708   */\n      0x20\n        /* \"#utility.yul\":9697:9702   */\n      dup7\n        /* \"#utility.yul\":9693:9709   */\n      add\n        /* \"#utility.yul\":9671:9723   */\n      tag_229\n      jump\t// in\n    tag_348:\n        /* \"#utility.yul\":9748:9777   */\n      tag_349\n        /* \"#utility.yul\":9770:9776   */\n      dup2\n        /* \"#utility.yul\":9748:9777   */\n      tag_216\n      jump\t// in\n    tag_349:\n        /* \"#utility.yul\":9743:9746   */\n      dup5\n        /* \"#utility.yul\":9739:9778   */\n      add\n        /* \"#utility.yul\":9732:9778   */\n      swap2\n      pop\n        /* \"#utility.yul\":9522:9784   */\n      pop\n        /* \"#utility.yul\":9440:9784   */\n      swap3\n      swap2\n      pop\n      pop\n      jump\t// out\n        /* \"#utility.yul\":9876:11057   */\n    tag_236:\n        /* \"#utility.yul\":10003:10006   */\n      0x00\n        /* \"#utility.yul\":10039:10043   */\n      0x80\n        /* \"#utility.yul\":10034:10037   */\n      dup4\n        /* \"#utility.yul\":10030:10044   */\n      add\n        /* \"#utility.yul\":10125:10129   */\n      0x00\n        /* \"#utility.yul\":10118:10123   */\n      dup4\n        /* \"#utility.yul\":10114:10130   */\n      add\n        /* \"#utility.yul\":10108:10131   */\n      mload\n        /* \"#utility.yul\":10178:10181   */\n      dup5\n        /* \"#utility.yul\":10172:10176   */\n      dup3\n        /* \"#utility.yul\":10168:10182   */\n      sub\n        /* \"#utility.yul\":10161:10165   */\n      0x00\n        /* \"#utility.yul\":10156:10159   */\n      dup7\n        /* \"#utility.yul\":10152:10166   */\n      add\n        /* \"#utility.yul\":10145:10183   */\n      mstore\n        /* \"#utility.yul\":10204:10277   */\n      tag_351\n        /* \"#utility.yul\":10272:10276   */\n      dup3\n        /* \"#utility.yul\":10258:10270   */\n      dup3\n        /* \"#utility.yul\":10204:10277   */\n      tag_235\n      jump\t// in\n    tag_351:\n        /* \"#utility.yul\":10196:10277   */\n      swap2\n      pop\n        /* \"#utility.yul\":10054:10288   */\n      pop\n        /* \"#utility.yul\":10370:10374   */\n      0x20\n        /* \"#utility.yul\":10363:10368   */\n      dup4\n        /* \"#utility.yul\":10359:10375   */\n      add\n        /* \"#utility.yul\":10353:10376   */\n      mload\n        /* \"#utility.yul\":10423:10426   */\n      dup5\n        /* \"#utility.yul\":10417:10421   */\n      dup3\n        /* \"#utility.yul\":10413:10427   */\n      sub\n        /* \"#utility.yul\":10406:10410   */\n      0x20\n        /* \"#utility.yul\":10401:10404   */\n      dup7\n        /* \"#utility.yul\":10397:10411   */\n      add\n        /* \"#utility.yul\":10390:10428   */\n      mstore\n        /* \"#utility.yul\":10449:10522   */\n      tag_352\n        /* \"#utility.yul\":10517:10521   */\n      dup3\n        /* \"#utility.yul\":10503:10515   */\n      dup3\n        /* \"#utility.yul\":10449:10522   */\n      tag_235\n      jump\t// in\n    tag_352:\n        /* \"#utility.yul\":10441:10522   */\n      swap2\n      pop\n        /* \"#utility.yul\":10298:10533   */\n      pop\n        /* \"#utility.yul\":10619:10623   */\n      0x40\n        /* \"#utility.yul\":10612:10617   */\n      dup4\n        /* \"#utility.yul\":10608:10624   */\n      add\n        /* \"#utility.yul\":10602:10625   */\n      mload\n        /* \"#utility.yul\":10672:10675   */\n      dup5\n        /* \"#utility.yul\":10666:10670   */\n      dup3\n        /* \"#utility.yul\":10662:10676   */\n      sub\n        /* \"#utility.yul\":10655:10659   */\n      0x40\n        /* \"#utility.yul\":10650:10653   */\n      dup7\n        /* \"#utility.yul\":10646:10660   */\n      add\n        /* \"#utility.yul\":10639:10677   */\n      mstore\n        /* \"#utility.yul\":10698:10771   */\n      tag_353\n        /* \"#utility.yul\":10766:10770   */\n      dup3\n        /* \"#utility.yul\":10752:10764   */\n      dup3\n        /* \"#utility.yul\":10698:10771   */\n      tag_235\n      jump\t// in\n    tag_353:\n        /* \"#utility.yul\":10690:10771   */\n      swap2\n      pop\n        /* \"#utility.yul\":10543:10782   */\n      pop\n        /* \"#utility.yul\":10867:10871   */\n      0x60\n        /* \"#utility.yul\":10860:10865   */\n      dup4\n        /* \"#utility.yul\":10856:10872   */\n      add\n        /* \"#utility.yul\":10850:10873   */\n      mload\n        /* \"#utility.yul\":10920:10923   */\n      dup5\n        /* \"#utility.yul\":10914:10918   */\n      dup3\n        /* \"#utility.yul\":10910:10924   */\n      sub\n        /* \"#utility.yul\":10903:10907   */\n      0x60\n        /* \"#utility.yul\":10898:10901   */\n      dup7\n        /* \"#utility.yul\":10894:10908   */\n      add\n        /* \"#utility.yul\":10887:10925   */\n      mstore\n        /* \"#utility.yul\":10946:11019   */\n      tag_354\n        /* \"#utility.yul\":11014:11018   */\n      dup3\n        /* \"#utility.yul\":11000:11012   */\n      dup3\n        /* \"#utility.yul\":10946:11019   */\n      tag_235\n      jump\t// in\n    tag_354:\n        /* \"#utility.yul\":10938:11019   */\n      swap2\n      pop\n        /* \"#utility.yul\":10792:11030   */\n      pop\n        /* \"#utility.yul\":11047:11051   */\n      dup1\n        /* \"#utility.yul\":11040:11051   */\n      swap2\n      pop\n        /* \"#utility.yul\":10008:11057   */\n      pop\n        /* \"#utility.yul\":9876:11057   */\n      swap3\n      swap2\n      pop\n      pop\n      jump\t// out\n        /* \"#utility.yul\":11063:11355   */\n    tag_237:\n        /* \"#utility.yul\":11200:11210   */\n      0x00\n        /* \"#utility.yul\":11235:11349   */\n      tag_356\n        /* \"#utility.yul\":11345:11348   */\n      dup4\n        /* \"#utility.yul\":11337:11343   */\n      dup4\n        /* \"#utility.yul\":11235:11349   */\n      tag_236\n      jump\t// in\n    tag_356:\n        /* \"#utility.yul\":11221:11349   */\n      swap1\n      pop\n        /* \"#utility.yul\":11063:11355   */\n      swap3\n      swap2\n      pop\n      pop\n      jump\t// out\n        /* \"#utility.yul\":11361:11508   */\n    tag_238:\n        /* \"#utility.yul\":11465:11469   */\n      0x00\n        /* \"#utility.yul\":11497:11501   */\n      0x20\n        /* \"#utility.yul\":11492:11495   */\n      dup3\n        /* \"#utility.yul\":11488:11502   */\n      add\n        /* \"#utility.yul\":11480:11502   */\n      swap1\n      pop\n        /* \"#utility.yul\":11361:11508   */\n      swap2\n      swap1\n      pop\n      jump\t// out\n        /* \"#utility.yul\":11604:12787   */\n    tag_239:\n        /* \"#utility.yul\":11791:11794   */\n      0x00\n        /* \"#utility.yul\":11820:11908   */\n      tag_359\n        /* \"#utility.yul\":11902:11907   */\n      dup3\n        /* \"#utility.yul\":11820:11908   */\n      tag_231\n      jump\t// in\n    tag_359:\n        /* \"#utility.yul\":11924:12044   */\n      tag_360\n        /* \"#utility.yul\":12037:12043   */\n      dup2\n        /* \"#utility.yul\":12032:12035   */\n      dup6\n        /* \"#utility.yul\":11924:12044   */\n      tag_232\n      jump\t// in\n    tag_360:\n        /* \"#utility.yul\":11917:12044   */\n      swap4\n      pop\n        /* \"#utility.yul\":12070:12073   */\n      dup4\n        /* \"#utility.yul\":12115:12119   */\n      0x20\n        /* \"#utility.yul\":12107:12113   */\n      dup3\n        /* \"#utility.yul\":12103:12120   */\n      mul\n        /* \"#utility.yul\":12098:12101   */\n      dup6\n        /* \"#utility.yul\":12094:12121   */\n      add\n        /* \"#utility.yul\":12145:12235   */\n      tag_361\n        /* \"#utility.yul\":12229:12234   */\n      dup6\n        /* \"#utility.yul\":12145:12235   */\n      tag_233\n      jump\t// in\n    tag_361:\n        /* \"#utility.yul\":12258:12265   */\n      dup1\n        /* \"#utility.yul\":12289:12290   */\n      0x00\n        /* \"#utility.yul\":12274:12742   */\n    tag_362:\n        /* \"#utility.yul\":12299:12305   */\n      dup6\n        /* \"#utility.yul\":12296:12297   */\n      dup2\n        /* \"#utility.yul\":12293:12306   */\n      lt\n        /* \"#utility.yul\":12274:12742   */\n      iszero\n      tag_364\n      jumpi\n        /* \"#utility.yul\":12370:12379   */\n      dup5\n        /* \"#utility.yul\":12364:12368   */\n      dup5\n        /* \"#utility.yul\":12360:12380   */\n      sub\n        /* \"#utility.yul\":12355:12358   */\n      dup10\n        /* \"#utility.yul\":12348:12381   */\n      mstore\n        /* \"#utility.yul\":12421:12427   */\n      dup2\n        /* \"#utility.yul\":12415:12428   */\n      mload\n        /* \"#utility.yul\":12449:12581   */\n      tag_365\n        /* \"#utility.yul\":12576:12580   */\n      dup6\n        /* \"#utility.yul\":12561:12574   */\n      dup3\n        /* \"#utility.yul\":12449:12581   */\n      tag_237\n      jump\t// in\n    tag_365:\n        /* \"#utility.yul\":12441:12581   */\n      swap5\n      pop\n        /* \"#utility.yul\":12604:12698   */\n      tag_366\n        /* \"#utility.yul\":12691:12697   */\n      dup4\n        /* \"#utility.yul\":12604:12698   */\n      tag_238\n      jump\t// in\n    tag_366:\n        /* \"#utility.yul\":12594:12698   */\n      swap3\n      pop\n        /* \"#utility.yul\":12727:12731   */\n      0x20\n        /* \"#utility.yul\":12722:12725   */\n      dup11\n        /* \"#utility.yul\":12718:12732   */\n      add\n        /* \"#utility.yul\":12711:12732   */\n      swap10\n      pop\n        /* \"#utility.yul\":12334:12742   */\n      pop\n        /* \"#utility.yul\":12321:12322   */\n      0x01\n        /* \"#utility.yul\":12318:12319   */\n      dup2\n        /* \"#utility.yul\":12314:12323   */\n      add\n        /* \"#utility.yul\":12309:12323   */\n      swap1\n      pop\n        /* \"#utility.yul\":12274:12742   */\n      jump(tag_362)\n    tag_364:\n        /* \"#utility.yul\":12278:12292   */\n      pop\n        /* \"#utility.yul\":12758:12762   */\n      dup3\n        /* \"#utility.yul\":12751:12762   */\n      swap8\n      pop\n        /* \"#utility.yul\":12778:12781   */\n      dup8\n        /* \"#utility.yul\":12771:12781   */\n      swap6\n      pop\n        /* \"#utility.yul\":11796:12787   */\n      pop\n      pop\n      pop\n      pop\n      pop\n        /* \"#utility.yul\":11604:12787   */\n      swap3\n      swap2\n      pop\n      pop\n      jump\t// out\n        /* \"#utility.yul\":12793:13302   */\n    tag_69:\n        /* \"#utility.yul\":13004:13008   */\n      0x00\n        /* \"#utility.yul\":13042:13044   */\n      0x20\n        /* \"#utility.yul\":13031:13040   */\n      dup3\n        /* \"#utility.yul\":13027:13045   */\n      add\n        /* \"#utility.yul\":13019:13045   */\n      swap1\n      pop\n        /* \"#utility.yul\":13091:13100   */\n      dup2\n        /* \"#utility.yul\":13085:13089   */\n      dup2\n        /* \"#utility.yul\":13081:13101   */\n      sub\n        /* \"#utility.yul\":13077:13078   */\n      0x00\n        /* \"#utility.yul\":13066:13075   */\n      dup4\n        /* \"#utility.yul\":13062:13079   */\n      add\n        /* \"#utility.yul\":13055:13102   */\n      mstore\n        /* \"#utility.yul\":13119:13295   */\n      tag_368\n        /* \"#utility.yul\":13290:13294   */\n      dup2\n        /* \"#utility.yul\":13281:13287   */\n      dup5\n        /* \"#utility.yul\":13119:13295   */\n      tag_239\n      jump\t// in\n    tag_368:\n        /* \"#utility.yul\":13111:13295   */\n      swap1\n      pop\n        /* \"#utility.yul\":12793:13302   */\n      swap3\n      swap2\n      pop\n      pop\n      jump\t// out\n        /* \"#utility.yul\":13308:13456   */\n    tag_240:\n        /* \"#utility.yul\":13410:13421   */\n      0x00\n        /* \"#utility.yul\":13447:13450   */\n      dup2\n        /* \"#utility.yul\":13432:13450   */\n      swap1\n      pop\n        /* \"#utility.yul\":13308:13456   */\n      swap3\n      swap2\n      pop\n      pop\n      jump\t// out\n        /* \"#utility.yul\":13462:13839   */\n    tag_241:\n        /* \"#utility.yul\":13568:13571   */\n      0x00\n        /* \"#utility.yul\":13596:13635   */\n      tag_371\n        /* \"#utility.yul\":13629:13634   */\n      dup3\n        /* \"#utility.yul\":13596:13635   */\n      tag_227\n      jump\t// in\n    tag_371:\n        /* \"#utility.yul\":13651:13740   */\n      tag_372\n        /* \"#utility.yul\":13733:13739   */\n      dup2\n        /* \"#utility.yul\":13728:13731   */\n      dup6\n        /* \"#utility.yul\":13651:13740   */\n      tag_240\n      jump\t// in\n    tag_372:\n        /* \"#utility.yul\":13644:13740   */\n      swap4\n      pop\n        /* \"#utility.yul\":13749:13801   */\n      tag_373\n        /* \"#utility.yul\":13794:13800   */\n      dup2\n        /* \"#utility.yul\":13789:13792   */\n      dup6\n        /* \"#utility.yul\":13782:13786   */\n      0x20\n        /* \"#utility.yul\":13775:13780   */\n      dup7\n        /* \"#utility.yul\":13771:13787   */\n      add\n        /* \"#utility.yul\":13749:13801   */\n      tag_229\n      jump\t// in\n    tag_373:\n        /* \"#utility.yul\":13826:13832   */\n      dup1\n        /* \"#utility.yul\":13821:13824   */\n      dup5\n        /* \"#utility.yul\":13817:13833   */\n      add\n        /* \"#utility.yul\":13810:13833   */\n      swap2\n      pop\n        /* \"#utility.yul\":13572:13839   */\n      pop\n        /* \"#utility.yul\":13462:13839   */\n      swap3\n      swap2\n      pop\n      pop\n      jump\t// out\n        /* \"#utility.yul\":13845:14120   */\n    tag_80:\n        /* \"#utility.yul\":13977:13980   */\n      0x00\n        /* \"#utility.yul\":13999:14094   */\n      tag_375\n        /* \"#utility.yul\":14090:14093   */\n      dup3\n        /* \"#utility.yul\":14081:14087   */\n      dup5\n        /* \"#utility.yul\":13999:14094   */\n      tag_241\n      jump\t// in\n    tag_375:\n        /* \"#utility.yul\":13992:14094   */\n      swap2\n      pop\n        /* \"#utility.yul\":14111:14114   */\n      dup2\n        /* \"#utility.yul\":14104:14114   */\n      swap1\n      pop\n        /* \"#utility.yul\":13845:14120   */\n      swap3\n      swap2\n      pop\n      pop\n      jump\t// out\n        /* \"#utility.yul\":14126:14306   */\n    tag_242:\n        /* \"#utility.yul\":14174:14251   */\n      0x4e487b7100000000000000000000000000000000000000000000000000000000\n        /* \"#utility.yul\":14171:14172   */\n      0x00\n        /* \"#utility.yul\":14164:14252   */\n      mstore\n        /* \"#utility.yul\":14271:14275   */\n      0x22\n        /* \"#utility.yul\":14268:14269   */\n      0x04\n        /* \"#utility.yul\":14261:14276   */\n      mstore\n        /* \"#utility.yul\":14295:14299   */\n      0x24\n        /* \"#utility.yul\":14292:14293   */\n      0x00\n        /* \"#utility.yul\":14285:14300   */\n      revert\n        /* \"#utility.yul\":14312:14632   */\n    tag_105:\n        /* \"#utility.yul\":14356:14362   */\n      0x00\n        /* \"#utility.yul\":14393:14394   */\n      0x02\n        /* \"#utility.yul\":14387:14391   */\n      dup3\n        /* \"#utility.yul\":14383:14395   */\n      div\n        /* \"#utility.yul\":14373:14395   */\n      swap1\n      pop\n        /* \"#utility.yul\":14440:14441   */\n      0x01\n        /* \"#utility.yul\":14434:14438   */\n      dup3\n        /* \"#utility.yul\":14430:14442   */\n      and\n        /* \"#utility.yul\":14461:14479   */\n      dup1\n        /* \"#utility.yul\":14451:14532   */\n      tag_378\n      jumpi\n        /* \"#utility.yul\":14517:14521   */\n      0x7f\n        /* \"#utility.yul\":14509:14515   */\n      dup3\n        /* \"#utility.yul\":14505:14522   */\n      and\n        /* \"#utility.yul\":14495:14522   */\n      swap2\n      pop\n        /* \"#utility.yul\":14451:14532   */\n    tag_378:\n        /* \"#utility.yul\":14579:14581   */\n      0x20\n        /* \"#utility.yul\":14571:14577   */\n      dup3\n        /* \"#utility.yul\":14568:14582   */\n      lt\n        /* \"#utility.yul\":14548:14566   */\n      dup2\n        /* \"#utility.yul\":14545:14583   */\n      eq\n        /* \"#utility.yul\":14542:14626   */\n      iszero\n      tag_379\n      jumpi\n        /* \"#utility.yul\":14598:14616   */\n      tag_380\n      tag_242\n      jump\t// in\n    tag_380:\n        /* \"#utility.yul\":14542:14626   */\n    tag_379:\n        /* \"#utility.yul\":14363:14632   */\n      pop\n        /* \"#utility.yul\":14312:14632   */\n      swap2\n      swap1\n      pop\n      jump\t// out\n\n    auxdata: 0xa26469706673582212201c2fc0a87b20bc39ef19471fa98d87dd13a0638c4a00ad55fda55bc55c2d4baf64736f6c63430008090033\n}\n","bytecode":{"linkReferences":{},"object":"608060405234801561001057600080fd5b5060016000803373ffffffffffffffffffffffffffffffffffffffff1673ffffffffffffffffffffffffffffffffffffffff16815260200190815260200160002060006101000a81548160ff021916908315150217905550611950806100776000396000f3fe608060405234801561001057600080fd5b50600436106100cf5760003560e01c8063704802751161008c578063865ce8e311610066578063865ce8e314610223578063ab1c5f4a14610253578063adfb4d071461026f578063fc2d68f01461028b576100cf565b806370480275146101a457806375061fd9146101c05780637e2b3e08146101f0576100cf565b8063061a507a146100d45780632164bd61146101045780632b4b8c0d146101205780632d7784d61461013c5780632ef704f21461015857806363a846f814610174575b600080fd5b6100ee60048036038101906100e9919061127c565b6102bb565b6040516100fb91906112c4565b60405180910390f35b61011e60048036038101906101199190611425565b6102db565b005b61013a6004803603810190610135919061127c565b610435565b005b6101566004803603810190610151919061127c565b6104ec565b005b610172600480360381019061016d9190611425565b6105a3565b005b61018e6004803603810190610189919061127c565b6106fd565b60405161019b91906112c4565b60405180910390f35b6101be60048036038101906101b9919061127c565b61071d565b005b6101da60048036038101906101d5919061127c565b6107d3565b6040516101e791906112c4565b60405180910390f35b61020a60048036038101906102059190611532565b6107f3565b60405161021a9493929190611616565b60405180910390f35b61023d6004803603810190610238919061127c565b610a76565b60405161024a91906112c4565b60405180910390f35b61026d6004803603810190610268919061127c565b610a96565b005b61028960048036038101906102849190611425565b610b4c565b005b6102a560048036038101906102a09190611677565b610ca6565b6040516102b29190611844565b60405180910390f35b60036020528060005260406000206000915054906101000a900460ff1681565b60011515600260003373ffffffffffffffffffffffffffffffffffffffff1673ffffffffffffffffffffffffffffffffffffffff16815260200190815260200160002060009054906101000a900460ff1615151461033857600080fd5b60006040518060800160405280868152602001858152602001848152602001838152509050600581908060018154018082558091505060019003906000526020600020906004020160009091909190915060008201518160000190805190602001906103a5929190610f6b565b5060208201518160010190805190602001906103c2929190610f6b565b5060408201518160020190805190602001906103df929190610f6b565b5060608201518160030190805190602001906103fc929190610f6b565b505050600560048660405161041191906118a2565b908152602001604051809103902090805461042d929190610ff1565b505050505050565b600115156000803373ffffffffffffffffffffffffffffffffffffffff1673ffffffffffffffffffffffffffffffffffffffff16815260200190815260200160002060009054906101000a900460ff1615151461049157600080fd5b6001600360008373ffffffffffffffffffffffffffffffffffffffff1673ffffffffffffffffffffffffffffffffffffffff16815260200190815260200160002060006101000a81548160ff02191690831515021790555050565b600115156000803373ffffffffffffffffffffffffffffffffffffffff1673ffffffffffffffffffffffffffffffffffffffff16815260200190815260200160002060009054906101000a900460ff1615151461054857600080fd5b6001600260008373ffffffffffffffffffffffffffffffffffffffff1673ffffffffffffffffffffffffffffffffffffffff16815260200190815260200160002060006101000a81548160ff02191690831515021790555050565b60011515600360003373ffffffffffffffffffffffffffffffffffffffff1673ffffffffffffffffffffffffffffffffffffffff16815260200190815260200160002060009054906101000a900460ff1615151461060057600080fd5b600060405180608001604052808681526020018581526020018481526020018381525090506005819080600181540180825580915050600190039060005260206000209060040201600090919091909150600082015181600001908051906020019061066d929190610f6b565b50602082015181600101908051906020019061068a929190610f6b565b5060408201518160020190805190602001906106a7929190610f6b565b5060608201518160030190805190602001906106c4929190610f6b565b50505060056004866040516106d991906118a2565b90815260200160405180910390209080546106f5929190610ff1565b505050505050565b60006020528060005260406000206000915054906101000a900460ff1681565b600115156000803373ffffffffffffffffffffffffffffffffffffffff1673ffffffffffffffffffffffffffffffffffffffff16815260200190815260200160002060009054906101000a900460ff1615151461077957600080fd5b60016000808373ffffffffffffffffffffffffffffffffffffffff1673ffffffffffffffffffffffffffffffffffffffff16815260200190815260200160002060006101000a81548160ff02191690831515021790555050565b60026020528060005260406000206000915054906101000a900460ff1681565b600482805160208101820180518482526020830160208501208183528095505050505050818154811061082557600080fd5b906000526020600020906004020160009150915050806000018054610849906118e8565b80601f0160208091040260200160405190810160405280929190818152602001828054610875906118e8565b80156108c25780601f10610897576101008083540402835291602001916108c2565b820191906000526020600020905b8154815290600101906020018083116108a557829003601f168201915b5050505050908060010180546108d7906118e8565b80601f0160208091040260200160405190810160405280929190818152602001828054610903906118e8565b80156109505780601f1061092557610100808354040283529160200191610950565b820191906000526020600020905b81548152906001019060200180831161093357829003601f168201915b505050505090806002018054610965906118e8565b80601f0160208091040260200160405190810160405280929190818152602001828054610991906118e8565b80156109de5780601f106109b3576101008083540402835291602001916109de565b820191906000526020600020905b8154815290600101906020018083116109c157829003601f168201915b5050505050908060030180546109f3906118e8565b80601f0160208091040260200160405190810160405280929190818152602001828054610a1f906118e8565b8015610a6c5780601f10610a4157610100808354040283529160200191610a6c565b820191906000526020600020905b815481529060010190602001808311610a4f57829003601f168201915b5050505050905084565b60016020528060005260406000206000915054906101000a900460ff1681565b600115156000803373ffffffffffffffffffffffffffffffffffffffff1673ffffffffffffffffffffffffffffffffffffffff16815260200190815260200160002060009054906101000a900460ff16151514610af257600080fd5b60018060008373ffffffffffffffffffffffffffffffffffffffff1673ffffffffffffffffffffffffffffffffffffffff16815260200190815260200160002060006101000a81548160ff02191690831515021790555050565b60011515600160003373ffffffffffffffffffffffffffffffffffffffff1673ffffffffffffffffffffffffffffffffffffffff16815260200190815260200160002060009054906101000a900460ff16151514610ba957600080fd5b6000604051806080016040528086815260200185815260200184815260200183815250905060058190806001815401808255809150506001900390600052602060002090600402016000909190919091506000820151816000019080519060200190610c16929190610f6b565b506020820151816001019080519060200190610c33929190610f6b565b506040820151816002019080519060200190610c50929190610f6b565b506060820151816003019080519060200190610c6d929190610f6b565b5050506005600486604051610c8291906118a2565b9081526020016040518091039020908054610c9e929190610ff1565b505050505050565b6060600482604051610cb891906118a2565b9081526020016040518091039020805480602002602001604051908101604052809291908181526020016000905b82821015610f605783829060005260206000209060040201604051806080016040529081600082018054610d19906118e8565b80601f0160208091040260200160405190810160405280929190818152602001828054610d45906118e8565b8015610d925780601f10610d6757610100808354040283529160200191610d92565b820191906000526020600020905b815481529060010190602001808311610d7557829003601f168201915b50505050508152602001600182018054610dab906118e8565b80601f0160208091040260200160405190810160405280929190818152602001828054610dd7906118e8565b8015610e245780601f10610df957610100808354040283529160200191610e24565b820191906000526020600020905b815481529060010190602001808311610e0757829003601f168201915b50505050508152602001600282018054610e3d906118e8565b80601f0160208091040260200160405190810160405280929190818152602001828054610e69906118e8565b8015610eb65780601f10610e8b57610100808354040283529160200191610eb6565b820191906000526020600020905b815481529060010190602001808311610e9957829003601f168201915b50505050508152602001600382018054610ecf906118e8565b80601f0160208091040260200160405190810160405280929190818152602001828054610efb906118e8565b8015610f485780601f10610f1d57610100808354040283529160200191610f48565b820191906000526020600020905b815481529060010190602001808311610f2b57829003601f168201915b50505050508152505081526020019060010190610ce6565b505050509050919050565b828054610f77906118e8565b90600052602060002090601f016020900481019282610f995760008555610fe0565b82601f10610fb257805160ff1916838001178555610fe0565b82800160010185558215610fe0579182015b82811115610fdf578251825591602001919060010190610fc4565b5b509050610fed91906110c9565b5090565b8280548282559060005260206000209060040281019282156110b85760005260206000209160040282015b828111156110b7578282600082018160000190805461103a906118e8565b6110459291906110e6565b50600182018160010190805461105a906118e8565b6110659291906110e6565b50600282018160020190805461107a906118e8565b6110859291906110e6565b50600382018160030190805461109a906118e8565b6110a59291906110e6565b5050509160040191906004019061101c565b5b5090506110c59190611173565b5090565b5b808211156110e25760008160009055506001016110ca565b5090565b8280546110f2906118e8565b90600052602060002090601f0160209004810192826111145760008555611162565b82601f106111255780548555611162565b8280016001018555821561116257600052602060002091601f016020900482015b82811115611161578254825591600101919060010190611146565b5b50905061116f91906110c9565b5090565b5b808211156111c6576000808201600061118d91906111ca565b60018201600061119d91906111ca565b6002820160006111ad91906111ca565b6003820160006111bd91906111ca565b50600401611174565b5090565b5080546111d6906118e8565b6000825580601f106111e85750611207565b601f01602090049060005260206000209081019061120691906110c9565b5b50565b6000604051905090565b600080fd5b600080fd5b600073ffffffffffffffffffffffffffffffffffffffff82169050919050565b60006112498261121e565b9050919050565b6112598161123e565b811461126457600080fd5b50565b60008135905061127681611250565b92915050565b60006020828403121561129257611291611214565b5b60006112a084828501611267565b91505092915050565b60008115159050919050565b6112be816112a9565b82525050565b60006020820190506112d960008301846112b5565b92915050565b600080fd5b600080fd5b6000601f19601f8301169050919050565b7f4e487b7100000000000000000000000000000000000000000000000000000000600052604160045260246000fd5b611332826112e9565b810181811067ffffffffffffffff82111715611351576113506112fa565b5b80604052505050565b600061136461120a565b90506113708282611329565b919050565b600067ffffffffffffffff8211156113905761138f6112fa565b5b611399826112e9565b9050602081019050919050565b82818337600083830152505050565b60006113c86113c384611375565b61135a565b9050828152602081018484840111156113e4576113e36112e4565b5b6113ef8482856113a6565b509392505050565b600082601f83011261140c5761140b6112df565b5b813561141c8482602086016113b5565b91505092915050565b6000806000806080858703121561143f5761143e611214565b5b600085013567ffffffffffffffff81111561145d5761145c611219565b5b611469878288016113f7565b945050602085013567ffffffffffffffff81111561148a57611489611219565b5b611496878288016113f7565b935050604085013567ffffffffffffffff8111156114b7576114b6611219565b5b6114c3878288016113f7565b925050606085013567ffffffffffffffff8111156114e4576114e3611219565b5b6114f0878288016113f7565b91505092959194509250565b6000819050919050565b61150f816114fc565b811461151a57600080fd5b50565b60008135905061152c81611506565b92915050565b6000806040838503121561154957611548611214565b5b600083013567ffffffffffffffff81111561156757611566611219565b5b611573858286016113f7565b92505060206115848582860161151d565b9150509250929050565b600081519050919050565b600082825260208201905092915050565b60005b838110156115c85780820151818401526020810190506115ad565b838111156115d7576000848401525b50505050565b60006115e88261158e565b6115f28185611599565b93506116028185602086016115aa565b61160b816112e9565b840191505092915050565b6000608082019050818103600083015261163081876115dd565b9050818103602083015261164481866115dd565b9050818103604083015261165881856115dd565b9050818103606083015261166c81846115dd565b905095945050505050565b60006020828403121561168d5761168c611214565b5b600082013567ffffffffffffffff8111156116ab576116aa611219565b5b6116b7848285016113f7565b91505092915050565b600081519050919050565b600082825260208201905092915050565b6000819050602082019050919050565b600082825260208201905092915050565b60006117088261158e565b61171281856116ec565b93506117228185602086016115aa565b61172b816112e9565b840191505092915050565b6000608083016000830151848203600086015261175382826116fd565b9150506020830151848203602086015261176d82826116fd565b9150506040830151848203604086015261178782826116fd565b915050606083015184820360608601526117a182826116fd565b9150508091505092915050565b60006117ba8383611736565b905092915050565b6000602082019050919050565b60006117da826116c0565b6117e481856116cb565b9350836020820285016117f6856116dc565b8060005b85811015611832578484038952815161181385826117ae565b945061181e836117c2565b925060208a019950506001810190506117fa565b50829750879550505050505092915050565b6000602082019050818103600083015261185e81846117cf565b905092915050565b600081905092915050565b600061187c8261158e565b6118868185611866565b93506118968185602086016115aa565b80840191505092915050565b60006118ae8284611871565b915081905092915050565b7f4e487b7100000000000000000000000000000000000000000000000000000000600052602260045260246000fd5b6000600282049050600182168061190057607f821691505b60208210811415611914576119136118b9565b5b5091905056fea26469706673582212201c2fc0a87b20bc39ef19471fa98d87dd13a0638c4a00ad55fda55bc55c2d4baf64736f6c63430008090033","opcodes":"PUSH1 0x80 PUSH1 0x40 MSTORE CALLVALUE DUP1 ISZERO PUSH2 0x10 JUMPI PUSH1 0x0 DUP1 REVERT JUMPDEST POP PUSH1 0x1 PUSH1 0x0 DUP1 CALLER PUSH20 0xFFFFFFFFFFFFFFFFFFFFFFFFFFFFFFFFFFFFFFFF AND PUSH20 0xFFFFFFFFFFFFFFFFFFFFFFFFFFFFFFFFFFFFFFFF AND DUP2 MSTORE PUSH1 0x20 ADD SWAP1 DUP2 MSTORE PUSH1 0x20 ADD PUSH1 0x0 KECCAK256 PUSH1 0x0 PUSH2 0x100 EXP DUP2 SLOAD DUP2 PUSH1 0xFF MUL NOT AND SWAP1 DUP4 ISZERO ISZERO MUL OR SWAP1 SSTORE POP PUSH2 0x1950 DUP1 PUSH2 0x77 PUSH1 0x0 CODECOPY PUSH1 0x0 RETURN INVALID PUSH1 0x80 PUSH1 0x40 MSTORE CALLVALUE DUP1 ISZERO PUSH2 0x10 JUMPI PUSH1 0x0 DUP1 REVERT JUMPDEST POP PUSH1 0x4 CALLDATASIZE LT PUSH2 0xCF JUMPI PUSH1 0x0 CALLDATALOAD PUSH1 0xE0 SHR DUP1 PUSH4 0x70480275 GT PUSH2 0x8C JUMPI DUP1 PUSH4 0x865CE8E3 GT PUSH2 0x66 JUMPI DUP1 PUSH4 0x865CE8E3 EQ PUSH2 0x223 JUMPI DUP1 PUSH4 0xAB1C5F4A EQ PUSH2 0x253 JUMPI DUP1 PUSH4 0xADFB4D07 EQ PUSH2 0x26F JUMPI DUP1 PUSH4 0xFC2D68F0 EQ PUSH2 0x28B JUMPI PUSH2 0xCF JUMP JUMPDEST DUP1 PUSH4 0x70480275 EQ PUSH2 0x1A4 JUMPI DUP1 PUSH4 0x75061FD9 EQ PUSH2 0x1C0 JUMPI DUP1 PUSH4 0x7E2B3E08 EQ PUSH2 0x1F0 JUMPI PUSH2 0xCF JUMP JUMPDEST DUP1 PUSH4 0x61A507A EQ PUSH2 0xD4 JUMPI DUP1 PUSH4 0x2164BD61 EQ PUSH2 0x104 JUMPI DUP1 PUSH4 0x2B4B8C0D EQ PUSH2 0x120 JUMPI DUP1 PUSH4 0x2D7784D6 EQ PUSH2 0x13C JUMPI DUP1 PUSH4 0x2EF704F2 EQ PUSH2 0x158 JUMPI DUP1 PUSH4 0x63A846F8 EQ PUSH2 0x174 JUMPI JUMPDEST PUSH1 0x0 DUP1 REVERT JUMPDEST PUSH2 0xEE PUSH1 0x4 DUP1 CALLDATASIZE SUB DUP2 ADD SWAP1 PUSH2 0xE9 SWAP2 SWAP1 PUSH2 0x127C JUMP JUMPDEST PUSH2 0x2BB JUMP JUMPDEST PUSH1 0x40 MLOAD PUSH2 0xFB SWAP2 SWAP1 PUSH2 0x12C4 JUMP JUMPDEST PUSH1 0x40 MLOAD DUP1 SWAP2 SUB SWAP1 RETURN JUMPDEST PUSH2 0x11E PUSH1 0x4 DUP1 CALLDATASIZE SUB DUP2 ADD SWAP1 PUSH2 0x119 SWAP2 SWAP1 PUSH2 0x1425 JUMP JUMPDEST PUSH2 0x2DB JUMP JUMPDEST STOP JUMPDEST PUSH2 0x13A PUSH1 0x4 DUP1 CALLDATASIZE SUB DUP2 ADD SWAP1 PUSH2 0x135 SWAP2 SWAP1 PUSH2 0x127C JUMP JUMPDEST PUSH2 0x435 JUMP JUMPDEST STOP JUMPDEST PUSH2 0x156 PUSH1 0x4 DUP1 CALLDATASIZE SUB DUP2 ADD SWAP1 PUSH2 0x151 SWAP2 SWAP1 PUSH2 0x127C JUMP JUMPDEST PUSH2 0x4EC JUMP JUMPDEST STOP JUMPDEST PUSH2 0x172 PUSH1 0x4 DUP1 CALLDATASIZE SUB DUP2 ADD SWAP1 PUSH2 0x16D SWAP2 SWAP1 PUSH2 0x1425 JUMP JUMPDEST PUSH2 0x5A3 JUMP JUMPDEST STOP JUMPDEST PUSH2 0x18E PUSH1 0x4 DUP1 CALLDATASIZE SUB DUP2 ADD SWAP1 PUSH2 0x189 SWAP2 SWAP1 PUSH2 0x127C JUMP JUMPDEST PUSH2 0x6FD JUMP JUMPDEST PUSH1 0x40 MLOAD PUSH2 0x19B SWAP2 SWAP1 PUSH2 0x12C4 JUMP JUMPDEST PUSH1 0x40 MLOAD DUP1 SWAP2 SUB SWAP1 RETURN JUMPDEST PUSH2 0x1BE PUSH1 0x4 DUP1 CALLDATASIZE SUB DUP2 ADD SWAP1 PUSH2 0x1B9 SWAP2 SWAP1 PUSH2 0x127C JUMP JUMPDEST PUSH2 0x71D JUMP JUMPDEST STOP JUMPDEST PUSH2 0x1DA PUSH1 0x4 DUP1 CALLDATASIZE SUB DUP2 ADD SWAP1 PUSH2 0x1D5 SWAP2 SWAP1 PUSH2 0x127C JUMP JUMPDEST PUSH2 0x7D3 JUMP JUMPDEST PUSH1 0x40 MLOAD PUSH2 0x1E7 SWAP2 SWAP1 PUSH2 0x12C4 JUMP JUMPDEST PUSH1 0x40 MLOAD DUP1 SWAP2 SUB SWAP1 RETURN JUMPDEST PUSH2 0x20A PUSH1 0x4 DUP1 CALLDATASIZE SUB DUP2 ADD SWAP1 PUSH2 0x205 SWAP2 SWAP1 PUSH2 0x1532 JUMP JUMPDEST PUSH2 0x7F3 JUMP JUMPDEST PUSH1 0x40 MLOAD PUSH2 0x21A SWAP5 SWAP4 SWAP3 SWAP2 SWAP1 PUSH2 0x1616 JUMP JUMPDEST PUSH1 0x40 MLOAD DUP1 SWAP2 SUB SWAP1 RETURN JUMPDEST PUSH2 0x23D PUSH1 0x4 DUP1 CALLDATASIZE SUB DUP2 ADD SWAP1 PUSH2 0x238 SWAP2 SWAP1 PUSH2 0x127C JUMP JUMPDEST PUSH2 0xA76 JUMP JUMPDEST PUSH1 0x40 MLOAD PUSH2 0x24A SWAP2 SWAP1 PUSH2 0x12C4 JUMP JUMPDEST PUSH1 0x40 MLOAD DUP1 SWAP2 SUB SWAP1 RETURN JUMPDEST PUSH2 0x26D PUSH1 0x4 DUP1 CALLDATASIZE SUB DUP2 ADD SWAP1 PUSH2 0x268 SWAP2 SWAP1 PUSH2 0x127C JUMP JUMPDEST PUSH2 0xA96 JUMP JUMPDEST STOP JUMPDEST PUSH2 0x289 PUSH1 0x4 DUP1 CALLDATASIZE SUB DUP2 ADD SWAP1 PUSH2 0x284 SWAP2 SWAP1 PUSH2 0x1425 JUMP JUMPDEST PUSH2 0xB4C JUMP JUMPDEST STOP JUMPDEST PUSH2 0x2A5 PUSH1 0x4 DUP1 CALLDATASIZE SUB DUP2 ADD SWAP1 PUSH2 0x2A0 SWAP2 SWAP1 PUSH2 0x1677 JUMP JUMPDEST PUSH2 0xCA6 JUMP JUMPDEST PUSH1 0x40 MLOAD PUSH2 0x2B2 SWAP2 SWAP1 PUSH2 0x1844 JUMP JUMPDEST PUSH1 0x40 MLOAD DUP1 SWAP2 SUB SWAP1 RETURN JUMPDEST PUSH1 0x3 PUSH1 0x20 MSTORE DUP1 PUSH1 0x0 MSTORE PUSH1 0x40 PUSH1 0x0 KECCAK256 PUSH1 0x0 SWAP2 POP SLOAD SWAP1 PUSH2 0x100 EXP SWAP1 DIV PUSH1 0xFF AND DUP2 JUMP JUMPDEST PUSH1 0x1 ISZERO ISZERO PUSH1 0x2 PUSH1 0x0 CALLER PUSH20 0xFFFFFFFFFFFFFFFFFFFFFFFFFFFFFFFFFFFFFFFF AND PUSH20 0xFFFFFFFFFFFFFFFFFFFFFFFFFFFFFFFFFFFFFFFF AND DUP2 MSTORE PUSH1 0x20 ADD SWAP1 DUP2 MSTORE PUSH1 0x20 ADD PUSH1 0x0 KECCAK256 PUSH1 0x0 SWAP1 SLOAD SWAP1 PUSH2 0x100 EXP SWAP1 DIV PUSH1 0xFF AND ISZERO ISZERO EQ PUSH2 0x338 JUMPI PUSH1 0x0 DUP1 REVERT JUMPDEST PUSH1 0x0 PUSH1 0x40 MLOAD DUP1 PUSH1 0x80 ADD PUSH1 0x40 MSTORE DUP1 DUP7 DUP2 MSTORE PUSH1 0x20 ADD DUP6 DUP2 MSTORE PUSH1 0x20 ADD DUP5 DUP2 MSTORE PUSH1 0x20 ADD DUP4 DUP2 MSTORE POP SWAP1 POP PUSH1 0x5 DUP2 SWAP1 DUP1 PUSH1 0x1 DUP2 SLOAD ADD DUP1 DUP3 SSTORE DUP1 SWAP2 POP POP PUSH1 0x1 SWAP1 SUB SWAP1 PUSH1 0x0 MSTORE PUSH1 0x20 PUSH1 0x0 KECCAK256 SWAP1 PUSH1 0x4 MUL ADD PUSH1 0x0 SWAP1 SWAP2 SWAP1 SWAP2 SWAP1 SWAP2 POP PUSH1 0x0 DUP3 ADD MLOAD DUP2 PUSH1 0x0 ADD SWAP1 DUP1 MLOAD SWAP1 PUSH1 0x20 ADD SWAP1 PUSH2 0x3A5 SWAP3 SWAP2 SWAP1 PUSH2 0xF6B JUMP JUMPDEST POP PUSH1 0x20 DUP3 ADD MLOAD DUP2 PUSH1 0x1 ADD SWAP1 DUP1 MLOAD SWAP1 PUSH1 0x20 ADD SWAP1 PUSH2 0x3C2 SWAP3 SWAP2 SWAP1 PUSH2 0xF6B JUMP JUMPDEST POP PUSH1 0x40 DUP3 ADD MLOAD DUP2 PUSH1 0x2 ADD SWAP1 DUP1 MLOAD SWAP1 PUSH1 0x20 ADD SWAP1 PUSH2 0x3DF SWAP3 SWAP2 SWAP1 PUSH2 0xF6B JUMP JUMPDEST POP PUSH1 0x60 DUP3 ADD MLOAD DUP2 PUSH1 0x3 ADD SWAP1 DUP1 MLOAD SWAP1 PUSH1 0x20 ADD SWAP1 PUSH2 0x3FC SWAP3 SWAP2 SWAP1 PUSH2 0xF6B JUMP JUMPDEST POP POP POP PUSH1 0x5 PUSH1 0x4 DUP7 PUSH1 0x40 MLOAD PUSH2 0x411 SWAP2 SWAP1 PUSH2 0x18A2 JUMP JUMPDEST SWAP1 DUP2 MSTORE PUSH1 0x20 ADD PUSH1 0x40 MLOAD DUP1 SWAP2 SUB SWAP1 KECCAK256 SWAP1 DUP1 SLOAD PUSH2 0x42D SWAP3 SWAP2 SWAP1 PUSH2 0xFF1 JUMP JUMPDEST POP POP POP POP POP POP JUMP JUMPDEST PUSH1 0x1 ISZERO ISZERO PUSH1 0x0 DUP1 CALLER PUSH20 0xFFFFFFFFFFFFFFFFFFFFFFFFFFFFFFFFFFFFFFFF AND PUSH20 0xFFFFFFFFFFFFFFFFFFFFFFFFFFFFFFFFFFFFFFFF AND DUP2 MSTORE PUSH1 0x20 ADD SWAP1 DUP2 MSTORE PUSH1 0x20 ADD PUSH1 0x0 KECCAK256 PUSH1 0x0 SWAP1 SLOAD SWAP1 PUSH2 0x100 EXP SWAP1 DIV PUSH1 0xFF AND ISZERO ISZERO EQ PUSH2 0x491 JUMPI PUSH1 0x0 DUP1 REVERT JUMPDEST PUSH1 0x1 PUSH1 0x3 PUSH1 0x0 DUP4 PUSH20 0xFFFFFFFFFFFFFFFFFFFFFFFFFFFFFFFFFFFFFFFF AND PUSH20 0xFFFFFFFFFFFFFFFFFFFFFFFFFFFFFFFFFFFFFFFF AND DUP2 MSTORE PUSH1 0x20 ADD SWAP1 DUP2 MSTORE PUSH1 0x20 ADD PUSH1 0x0 KECCAK256 PUSH1 0x0 PUSH2 0x100 EXP DUP2 SLOAD DUP2 PUSH1 0xFF MUL NOT AND SWAP1 DUP4 ISZERO ISZERO MUL OR SWAP1 SSTORE POP POP JUMP JUMPDEST PUSH1 0x1 ISZERO ISZERO PUSH1 0x0 DUP1 CALLER PUSH20 0xFFFFFFFFFFFFFFFFFFFFFFFFFFFFFFFFFFFFFFFF AND PUSH20 0xFFFFFFFFFFFFFFFFFFFFFFFFFFFFFFFFFFFFFFFF AND DUP2 MSTORE PUSH1 0x20 ADD SWAP1 DUP2 MSTORE PUSH1 0x20 ADD PUSH1 0x0 KECCAK256 PUSH1 0x0 SWAP1 SLOAD SWAP1 PUSH2 0x100 EXP SWAP1 DIV PUSH1 0xFF AND ISZERO ISZERO EQ PUSH2 0x548 JUMPI PUSH1 0x0 DUP1 REVERT JUMPDEST PUSH1 0x1 PUSH1 0x2 PUSH1 0x0 DUP4 PUSH20 0xFFFFFFFFFFFFFFFFFFFFFFFFFFFFFFFFFFFFFFFF AND PUSH20 0xFFFFFFFFFFFFFFFFFFFFFFFFFFFFFFFFFFFFFFFF AND DUP2 MSTORE PUSH1 0x20 ADD SWAP1 DUP2 MSTORE PUSH1 0x20 ADD PUSH1 0x0 KECCAK256 PUSH1 0x0 PUSH2 0x100 EXP DUP2 SLOAD DUP2 PUSH1 0xFF MUL NOT AND SWAP1 DUP4 ISZERO ISZERO MUL OR SWAP1 SSTORE POP POP JUMP JUMPDEST PUSH1 0x1 ISZERO ISZERO PUSH1 0x3 PUSH1 0x0 CALLER PUSH20 0xFFFFFFFFFFFFFFFFFFFFFFFFFFFFFFFFFFFFFFFF AND PUSH20 0xFFFFFFFFFFFFFFFFFFFFFFFFFFFFFFFFFFFFFFFF AND DUP2 MSTORE PUSH1 0x20 ADD SWAP1 DUP2 MSTORE PUSH1 0x20 ADD PUSH1 0x0 KECCAK256 PUSH1 0x0 SWAP1 SLOAD SWAP1 PUSH2 0x100 EXP SWAP1 DIV PUSH1 0xFF AND ISZERO ISZERO EQ PUSH2 0x600 JUMPI PUSH1 0x0 DUP1 REVERT JUMPDEST PUSH1 0x0 PUSH1 0x40 MLOAD DUP1 PUSH1 0x80 ADD PUSH1 0x40 MSTORE DUP1 DUP7 DUP2 MSTORE PUSH1 0x20 ADD DUP6 DUP2 MSTORE PUSH1 0x20 ADD DUP5 DUP2 MSTORE PUSH1 0x20 ADD DUP4 DUP2 MSTORE POP SWAP1 POP PUSH1 0x5 DUP2 SWAP1 DUP1 PUSH1 0x1 DUP2 SLOAD ADD DUP1 DUP3 SSTORE DUP1 SWAP2 POP POP PUSH1 0x1 SWAP1 SUB SWAP1 PUSH1 0x0 MSTORE PUSH1 0x20 PUSH1 0x0 KECCAK256 SWAP1 PUSH1 0x4 MUL ADD PUSH1 0x0 SWAP1 SWAP2 SWAP1 SWAP2 SWAP1 SWAP2 POP PUSH1 0x0 DUP3 ADD MLOAD DUP2 PUSH1 0x0 ADD SWAP1 DUP1 MLOAD SWAP1 PUSH1 0x20 ADD SWAP1 PUSH2 0x66D SWAP3 SWAP2 SWAP1 PUSH2 0xF6B JUMP JUMPDEST POP PUSH1 0x20 DUP3 ADD MLOAD DUP2 PUSH1 0x1 ADD SWAP1 DUP1 MLOAD SWAP1 PUSH1 0x20 ADD SWAP1 PUSH2 0x68A SWAP3 SWAP2 SWAP1 PUSH2 0xF6B JUMP JUMPDEST POP PUSH1 0x40 DUP3 ADD MLOAD DUP2 PUSH1 0x2 ADD SWAP1 DUP1 MLOAD SWAP1 PUSH1 0x20 ADD SWAP1 PUSH2 0x6A7 SWAP3 SWAP2 SWAP1 PUSH2 0xF6B JUMP JUMPDEST POP PUSH1 0x60 DUP3 ADD MLOAD DUP2 PUSH1 0x3 ADD SWAP1 DUP1 MLOAD SWAP1 PUSH1 0x20 ADD SWAP1 PUSH2 0x6C4 SWAP3 SWAP2 SWAP1 PUSH2 0xF6B JUMP JUMPDEST POP POP POP PUSH1 0x5 PUSH1 0x4 DUP7 PUSH1 0x40 MLOAD PUSH2 0x6D9 SWAP2 SWAP1 PUSH2 0x18A2 JUMP JUMPDEST SWAP1 DUP2 MSTORE PUSH1 0x20 ADD PUSH1 0x40 MLOAD DUP1 SWAP2 SUB SWAP1 KECCAK256 SWAP1 DUP1 SLOAD PUSH2 0x6F5 SWAP3 SWAP2 SWAP1 PUSH2 0xFF1 JUMP JUMPDEST POP POP POP POP POP POP JUMP JUMPDEST PUSH1 0x0 PUSH1 0x20 MSTORE DUP1 PUSH1 0x0 MSTORE PUSH1 0x40 PUSH1 0x0 KECCAK256 PUSH1 0x0 SWAP2 POP SLOAD SWAP1 PUSH2 0x100 EXP SWAP1 DIV PUSH1 0xFF AND DUP2 JUMP JUMPDEST PUSH1 0x1 ISZERO ISZERO PUSH1 0x0 DUP1 CALLER PUSH20 0xFFFFFFFFFFFFFFFFFFFFFFFFFFFFFFFFFFFFFFFF AND PUSH20 0xFFFFFFFFFFFFFFFFFFFFFFFFFFFFFFFFFFFFFFFF AND DUP2 MSTORE PUSH1 0x20 ADD SWAP1 DUP2 MSTORE PUSH1 0x20 ADD PUSH1 0x0 KECCAK256 PUSH1 0x0 SWAP1 SLOAD SWAP1 PUSH2 0x100 EXP SWAP1 DIV PUSH1 0xFF AND ISZERO ISZERO EQ PUSH2 0x779 JUMPI PUSH1 0x0 DUP1 REVERT JUMPDEST PUSH1 0x1 PUSH1 0x0 DUP1 DUP4 PUSH20 0xFFFFFFFFFFFFFFFFFFFFFFFFFFFFFFFFFFFFFFFF AND PUSH20 0xFFFFFFFFFFFFFFFFFFFFFFFFFFFFFFFFFFFFFFFF AND DUP2 MSTORE PUSH1 0x20 ADD SWAP1 DUP2 MSTORE PUSH1 0x20 ADD PUSH1 0x0 KECCAK256 PUSH1 0x0 PUSH2 0x100 EXP DUP2 SLOAD DUP2 PUSH1 0xFF MUL NOT AND SWAP1 DUP4 ISZERO ISZERO MUL OR SWAP1 SSTORE POP POP JUMP JUMPDEST PUSH1 0x2 PUSH1 0x20 MSTORE DUP1 PUSH1 0x0 MSTORE PUSH1 0x40 PUSH1 0x0 KECCAK256 PUSH1 0x0 SWAP2 POP SLOAD SWAP1 PUSH2 0x100 EXP SWAP1 DIV PUSH1 0xFF AND DUP2 JUMP JUMPDEST PUSH1 0x4 DUP3 DUP1 MLOAD PUSH1 0x20 DUP2 ADD DUP3 ADD DUP1 MLOAD DUP5 DUP3 MSTORE PUSH1 0x20 DUP4 ADD PUSH1 0x20 DUP6 ADD KECCAK256 DUP2 DUP4 MSTORE DUP1 SWAP6 POP POP POP POP POP POP DUP2 DUP2 SLOAD DUP2 LT PUSH2 0x825 JUMPI PUSH1 0x0 DUP1 REVERT JUMPDEST SWAP1 PUSH1 0x0 MSTORE PUSH1 0x20 PUSH1 0x0 KECCAK256 SWAP1 PUSH1 0x4 MUL ADD PUSH1 0x0 SWAP2 POP SWAP2 POP POP DUP1 PUSH1 0x0 ADD DUP1 SLOAD PUSH2 0x849 SWAP1 PUSH2 0x18E8 JUMP JUMPDEST DUP1 PUSH1 0x1F ADD PUSH1 0x20 DUP1 SWAP2 DIV MUL PUSH1 0x20 ADD PUSH1 0x40 MLOAD SWAP1 DUP2 ADD PUSH1 0x40 MSTORE DUP1 SWAP3 SWAP2 SWAP1 DUP2 DUP2 MSTORE PUSH1 0x20 ADD DUP3 DUP1 SLOAD PUSH2 0x875 SWAP1 PUSH2 0x18E8 JUMP JUMPDEST DUP1 ISZERO PUSH2 0x8C2 JUMPI DUP1 PUSH1 0x1F LT PUSH2 0x897 JUMPI PUSH2 0x100 DUP1 DUP4 SLOAD DIV MUL DUP4 MSTORE SWAP2 PUSH1 0x20 ADD SWAP2 PUSH2 0x8C2 JUMP JUMPDEST DUP3 ADD SWAP2 SWAP1 PUSH1 0x0 MSTORE PUSH1 0x20 PUSH1 0x0 KECCAK256 SWAP1 JUMPDEST DUP2 SLOAD DUP2 MSTORE SWAP1 PUSH1 0x1 ADD SWAP1 PUSH1 0x20 ADD DUP1 DUP4 GT PUSH2 0x8A5 JUMPI DUP3 SWAP1 SUB PUSH1 0x1F AND DUP3 ADD SWAP2 JUMPDEST POP POP POP POP POP SWAP1 DUP1 PUSH1 0x1 ADD DUP1 SLOAD PUSH2 0x8D7 SWAP1 PUSH2 0x18E8 JUMP JUMPDEST DUP1 PUSH1 0x1F ADD PUSH1 0x20 DUP1 SWAP2 DIV MUL PUSH1 0x20 ADD PUSH1 0x40 MLOAD SWAP1 DUP2 ADD PUSH1 0x40 MSTORE DUP1 SWAP3 SWAP2 SWAP1 DUP2 DUP2 MSTORE PUSH1 0x20 ADD DUP3 DUP1 SLOAD PUSH2 0x903 SWAP1 PUSH2 0x18E8 JUMP JUMPDEST DUP1 ISZERO PUSH2 0x950 JUMPI DUP1 PUSH1 0x1F LT PUSH2 0x925 JUMPI PUSH2 0x100 DUP1 DUP4 SLOAD DIV MUL DUP4 MSTORE SWAP2 PUSH1 0x20 ADD SWAP2 PUSH2 0x950 JUMP JUMPDEST DUP3 ADD SWAP2 SWAP1 PUSH1 0x0 MSTORE PUSH1 0x20 PUSH1 0x0 KECCAK256 SWAP1 JUMPDEST DUP2 SLOAD DUP2 MSTORE SWAP1 PUSH1 0x1 ADD SWAP1 PUSH1 0x20 ADD DUP1 DUP4 GT PUSH2 0x933 JUMPI DUP3 SWAP1 SUB PUSH1 0x1F AND DUP3 ADD SWAP2 JUMPDEST POP POP POP POP POP SWAP1 DUP1 PUSH1 0x2 ADD DUP1 SLOAD PUSH2 0x965 SWAP1 PUSH2 0x18E8 JUMP JUMPDEST DUP1 PUSH1 0x1F ADD PUSH1 0x20 DUP1 SWAP2 DIV MUL PUSH1 0x20 ADD PUSH1 0x40 MLOAD SWAP1 DUP2 ADD PUSH1 0x40 MSTORE DUP1 SWAP3 SWAP2 SWAP1 DUP2 DUP2 MSTORE PUSH1 0x20 ADD DUP3 DUP1 SLOAD PUSH2 0x991 SWAP1 PUSH2 0x18E8 JUMP JUMPDEST DUP1 ISZERO PUSH2 0x9DE JUMPI DUP1 PUSH1 0x1F LT PUSH2 0x9B3 JUMPI PUSH2 0x100 DUP1 DUP4 SLOAD DIV MUL DUP4 MSTORE SWAP2 PUSH1 0x20 ADD SWAP2 PUSH2 0x9DE JUMP JUMPDEST DUP3 ADD SWAP2 SWAP1 PUSH1 0x0 MSTORE PUSH1 0x20 PUSH1 0x0 KECCAK256 SWAP1 JUMPDEST DUP2 SLOAD DUP2 MSTORE SWAP1 PUSH1 0x1 ADD SWAP1 PUSH1 0x20 ADD DUP1 DUP4 GT PUSH2 0x9C1 JUMPI DUP3 SWAP1 SUB PUSH1 0x1F AND DUP3 ADD SWAP2 JUMPDEST POP POP POP POP POP SWAP1 DUP1 PUSH1 0x3 ADD DUP1 SLOAD PUSH2 0x9F3 SWAP1 PUSH2 0x18E8 JUMP JUMPDEST DUP1 PUSH1 0x1F ADD PUSH1 0x20 DUP1 SWAP2 DIV MUL PUSH1 0x20 ADD PUSH1 0x40 MLOAD SWAP1 DUP2 ADD PUSH1 0x40 MSTORE DUP1 SWAP3 SWAP2 SWAP1 DUP2 DUP2 MSTORE PUSH1 0x20 ADD DUP3 DUP1 SLOAD PUSH2 0xA1F SWAP1 PUSH2 0x18E8 JUMP JUMPDEST DUP1 ISZERO PUSH2 0xA6C JUMPI DUP1 PUSH1 0x1F LT PUSH2 0xA41 JUMPI PUSH2 0x100 DUP1 DUP4 SLOAD DIV MUL DUP4 MSTORE SWAP2 PUSH1 0x20 ADD SWAP2 PUSH2 0xA6C JUMP JUMPDEST DUP3 ADD SWAP2 SWAP1 PUSH1 0x0 MSTORE PUSH1 0x20 PUSH1 0x0 KECCAK256 SWAP1 JUMPDEST DUP2 SLOAD DUP2 MSTORE SWAP1 PUSH1 0x1 ADD SWAP1 PUSH1 0x20 ADD DUP1 DUP4 GT PUSH2 0xA4F JUMPI DUP3 SWAP1 SUB PUSH1 0x1F AND DUP3 ADD SWAP2 JUMPDEST POP POP POP POP POP SWAP1 POP DUP5 JUMP JUMPDEST PUSH1 0x1 PUSH1 0x20 MSTORE DUP1 PUSH1 0x0 MSTORE PUSH1 0x40 PUSH1 0x0 KECCAK256 PUSH1 0x0 SWAP2 POP SLOAD SWAP1 PUSH2 0x100 EXP SWAP1 DIV PUSH1 0xFF AND DUP2 JUMP JUMPDEST PUSH1 0x1 ISZERO ISZERO PUSH1 0x0 DUP1 CALLER PUSH20 0xFFFFFFFFFFFFFFFFFFFFFFFFFFFFFFFFFFFFFFFF AND PUSH20 0xFFFFFFFFFFFFFFFFFFFFFFFFFFFFFFFFFFFFFFFF AND DUP2 MSTORE PUSH1 0x20 ADD SWAP1 DUP2 MSTORE PUSH1 0x20 ADD PUSH1 0x0 KECCAK256 PUSH1 0x0 SWAP1 SLOAD SWAP1 PUSH2 0x100 EXP SWAP1 DIV PUSH1 0xFF AND ISZERO ISZERO EQ PUSH2 0xAF2 JUMPI PUSH1 0x0 DUP1 REVERT JUMPDEST PUSH1 0x1 DUP1 PUSH1 0x0 DUP4 PUSH20 0xFFFFFFFFFFFFFFFFFFFFFFFFFFFFFFFFFFFFFFFF AND PUSH20 0xFFFFFFFFFFFFFFFFFFFFFFFFFFFFFFFFFFFFFFFF AND DUP2 MSTORE PUSH1 0x20 ADD SWAP1 DUP2 MSTORE PUSH1 0x20 ADD PUSH1 0x0 KECCAK256 PUSH1 0x0 PUSH2 0x100 EXP DUP2 SLOAD DUP2 PUSH1 0xFF MUL NOT AND SWAP1 DUP4 ISZERO ISZERO MUL OR SWAP1 SSTORE POP POP JUMP JUMPDEST PUSH1 0x1 ISZERO ISZERO PUSH1 0x1 PUSH1 0x0 CALLER PUSH20 0xFFFFFFFFFFFFFFFFFFFFFFFFFFFFFFFFFFFFFFFF AND PUSH20 0xFFFFFFFFFFFFFFFFFFFFFFFFFFFFFFFFFFFFFFFF AND DUP2 MSTORE PUSH1 0x20 ADD SWAP1 DUP2 MSTORE PUSH1 0x20 ADD PUSH1 0x0 KECCAK256 PUSH1 0x0 SWAP1 SLOAD SWAP1 PUSH2 0x100 EXP SWAP1 DIV PUSH1 0xFF AND ISZERO ISZERO EQ PUSH2 0xBA9 JUMPI PUSH1 0x0 DUP1 REVERT JUMPDEST PUSH1 0x0 PUSH1 0x40 MLOAD DUP1 PUSH1 0x80 ADD PUSH1 0x40 MSTORE DUP1 DUP7 DUP2 MSTORE PUSH1 0x20 ADD DUP6 DUP2 MSTORE PUSH1 0x20 ADD DUP5 DUP2 MSTORE PUSH1 0x20 ADD DUP4 DUP2 MSTORE POP SWAP1 POP PUSH1 0x5 DUP2 SWAP1 DUP1 PUSH1 0x1 DUP2 SLOAD ADD DUP1 DUP3 SSTORE DUP1 SWAP2 POP POP PUSH1 0x1 SWAP1 SUB SWAP1 PUSH1 0x0 MSTORE PUSH1 0x20 PUSH1 0x0 KECCAK256 SWAP1 PUSH1 0x4 MUL ADD PUSH1 0x0 SWAP1 SWAP2 SWAP1 SWAP2 SWAP1 SWAP2 POP PUSH1 0x0 DUP3 ADD MLOAD DUP2 PUSH1 0x0 ADD SWAP1 DUP1 MLOAD SWAP1 PUSH1 0x20 ADD SWAP1 PUSH2 0xC16 SWAP3 SWAP2 SWAP1 PUSH2 0xF6B JUMP JUMPDEST POP PUSH1 0x20 DUP3 ADD MLOAD DUP2 PUSH1 0x1 ADD SWAP1 DUP1 MLOAD SWAP1 PUSH1 0x20 ADD SWAP1 PUSH2 0xC33 SWAP3 SWAP2 SWAP1 PUSH2 0xF6B JUMP JUMPDEST POP PUSH1 0x40 DUP3 ADD MLOAD DUP2 PUSH1 0x2 ADD SWAP1 DUP1 MLOAD SWAP1 PUSH1 0x20 ADD SWAP1 PUSH2 0xC50 SWAP3 SWAP2 SWAP1 PUSH2 0xF6B JUMP JUMPDEST POP PUSH1 0x60 DUP3 ADD MLOAD DUP2 PUSH1 0x3 ADD SWAP1 DUP1 MLOAD SWAP1 PUSH1 0x20 ADD SWAP1 PUSH2 0xC6D SWAP3 SWAP2 SWAP1 PUSH2 0xF6B JUMP JUMPDEST POP POP POP PUSH1 0x5 PUSH1 0x4 DUP7 PUSH1 0x40 MLOAD PUSH2 0xC82 SWAP2 SWAP1 PUSH2 0x18A2 JUMP JUMPDEST SWAP1 DUP2 MSTORE PUSH1 0x20 ADD PUSH1 0x40 MLOAD DUP1 SWAP2 SUB SWAP1 KECCAK256 SWAP1 DUP1 SLOAD PUSH2 0xC9E SWAP3 SWAP2 SWAP1 PUSH2 0xFF1 JUMP JUMPDEST POP POP POP POP POP POP JUMP JUMPDEST PUSH1 0x60 PUSH1 0x4 DUP3 PUSH1 0x40 MLOAD PUSH2 0xCB8 SWAP2 SWAP1 PUSH2 0x18A2 JUMP JUMPDEST SWAP1 DUP2 MSTORE PUSH1 0x20 ADD PUSH1 0x40 MLOAD DUP1 SWAP2 SUB SWAP1 KECCAK256 DUP1 SLOAD DUP1 PUSH1 0x20 MUL PUSH1 0x20 ADD PUSH1 0x40 MLOAD SWAP1 DUP2 ADD PUSH1 0x40 MSTORE DUP1 SWAP3 SWAP2 SWAP1 DUP2 DUP2 MSTORE PUSH1 0x20 ADD PUSH1 0x0 SWAP1 JUMPDEST DUP3 DUP3 LT ISZERO PUSH2 0xF60 JUMPI DUP4 DUP3 SWAP1 PUSH1 0x0 MSTORE PUSH1 0x20 PUSH1 0x0 KECCAK256 SWAP1 PUSH1 0x4 MUL ADD PUSH1 0x40 MLOAD DUP1 PUSH1 0x80 ADD PUSH1 0x40 MSTORE SWAP1 DUP2 PUSH1 0x0 DUP3 ADD DUP1 SLOAD PUSH2 0xD19 SWAP1 PUSH2 0x18E8 JUMP JUMPDEST DUP1 PUSH1 0x1F ADD PUSH1 0x20 DUP1 SWAP2 DIV MUL PUSH1 0x20 ADD PUSH1 0x40 MLOAD SWAP1 DUP2 ADD PUSH1 0x40 MSTORE DUP1 SWAP3 SWAP2 SWAP1 DUP2 DUP2 MSTORE PUSH1 0x20 ADD DUP3 DUP1 SLOAD PUSH2 0xD45 SWAP1 PUSH2 0x18E8 JUMP JUMPDEST DUP1 ISZERO PUSH2 0xD92 JUMPI DUP1 PUSH1 0x1F LT PUSH2 0xD67 JUMPI PUSH2 0x100 DUP1 DUP4 SLOAD DIV MUL DUP4 MSTORE SWAP2 PUSH1 0x20 ADD SWAP2 PUSH2 0xD92 JUMP JUMPDEST DUP3 ADD SWAP2 SWAP1 PUSH1 0x0 MSTORE PUSH1 0x20 PUSH1 0x0 KECCAK256 SWAP1 JUMPDEST DUP2 SLOAD DUP2 MSTORE SWAP1 PUSH1 0x1 ADD SWAP1 PUSH1 0x20 ADD DUP1 DUP4 GT PUSH2 0xD75 JUMPI DUP3 SWAP1 SUB PUSH1 0x1F AND DUP3 ADD SWAP2 JUMPDEST POP POP POP POP POP DUP2 MSTORE PUSH1 0x20 ADD PUSH1 0x1 DUP3 ADD DUP1 SLOAD PUSH2 0xDAB SWAP1 PUSH2 0x18E8 JUMP JUMPDEST DUP1 PUSH1 0x1F ADD PUSH1 0x20 DUP1 SWAP2 DIV MUL PUSH1 0x20 ADD PUSH1 0x40 MLOAD SWAP1 DUP2 ADD PUSH1 0x40 MSTORE DUP1 SWAP3 SWAP2 SWAP1 DUP2 DUP2 MSTORE PUSH1 0x20 ADD DUP3 DUP1 SLOAD PUSH2 0xDD7 SWAP1 PUSH2 0x18E8 JUMP JUMPDEST DUP1 ISZERO PUSH2 0xE24 JUMPI DUP1 PUSH1 0x1F LT PUSH2 0xDF9 JUMPI PUSH2 0x100 DUP1 DUP4 SLOAD DIV MUL DUP4 MSTORE SWAP2 PUSH1 0x20 ADD SWAP2 PUSH2 0xE24 JUMP JUMPDEST DUP3 ADD SWAP2 SWAP1 PUSH1 0x0 MSTORE PUSH1 0x20 PUSH1 0x0 KECCAK256 SWAP1 JUMPDEST DUP2 SLOAD DUP2 MSTORE SWAP1 PUSH1 0x1 ADD SWAP1 PUSH1 0x20 ADD DUP1 DUP4 GT PUSH2 0xE07 JUMPI DUP3 SWAP1 SUB PUSH1 0x1F AND DUP3 ADD SWAP2 JUMPDEST POP POP POP POP POP DUP2 MSTORE PUSH1 0x20 ADD PUSH1 0x2 DUP3 ADD DUP1 SLOAD PUSH2 0xE3D SWAP1 PUSH2 0x18E8 JUMP JUMPDEST DUP1 PUSH1 0x1F ADD PUSH1 0x20 DUP1 SWAP2 DIV MUL PUSH1 0x20 ADD PUSH1 0x40 MLOAD SWAP1 DUP2 ADD PUSH1 0x40 MSTORE DUP1 SWAP3 SWAP2 SWAP1 DUP2 DUP2 MSTORE PUSH1 0x20 ADD DUP3 DUP1 SLOAD PUSH2 0xE69 SWAP1 PUSH2 0x18E8 JUMP JUMPDEST DUP1 ISZERO PUSH2 0xEB6 JUMPI DUP1 PUSH1 0x1F LT PUSH2 0xE8B JUMPI PUSH2 0x100 DUP1 DUP4 SLOAD DIV MUL DUP4 MSTORE SWAP2 PUSH1 0x20 ADD SWAP2 PUSH2 0xEB6 JUMP JUMPDEST DUP3 ADD SWAP2 SWAP1 PUSH1 0x0 MSTORE PUSH1 0x20 PUSH1 0x0 KECCAK256 SWAP1 JUMPDEST DUP2 SLOAD DUP2 MSTORE SWAP1 PUSH1 0x1 ADD SWAP1 PUSH1 0x20 ADD DUP1 DUP4 GT PUSH2 0xE99 JUMPI DUP3 SWAP1 SUB PUSH1 0x1F AND DUP3 ADD SWAP2 JUMPDEST POP POP POP POP POP DUP2 MSTORE PUSH1 0x20 ADD PUSH1 0x3 DUP3 ADD DUP1 SLOAD PUSH2 0xECF SWAP1 PUSH2 0x18E8 JUMP JUMPDEST DUP1 PUSH1 0x1F ADD PUSH1 0x20 DUP1 SWAP2 DIV MUL PUSH1 0x20 ADD PUSH1 0x40 MLOAD SWAP1 DUP2 ADD PUSH1 0x40 MSTORE DUP1 SWAP3 SWAP2 SWAP1 DUP2 DUP2 MSTORE PUSH1 0x20 ADD DUP3 DUP1 SLOAD PUSH2 0xEFB SWAP1 PUSH2 0x18E8 JUMP JUMPDEST DUP1 ISZERO PUSH2 0xF48 JUMPI DUP1 PUSH1 0x1F LT PUSH2 0xF1D JUMPI PUSH2 0x100 DUP1 DUP4 SLOAD DIV MUL DUP4 MSTORE SWAP2 PUSH1 0x20 ADD SWAP2 PUSH2 0xF48 JUMP JUMPDEST DUP3 ADD SWAP2 SWAP1 PUSH1 0x0 MSTORE PUSH1 0x20 PUSH1 0x0 KECCAK256 SWAP1 JUMPDEST DUP2 SLOAD DUP2 MSTORE SWAP1 PUSH1 0x1 ADD SWAP1 PUSH1 0x20 ADD DUP1 DUP4 GT PUSH2 0xF2B JUMPI DUP3 SWAP1 SUB PUSH1 0x1F AND DUP3 ADD SWAP2 JUMPDEST POP POP POP POP POP DUP2 MSTORE POP POP DUP2 MSTORE PUSH1 0x20 ADD SWAP1 PUSH1 0x1 ADD SWAP1 PUSH2 0xCE6 JUMP JUMPDEST POP POP POP POP SWAP1 POP SWAP2 SWAP1 POP JUMP JUMPDEST DUP3 DUP1 SLOAD PUSH2 0xF77 SWAP1 PUSH2 0x18E8 JUMP JUMPDEST SWAP1 PUSH1 0x0 MSTORE PUSH1 0x20 PUSH1 0x0 KECCAK256 SWAP1 PUSH1 0x1F ADD PUSH1 0x20 SWAP1 DIV DUP2 ADD SWAP3 DUP3 PUSH2 0xF99 JUMPI PUSH1 0x0 DUP6 SSTORE PUSH2 0xFE0 JUMP JUMPDEST DUP3 PUSH1 0x1F LT PUSH2 0xFB2 JUMPI DUP1 MLOAD PUSH1 0xFF NOT AND DUP4 DUP1 ADD OR DUP6 SSTORE PUSH2 0xFE0 JUMP JUMPDEST DUP3 DUP1 ADD PUSH1 0x1 ADD DUP6 SSTORE DUP3 ISZERO PUSH2 0xFE0 JUMPI SWAP2 DUP3 ADD JUMPDEST DUP3 DUP2 GT ISZERO PUSH2 0xFDF JUMPI DUP3 MLOAD DUP3 SSTORE SWAP2 PUSH1 0x20 ADD SWAP2 SWAP1 PUSH1 0x1 ADD SWAP1 PUSH2 0xFC4 JUMP JUMPDEST JUMPDEST POP SWAP1 POP PUSH2 0xFED SWAP2 SWAP1 PUSH2 0x10C9 JUMP JUMPDEST POP SWAP1 JUMP JUMPDEST DUP3 DUP1 SLOAD DUP3 DUP3 SSTORE SWAP1 PUSH1 0x0 MSTORE PUSH1 0x20 PUSH1 0x0 KECCAK256 SWAP1 PUSH1 0x4 MUL DUP2 ADD SWAP3 DUP3 ISZERO PUSH2 0x10B8 JUMPI PUSH1 0x0 MSTORE PUSH1 0x20 PUSH1 0x0 KECCAK256 SWAP2 PUSH1 0x4 MUL DUP3 ADD JUMPDEST DUP3 DUP2 GT ISZERO PUSH2 0x10B7 JUMPI DUP3 DUP3 PUSH1 0x0 DUP3 ADD DUP2 PUSH1 0x0 ADD SWAP1 DUP1 SLOAD PUSH2 0x103A SWAP1 PUSH2 0x18E8 JUMP JUMPDEST PUSH2 0x1045 SWAP3 SWAP2 SWAP1 PUSH2 0x10E6 JUMP JUMPDEST POP PUSH1 0x1 DUP3 ADD DUP2 PUSH1 0x1 ADD SWAP1 DUP1 SLOAD PUSH2 0x105A SWAP1 PUSH2 0x18E8 JUMP JUMPDEST PUSH2 0x1065 SWAP3 SWAP2 SWAP1 PUSH2 0x10E6 JUMP JUMPDEST POP PUSH1 0x2 DUP3 ADD DUP2 PUSH1 0x2 ADD SWAP1 DUP1 SLOAD PUSH2 0x107A SWAP1 PUSH2 0x18E8 JUMP JUMPDEST PUSH2 0x1085 SWAP3 SWAP2 SWAP1 PUSH2 0x10E6 JUMP JUMPDEST POP PUSH1 0x3 DUP3 ADD DUP2 PUSH1 0x3 ADD SWAP1 DUP1 SLOAD PUSH2 0x109A SWAP1 PUSH2 0x18E8 JUMP JUMPDEST PUSH2 0x10A5 SWAP3 SWAP2 SWAP1 PUSH2 0x10E6 JUMP JUMPDEST POP POP POP SWAP2 PUSH1 0x4 ADD SWAP2 SWAP1 PUSH1 0x4 ADD SWAP1 PUSH2 0x101C JUMP JUMPDEST JUMPDEST POP SWAP1 POP PUSH2 0x10C5 SWAP2 SWAP1 PUSH2 0x1173 JUMP JUMPDEST POP SWAP1 JUMP JUMPDEST JUMPDEST DUP1 DUP3 GT ISZERO PUSH2 0x10E2 JUMPI PUSH1 0x0 DUP2 PUSH1 0x0 SWAP1 SSTORE POP PUSH1 0x1 ADD PUSH2 0x10CA JUMP JUMPDEST POP SWAP1 JUMP JUMPDEST DUP3 DUP1 SLOAD PUSH2 0x10F2 SWAP1 PUSH2 0x18E8 JUMP JUMPDEST SWAP1 PUSH1 0x0 MSTORE PUSH1 0x20 PUSH1 0x0 KECCAK256 SWAP1 PUSH1 0x1F ADD PUSH1 0x20 SWAP1 DIV DUP2 ADD SWAP3 DUP3 PUSH2 0x1114 JUMPI PUSH1 0x0 DUP6 SSTORE PUSH2 0x1162 JUMP JUMPDEST DUP3 PUSH1 0x1F LT PUSH2 0x1125 JUMPI DUP1 SLOAD DUP6 SSTORE PUSH2 0x1162 JUMP JUMPDEST DUP3 DUP1 ADD PUSH1 0x1 ADD DUP6 SSTORE DUP3 ISZERO PUSH2 0x1162 JUMPI PUSH1 0x0 MSTORE PUSH1 0x20 PUSH1 0x0 KECCAK256 SWAP2 PUSH1 0x1F ADD PUSH1 0x20 SWAP1 DIV DUP3 ADD JUMPDEST DUP3 DUP2 GT ISZERO PUSH2 0x1161 JUMPI DUP3 SLOAD DUP3 SSTORE SWAP2 PUSH1 0x1 ADD SWAP2 SWAP1 PUSH1 0x1 ADD SWAP1 PUSH2 0x1146 JUMP JUMPDEST JUMPDEST POP SWAP1 POP PUSH2 0x116F SWAP2 SWAP1 PUSH2 0x10C9 JUMP JUMPDEST POP SWAP1 JUMP JUMPDEST JUMPDEST DUP1 DUP3 GT ISZERO PUSH2 0x11C6 JUMPI PUSH1 0x0 DUP1 DUP3 ADD PUSH1 0x0 PUSH2 0x118D SWAP2 SWAP1 PUSH2 0x11CA JUMP JUMPDEST PUSH1 0x1 DUP3 ADD PUSH1 0x0 PUSH2 0x119D SWAP2 SWAP1 PUSH2 0x11CA JUMP JUMPDEST PUSH1 0x2 DUP3 ADD PUSH1 0x0 PUSH2 0x11AD SWAP2 SWAP1 PUSH2 0x11CA JUMP JUMPDEST PUSH1 0x3 DUP3 ADD PUSH1 0x0 PUSH2 0x11BD SWAP2 SWAP1 PUSH2 0x11CA JUMP JUMPDEST POP PUSH1 0x4 ADD PUSH2 0x1174 JUMP JUMPDEST POP SWAP1 JUMP JUMPDEST POP DUP1 SLOAD PUSH2 0x11D6 SWAP1 PUSH2 0x18E8 JUMP JUMPDEST PUSH1 0x0 DUP3 SSTORE DUP1 PUSH1 0x1F LT PUSH2 0x11E8 JUMPI POP PUSH2 0x1207 JUMP JUMPDEST PUSH1 0x1F ADD PUSH1 0x20 SWAP1 DIV SWAP1 PUSH1 0x0 MSTORE PUSH1 0x20 PUSH1 0x0 KECCAK256 SWAP1 DUP2 ADD SWAP1 PUSH2 0x1206 SWAP2 SWAP1 PUSH2 0x10C9 JUMP JUMPDEST JUMPDEST POP JUMP JUMPDEST PUSH1 0x0 PUSH1 0x40 MLOAD SWAP1 POP SWAP1 JUMP JUMPDEST PUSH1 0x0 DUP1 REVERT JUMPDEST PUSH1 0x0 DUP1 REVERT JUMPDEST PUSH1 0x0 PUSH20 0xFFFFFFFFFFFFFFFFFFFFFFFFFFFFFFFFFFFFFFFF DUP3 AND SWAP1 POP SWAP2 SWAP1 POP JUMP JUMPDEST PUSH1 0x0 PUSH2 0x1249 DUP3 PUSH2 0x121E JUMP JUMPDEST SWAP1 POP SWAP2 SWAP1 POP JUMP JUMPDEST PUSH2 0x1259 DUP2 PUSH2 0x123E JUMP JUMPDEST DUP2 EQ PUSH2 0x1264 JUMPI PUSH1 0x0 DUP1 REVERT JUMPDEST POP JUMP JUMPDEST PUSH1 0x0 DUP2 CALLDATALOAD SWAP1 POP PUSH2 0x1276 DUP2 PUSH2 0x1250 JUMP JUMPDEST SWAP3 SWAP2 POP POP JUMP JUMPDEST PUSH1 0x0 PUSH1 0x20 DUP3 DUP5 SUB SLT ISZERO PUSH2 0x1292 JUMPI PUSH2 0x1291 PUSH2 0x1214 JUMP JUMPDEST JUMPDEST PUSH1 0x0 PUSH2 0x12A0 DUP5 DUP3 DUP6 ADD PUSH2 0x1267 JUMP JUMPDEST SWAP2 POP POP SWAP3 SWAP2 POP POP JUMP JUMPDEST PUSH1 0x0 DUP2 ISZERO ISZERO SWAP1 POP SWAP2 SWAP1 POP JUMP JUMPDEST PUSH2 0x12BE DUP2 PUSH2 0x12A9 JUMP JUMPDEST DUP3 MSTORE POP POP JUMP JUMPDEST PUSH1 0x0 PUSH1 0x20 DUP3 ADD SWAP1 POP PUSH2 0x12D9 PUSH1 0x0 DUP4 ADD DUP5 PUSH2 0x12B5 JUMP JUMPDEST SWAP3 SWAP2 POP POP JUMP JUMPDEST PUSH1 0x0 DUP1 REVERT JUMPDEST PUSH1 0x0 DUP1 REVERT JUMPDEST PUSH1 0x0 PUSH1 0x1F NOT PUSH1 0x1F DUP4 ADD AND SWAP1 POP SWAP2 SWAP1 POP JUMP JUMPDEST PUSH32 0x4E487B7100000000000000000000000000000000000000000000000000000000 PUSH1 0x0 MSTORE PUSH1 0x41 PUSH1 0x4 MSTORE PUSH1 0x24 PUSH1 0x0 REVERT JUMPDEST PUSH2 0x1332 DUP3 PUSH2 0x12E9 JUMP JUMPDEST DUP2 ADD DUP2 DUP2 LT PUSH8 0xFFFFFFFFFFFFFFFF DUP3 GT OR ISZERO PUSH2 0x1351 JUMPI PUSH2 0x1350 PUSH2 0x12FA JUMP JUMPDEST JUMPDEST DUP1 PUSH1 0x40 MSTORE POP POP POP JUMP JUMPDEST PUSH1 0x0 PUSH2 0x1364 PUSH2 0x120A JUMP JUMPDEST SWAP1 POP PUSH2 0x1370 DUP3 DUP3 PUSH2 0x1329 JUMP JUMPDEST SWAP2 SWAP1 POP JUMP JUMPDEST PUSH1 0x0 PUSH8 0xFFFFFFFFFFFFFFFF DUP3 GT ISZERO PUSH2 0x1390 JUMPI PUSH2 0x138F PUSH2 0x12FA JUMP JUMPDEST JUMPDEST PUSH2 0x1399 DUP3 PUSH2 0x12E9 JUMP JUMPDEST SWAP1 POP PUSH1 0x20 DUP2 ADD SWAP1 POP SWAP2 SWAP1 POP JUMP JUMPDEST DUP3 DUP2 DUP4 CALLDATACOPY PUSH1 0x0 DUP4 DUP4 ADD MSTORE POP POP POP JUMP JUMPDEST PUSH1 0x0 PUSH2 0x13C8 PUSH2 0x13C3 DUP5 PUSH2 0x1375 JUMP JUMPDEST PUSH2 0x135A JUMP JUMPDEST SWAP1 POP DUP3 DUP2 MSTORE PUSH1 0x20 DUP2 ADD DUP5 DUP5 DUP5 ADD GT ISZERO PUSH2 0x13E4 JUMPI PUSH2 0x13E3 PUSH2 0x12E4 JUMP JUMPDEST JUMPDEST PUSH2 0x13EF DUP5 DUP3 DUP6 PUSH2 0x13A6 JUMP JUMPDEST POP SWAP4 SWAP3 POP POP POP JUMP JUMPDEST PUSH1 0x0 DUP3 PUSH1 0x1F DUP4 ADD SLT PUSH2 0x140C JUMPI PUSH2 0x140B PUSH2 0x12DF JUMP JUMPDEST JUMPDEST DUP2 CALLDATALOAD PUSH2 0x141C DUP5 DUP3 PUSH1 0x20 DUP7 ADD PUSH2 0x13B5 JUMP JUMPDEST SWAP2 POP POP SWAP3 SWAP2 POP POP JUMP JUMPDEST PUSH1 0x0 DUP1 PUSH1 0x0 DUP1 PUSH1 0x80 DUP6 DUP8 SUB SLT ISZERO PUSH2 0x143F JUMPI PUSH2 0x143E PUSH2 0x1214 JUMP JUMPDEST JUMPDEST PUSH1 0x0 DUP6 ADD CALLDATALOAD PUSH8 0xFFFFFFFFFFFFFFFF DUP2 GT ISZERO PUSH2 0x145D JUMPI PUSH2 0x145C PUSH2 0x1219 JUMP JUMPDEST JUMPDEST PUSH2 0x1469 DUP8 DUP3 DUP9 ADD PUSH2 0x13F7 JUMP JUMPDEST SWAP5 POP POP PUSH1 0x20 DUP6 ADD CALLDATALOAD PUSH8 0xFFFFFFFFFFFFFFFF DUP2 GT ISZERO PUSH2 0x148A JUMPI PUSH2 0x1489 PUSH2 0x1219 JUMP JUMPDEST JUMPDEST PUSH2 0x1496 DUP8 DUP3 DUP9 ADD PUSH2 0x13F7 JUMP JUMPDEST SWAP4 POP POP PUSH1 0x40 DUP6 ADD CALLDATALOAD PUSH8 0xFFFFFFFFFFFFFFFF DUP2 GT ISZERO PUSH2 0x14B7 JUMPI PUSH2 0x14B6 PUSH2 0x1219 JUMP JUMPDEST JUMPDEST PUSH2 0x14C3 DUP8 DUP3 DUP9 ADD PUSH2 0x13F7 JUMP JUMPDEST SWAP3 POP POP PUSH1 0x60 DUP6 ADD CALLDATALOAD PUSH8 0xFFFFFFFFFFFFFFFF DUP2 GT ISZERO PUSH2 0x14E4 JUMPI PUSH2 0x14E3 PUSH2 0x1219 JUMP JUMPDEST JUMPDEST PUSH2 0x14F0 DUP8 DUP3 DUP9 ADD PUSH2 0x13F7 JUMP JUMPDEST SWAP2 POP POP SWAP3 SWAP6 SWAP2 SWAP5 POP SWAP3 POP JUMP JUMPDEST PUSH1 0x0 DUP2 SWAP1 POP SWAP2 SWAP1 POP JUMP JUMPDEST PUSH2 0x150F DUP2 PUSH2 0x14FC JUMP JUMPDEST DUP2 EQ PUSH2 0x151A JUMPI PUSH1 0x0 DUP1 REVERT JUMPDEST POP JUMP JUMPDEST PUSH1 0x0 DUP2 CALLDATALOAD SWAP1 POP PUSH2 0x152C DUP2 PUSH2 0x1506 JUMP JUMPDEST SWAP3 SWAP2 POP POP JUMP JUMPDEST PUSH1 0x0 DUP1 PUSH1 0x40 DUP4 DUP6 SUB SLT ISZERO PUSH2 0x1549 JUMPI PUSH2 0x1548 PUSH2 0x1214 JUMP JUMPDEST JUMPDEST PUSH1 0x0 DUP4 ADD CALLDATALOAD PUSH8 0xFFFFFFFFFFFFFFFF DUP2 GT ISZERO PUSH2 0x1567 JUMPI PUSH2 0x1566 PUSH2 0x1219 JUMP JUMPDEST JUMPDEST PUSH2 0x1573 DUP6 DUP3 DUP7 ADD PUSH2 0x13F7 JUMP JUMPDEST SWAP3 POP POP PUSH1 0x20 PUSH2 0x1584 DUP6 DUP3 DUP7 ADD PUSH2 0x151D JUMP JUMPDEST SWAP2 POP POP SWAP3 POP SWAP3 SWAP1 POP JUMP JUMPDEST PUSH1 0x0 DUP2 MLOAD SWAP1 POP SWAP2 SWAP1 POP JUMP JUMPDEST PUSH1 0x0 DUP3 DUP3 MSTORE PUSH1 0x20 DUP3 ADD SWAP1 POP SWAP3 SWAP2 POP POP JUMP JUMPDEST PUSH1 0x0 JUMPDEST DUP4 DUP2 LT ISZERO PUSH2 0x15C8 JUMPI DUP1 DUP3 ADD MLOAD DUP2 DUP5 ADD MSTORE PUSH1 0x20 DUP2 ADD SWAP1 POP PUSH2 0x15AD JUMP JUMPDEST DUP4 DUP2 GT ISZERO PUSH2 0x15D7 JUMPI PUSH1 0x0 DUP5 DUP5 ADD MSTORE JUMPDEST POP POP POP POP JUMP JUMPDEST PUSH1 0x0 PUSH2 0x15E8 DUP3 PUSH2 0x158E JUMP JUMPDEST PUSH2 0x15F2 DUP2 DUP6 PUSH2 0x1599 JUMP JUMPDEST SWAP4 POP PUSH2 0x1602 DUP2 DUP6 PUSH1 0x20 DUP7 ADD PUSH2 0x15AA JUMP JUMPDEST PUSH2 0x160B DUP2 PUSH2 0x12E9 JUMP JUMPDEST DUP5 ADD SWAP2 POP POP SWAP3 SWAP2 POP POP JUMP JUMPDEST PUSH1 0x0 PUSH1 0x80 DUP3 ADD SWAP1 POP DUP2 DUP2 SUB PUSH1 0x0 DUP4 ADD MSTORE PUSH2 0x1630 DUP2 DUP8 PUSH2 0x15DD JUMP JUMPDEST SWAP1 POP DUP2 DUP2 SUB PUSH1 0x20 DUP4 ADD MSTORE PUSH2 0x1644 DUP2 DUP7 PUSH2 0x15DD JUMP JUMPDEST SWAP1 POP DUP2 DUP2 SUB PUSH1 0x40 DUP4 ADD MSTORE PUSH2 0x1658 DUP2 DUP6 PUSH2 0x15DD JUMP JUMPDEST SWAP1 POP DUP2 DUP2 SUB PUSH1 0x60 DUP4 ADD MSTORE PUSH2 0x166C DUP2 DUP5 PUSH2 0x15DD JUMP JUMPDEST SWAP1 POP SWAP6 SWAP5 POP POP POP POP POP JUMP JUMPDEST PUSH1 0x0 PUSH1 0x20 DUP3 DUP5 SUB SLT ISZERO PUSH2 0x168D JUMPI PUSH2 0x168C PUSH2 0x1214 JUMP JUMPDEST JUMPDEST PUSH1 0x0 DUP3 ADD CALLDATALOAD PUSH8 0xFFFFFFFFFFFFFFFF DUP2 GT ISZERO PUSH2 0x16AB JUMPI PUSH2 0x16AA PUSH2 0x1219 JUMP JUMPDEST JUMPDEST PUSH2 0x16B7 DUP5 DUP3 DUP6 ADD PUSH2 0x13F7 JUMP JUMPDEST SWAP2 POP POP SWAP3 SWAP2 POP POP JUMP JUMPDEST PUSH1 0x0 DUP2 MLOAD SWAP1 POP SWAP2 SWAP1 POP JUMP JUMPDEST PUSH1 0x0 DUP3 DUP3 MSTORE PUSH1 0x20 DUP3 ADD SWAP1 POP SWAP3 SWAP2 POP POP JUMP JUMPDEST PUSH1 0x0 DUP2 SWAP1 POP PUSH1 0x20 DUP3 ADD SWAP1 POP SWAP2 SWAP1 POP JUMP JUMPDEST PUSH1 0x0 DUP3 DUP3 MSTORE PUSH1 0x20 DUP3 ADD SWAP1 POP SWAP3 SWAP2 POP POP JUMP JUMPDEST PUSH1 0x0 PUSH2 0x1708 DUP3 PUSH2 0x158E JUMP JUMPDEST PUSH2 0x1712 DUP2 DUP6 PUSH2 0x16EC JUMP JUMPDEST SWAP4 POP PUSH2 0x1722 DUP2 DUP6 PUSH1 0x20 DUP7 ADD PUSH2 0x15AA JUMP JUMPDEST PUSH2 0x172B DUP2 PUSH2 0x12E9 JUMP JUMPDEST DUP5 ADD SWAP2 POP POP SWAP3 SWAP2 POP POP JUMP JUMPDEST PUSH1 0x0 PUSH1 0x80 DUP4 ADD PUSH1 0x0 DUP4 ADD MLOAD DUP5 DUP3 SUB PUSH1 0x0 DUP7 ADD MSTORE PUSH2 0x1753 DUP3 DUP3 PUSH2 0x16FD JUMP JUMPDEST SWAP2 POP POP PUSH1 0x20 DUP4 ADD MLOAD DUP5 DUP3 SUB PUSH1 0x20 DUP7 ADD MSTORE PUSH2 0x176D DUP3 DUP3 PUSH2 0x16FD JUMP JUMPDEST SWAP2 POP POP PUSH1 0x40 DUP4 ADD MLOAD DUP5 DUP3 SUB PUSH1 0x40 DUP7 ADD MSTORE PUSH2 0x1787 DUP3 DUP3 PUSH2 0x16FD JUMP JUMPDEST SWAP2 POP POP PUSH1 0x60 DUP4 ADD MLOAD DUP5 DUP3 SUB PUSH1 0x60 DUP7 ADD MSTORE PUSH2 0x17A1 DUP3 DUP3 PUSH2 0x16FD JUMP JUMPDEST SWAP2 POP POP DUP1 SWAP2 POP POP SWAP3 SWAP2 POP POP JUMP JUMPDEST PUSH1 0x0 PUSH2 0x17BA DUP4 DUP4 PUSH2 0x1736 JUMP JUMPDEST SWAP1 POP SWAP3 SWAP2 POP POP JUMP JUMPDEST PUSH1 0x0 PUSH1 0x20 DUP3 ADD SWAP1 POP SWAP2 SWAP1 POP JUMP JUMPDEST PUSH1 0x0 PUSH2 0x17DA DUP3 PUSH2 0x16C0 JUMP JUMPDEST PUSH2 0x17E4 DUP2 DUP6 PUSH2 0x16CB JUMP JUMPDEST SWAP4 POP DUP4 PUSH1 0x20 DUP3 MUL DUP6 ADD PUSH2 0x17F6 DUP6 PUSH2 0x16DC JUMP JUMPDEST DUP1 PUSH1 0x0 JUMPDEST DUP6 DUP2 LT ISZERO PUSH2 0x1832 JUMPI DUP5 DUP5 SUB DUP10 MSTORE DUP2 MLOAD PUSH2 0x1813 DUP6 DUP3 PUSH2 0x17AE JUMP JUMPDEST SWAP5 POP PUSH2 0x181E DUP4 PUSH2 0x17C2 JUMP JUMPDEST SWAP3 POP PUSH1 0x20 DUP11 ADD SWAP10 POP POP PUSH1 0x1 DUP2 ADD SWAP1 POP PUSH2 0x17FA JUMP JUMPDEST POP DUP3 SWAP8 POP DUP8 SWAP6 POP POP POP POP POP POP SWAP3 SWAP2 POP POP JUMP JUMPDEST PUSH1 0x0 PUSH1 0x20 DUP3 ADD SWAP1 POP DUP2 DUP2 SUB PUSH1 0x0 DUP4 ADD MSTORE PUSH2 0x185E DUP2 DUP5 PUSH2 0x17CF JUMP JUMPDEST SWAP1 POP SWAP3 SWAP2 POP POP JUMP JUMPDEST PUSH1 0x0 DUP2 SWAP1 POP SWAP3 SWAP2 POP POP JUMP JUMPDEST PUSH1 0x0 PUSH2 0x187C DUP3 PUSH2 0x158E JUMP JUMPDEST PUSH2 0x1886 DUP2 DUP6 PUSH2 0x1866 JUMP JUMPDEST SWAP4 POP PUSH2 0x1896 DUP2 DUP6 PUSH1 0x20 DUP7 ADD PUSH2 0x15AA JUMP JUMPDEST DUP1 DUP5 ADD SWAP2 POP POP SWAP3 SWAP2 POP POP JUMP JUMPDEST PUSH1 0x0 PUSH2 0x18AE DUP3 DUP5 PUSH2 0x1871 JUMP JUMPDEST SWAP2 POP DUP2 SWAP1 POP SWAP3 SWAP2 POP POP JUMP JUMPDEST PUSH32 0x4E487B7100000000000000000000000000000000000000000000000000000000 PUSH1 0x0 MSTORE PUSH1 0x22 PUSH1 0x4 MSTORE PUSH1 0x24 PUSH1 0x0 REVERT JUMPDEST PUSH1 0x0 PUSH1 0x2 DUP3 DIV SWAP1 POP PUSH1 0x1 DUP3 AND DUP1 PUSH2 0x1900 JUMPI PUSH1 0x7F DUP3 AND SWAP2 POP JUMPDEST PUSH1 0x20 DUP3 LT DUP2 EQ ISZERO PUSH2 0x1914 JUMPI PUSH2 0x1913 PUSH2 0x18B9 JUMP JUMPDEST JUMPDEST POP SWAP2 SWAP1 POP JUMP INVALID LOG2 PUSH5 0x6970667358 0x22 SLT KECCAK256 SHR 0x2F 0xC0 0xA8 PUSH28 0x20BC39EF19471FA98D87DD13A0638C4A00AD55FDA55BC55C2D4BAF64 PUSH20 0x6F6C634300080900330000000000000000000000 "},"gasEstimates":{"creation":{"codeDepositCost":"1296000","executionCost":"25705","totalCost":"1321705"},"external":{"addAdmin(address)":"27095","addCarDealer(address)":"27116","addCarMaintenance(address)":"27139","addSecondHandCarSale(address)":"27117","admin(address)":"2956","carDealer(address)":"2867","carHistory(string,uint256)":"infinite","carMaintenance(address)":"2890","changeOwner(string,string,string,string)":"infinite","displayAll(string)":"infinite","maintenance(string,string,string,string)":"infinite","newCar(string,string,string,string)":"infinite","secondHandCarSale(address)":"2846"}},"methodIdentifiers":{"addAdmin(address)":"70480275","addCarDealer(address)":"ab1c5f4a","addCarMaintenance(address)":"2d7784d6","addSecondHandCarSale(address)":"2b4b8c0d","admin(address)":"63a846f8","carDealer(address)":"865ce8e3","carHistory(string,uint256)":"7e2b3e08","carMaintenance(address)":"75061fd9","changeOwner(string,string,string,string)":"2ef704f2","displayAll(string)":"fc2d68f0","maintenance(string,string,string,string)":"2164bd61","newCar(string,string,string,string)":"adfb4d07","secondHandCarSale(address)":"061a507a"}},"storageLayout":{"storage":[{"astId":5,"contract":"Transaction.sol:transaction","label":"admin","offset":0,"slot":"0","type":"t_mapping(t_address,t_bool)"},{"astId":9,"contract":"Transaction.sol:transaction","label":"carDealer","offset":0,"slot":"1","type":"t_mapping(t_address,t_bool)"},{"astId":13,"contract":"Transaction.sol:transaction","label":"carMaintenance","offset":0,"slot":"2","type":"t_mapping(t_address,t_bool)"},{"astId":17,"contract":"Transaction.sol:transaction","label":"secondHandCarSale","offset":0,"slot":"3","type":"t_mapping(t_address,t_bool)"},{"astId":32,"contract":"Transaction.sol:transaction","label":"carHistory","offset":0,"slot":"4","type":"t_mapping(t_string_memory_ptr,t_array(t_struct(transactionDetails)26_storage)dyn_storage)"},{"astId":36,"contract":"Transaction.sol:transaction","label":"allTransactions","offset":0,"slot":"5","type":"t_array(t_struct(transactionDetails)26_storage)dyn_storage"}],"types":{"t_address":{"encoding":"inplace","label":"address","numberOfBytes":"20"},"t_array(t_struct(transactionDetails)26_storage)dyn_storage":{"base":"t_struct(transactionDetails)26_storage","encoding":"dynamic_array","label":"struct transaction.transactionDetails[]","numberOfBytes":"32"},"t_bool":{"encoding":"inplace","label":"bool","numberOfBytes":"1"},"t_mapping(t_address,t_bool)":{"encoding":"mapping","key":"t_address","label":"mapping(address => bool)","numberOfBytes":"32","value":"t_bool"},"t_mapping(t_string_memory_ptr,t_array(t_struct(transactionDetails)26_storage)dyn_storage)":{"encoding":"mapping","key":"t_string_memory_ptr","label":"mapping(string => struct transaction.transactionDetails[])","numberOfBytes":"32","value":"t_array(t_struct(transactionDetails)26_storage)dyn_storage"},"t_string_memory_ptr":{"encoding":"bytes","label":"string","numberOfBytes":"32"},"t_string_storage":{"encoding":"bytes","label":"string","numberOfBytes":"32"},"t_struct(transactionDetails)26_storage":{"encoding":"inplace","label":"struct transaction.transactionDetails","members":[{"astId":19,"contract":"Transaction.sol:transaction","label":"VIN","offset":0,"slot":"0","type":"t_string_storage"},{"astId":21,"contract":"Transaction.sol:transaction","label":"date","offset":0,"slot":"1","type":"t_string_storage"},{"astId":23,"contract":"Transaction.sol:transaction","label":"location","offset":0,"slot":"2","type":"t_string_storage"},{"astId":25,"contract":"Transaction.sol:transaction","label":"details","offset":0,"slot":"3","type":"t_string_storage"}],"numberOfBytes":"128"}}},"userdoc":{"kind":"user","methods":{},"version":1}}